:100000000C9462000C948A000C948A000C948A0070
:100010000C948A000C948A000C948A000C948A0038
:100020000C948A000C948A000C948A000C948A0028
:100030000C948A000C948A000C94AA020C948A00F6
:100040000C94D0020C948A000C948A000C948A00C0
:100050000C948A000C948A000C948A000C948A00F8
:100060000C948A000C948A000000000024002700F1
:100070002A0000000000250028002B0000000000DE
:1000800023002600290004040404040404040202DA
:100090000202020203030303030301020408102007
:1000A0004080010204081020010204081020000012
:1000B0000007000201000003040600000000000029
:1000C0000000970211241FBECFEFD8E0DEBFCDBFE6
:1000D00011E0A0E0B1E0E8EAFAE002C005900D927C
:1000E000A234B107D9F712E0A2E4B1E001C01D9239
:1000F000A23FB107E1F710E0C4ECD0E004C02297C2
:10010000FE010E944E05C23CD107C9F70E941905A5
:100110000C9452050C940000089581EE92E040E8A2
:1001200055E260E070E00E94600289E061E00E94B8
:10013000AC0389E064E170E00E943F0462E370E098
:1001400080E090E00E94180389E060E070E00E9487
:100150003F0462E370E080E090E00E94180389E0D1
:1001600064E170E00E943F0462E370E080E090E0B0
:100170000E94180389E060E070E00E943F0462E39F
:1001800070E080E090E00E94180389E064E170E094
:100190000E943F0462E370E080E090E00E94180358
:1001A00089E060E070E00E943F0462E370E080E07C
:1001B00090E00E9418030E94FE01089589E064E126
:1001C00070E00E943F0468EC70E080E090E00E94E4
:1001D000180389E060E070E00E943F0468EC70E082
:1001E00080E090E00E94180385E291E00E9488017F
:1001F000E5CF84EC90E00E94880181EE92E060E01F
:1002000071E00E94050584EC90E00E948801F1CF26
:10021000A0911401B09115018091120190911301E8
:100220000196909313018093120120911601309151
:1002300017014FEF5FEF15968D919C911697892BC3
:10024000D1F115968D919C911697019716969C93D6
:100250008E93159715968D919C911697892B59F52C
:1002600012968C911297833051F41396ED91FC9174
:1002700014978081918101969183808306C082309A
:1002800021F414961C921E92139714965C934E932D
:10029000139712961C92129716961C921E921597FF
:1002A0008091100190911101A817B90720F4B09323
:1002B0001101A09310011796A217B30708F4BBCF42
:1002C0000895A0910E01B0910F0112968C93129790
:1002D00016967C936E931597E0911401F091150199
:1002E0008281882399F4F0931101E0931001F09337
:1002F0000F01E0930E01CF01BD010E942D02E0919C
:100300000E01F0910F018381948108953796E8CF13
:10031000BC01F89481E00E94610178940895609195
:100320000E0170910F0180911001909111018617BB
:10033000970731F090930F0180930E010E942D02D8
:100340000895CF93DF93C0911401D09115018CE5EE
:1003500092E0392FAAE1B1E0282F24C01A821E8230
:100360001D8218968D919C91199745971696ED913F
:10037000FC911797E80FF91FF983E88312968C9187
:10038000129713969C911397828B918B14968C9154
:10039000149715969C911597808B9787338B248B98
:1003A00027961A966091160170911701C617D70704
:1003B000A8F28091140190911501909311018093FE
:1003C000100190930F0180930E010E942D027894EA
:1003D000DF91CF910895FC0185E501C08193E61777
:1003E000F707E0F3089580913801882331F0F894FD
:1003F0000E94A2020E94A10181E00895DF93CF93A1
:1004000000D0CDB7DEB78AE191E009C06085718583
:10041000680F791F0E94EB0189819A810A969A835D
:100420008983E981FA8186819781009779F78091A4
:10043000EE029091EF02009721F4809118019091C3
:100440001901BE016F5070400E94EB010E94F30140
:100450000F900F90CF91DF9108952F923F924F927E
:100460005F926F927F928F929F92AF92BF92CF9244
:10047000DF92EF92FF920F931F93CF93DF93FB01D5
:100480000DB600820EB60182FC0100800DBE018017
:100490000EBEDF91CF911F910F91FF90EF90DF90F3
:1004A000CF90BF90AF909F908F907F906F905F9014
:1004B0004F903F902F9008957894C201F1010995D3
:1004C0009A01AB01203081EE380780E0480780E0D8
:1004D000580791F082E08093C00060E079E08DE3FE
:1004E00090E00E942A0521503040404050405695EF
:1004F00047953795279504C01092C00020E130E061
:100500003093C5002093C4008091C100886180931E
:10051000C10008958091C10085FDFCCF8091C0008D
:1005200085FFF8CF6093C60081E090E008951092B7
:10053000E4021092E3028DE391E09093E202809353
:10054000E102089580E887BDEEE6F0E080818260F8
:10055000808308951F920F920FB60F9211242F934C
:100560003F934F935F936F937F938F939F93AF933B
:10057000BF93EF93FF930E9408010E948F01FF91A8
:10058000EF91BF91AF919F918F917F916F915F910B
:100590004F913F912F910F900FBE0F901F90189584
:1005A0001F920F920FB60F9211242F933F938F93A8
:1005B0009F93AF93BF938091E9029091EA02A0913B
:1005C000EB02B091EC023091ED020196A11DB11D3C
:1005D000232F2D5F2D3720F02D570196A11DB11D22
:1005E0002093ED028093E9029093EA02A093EB023C
:1005F000B093EC028091E5029091E602A091E702AF
:10060000B091E8020196A11DB11D8093E50290937F
:10061000E602A093E702B093E802BF91AF919F91E9
:100620008F913F912F910F900FBE0F901F901895B3
:100630009B01AC017FB7F8948091E5029091E602AE
:10064000A091E702B091E80266B5A89B05C06F3F94
:1006500019F00196A11DB11D7FBFBA2FA92F982FA8
:100660008827860F911DA11DB11D62E0880F991F7B
:10067000AA1FBB1F6A95D1F7BC012DC0FFB7F89424
:100680008091E5029091E602A091E702B091E80224
:10069000E6B5A89B05C0EF3F19F00196A11DB11D5D
:1006A000FFBFBA2FA92F982F88278E0F911DA11D4C
:1006B000B11DE2E0880F991FAA1FBB1FEA95D1F771
:1006C000861B970B885E9340C8F221503040404013
:1006D000504068517C4F211531054105510571F697
:1006E0000895789484B5826084BD84B5816084BDAA
:1006F00085B5826085BD85B5816085BDEEE6F0E09B
:10070000808181608083E1E8F0E0108280818260F6
:100710008083808181608083E0E8F0E08081816077
:100720008083E1EBF0E0808184608083E0EBF0E0A7
:10073000808181608083EAE7F0E08081846080834B
:1007400080818260808380818160808380818068F5
:1007500080831092C1000895CF93DF93482F50E01B
:10076000CA0186569F4FFC0134914A575F4FFA01E8
:100770008491882369F190E0880F991FFC01E85962
:10078000FF4FA591B491FC01EE58FF4FC591D49154
:10079000662351F42FB7F8948C91932F9095892369
:1007A0008C93888189230BC0623061F42FB7F89451
:1007B0008C91932F909589238C938881832B8883A8
:1007C0002FBF06C09FB7F8948C91832B8C939FBF4B
:1007D000DF91CF910895482F50E0CA0182559F4F75
:1007E000FC012491CA0186569F4FFC0194914A57FF
:1007F0005F4FFA013491332309F440C0222351F1B1
:10080000233071F0243028F42130A1F0223011F58A
:1008100014C02630B1F02730C1F02430D9F404C020
:10082000809180008F7703C0809180008F7D8093BE
:10083000800010C084B58F7702C084B58F7D84BDE1
:1008400009C08091B0008F7703C08091B0008F7D88
:100850008093B000E32FF0E0EE0FFF1FEE58FF4F44
:10086000A591B4912FB7F894662321F48C919095BB
:10087000892302C08C91892B8C932FBF08951F93DD
:10088000CF93DF93182FEB0161E00E94AC03209718
:1008900009F44AC0CF3FD10509F449C0E12FF0E087
:1008A000E255FF4F84918330C1F0843028F48130C9
:1008B00051F08230B1F50CC0863019F1873049F122
:1008C000843079F514C084B5806884BDC7BD33C059
:1008D00084B5806284BDC8BD2EC0809180008068D0
:1008E00080938000D0938900C093880024C08091B9
:1008F0008000806280938000D0938B00C0938A0038
:100900001AC08091B00080688093B000C093B3009B
:1009100012C08091B00080628093B000C093B40098
:100920000AC0C038D1051CF4812F60E002C0812FBD
:1009300061E00E94EB03DF91CF911F910895CF9268
:10094000DF92EF92FF920F931F93CF93DF937C017F
:100950006B018A01C0E0D0E00FC0D6016D916D013E
:10096000D701ED91FC910190F081E02DC70109952F
:10097000C80FD91F015010400115110571F7CE01A4
:10098000DF91CF911F910F91FF90EF90DF90CF906B
:100990000895EF92FF920F931F938C01DC01ED916C
:1009A000FC910190F081E02D6DE009957C01D8016A
:1009B000ED91FC910190F081E02DC8016AE009956C
:1009C0009C012E0D3F1DC9011F910F91FF90EF90CB
:1009D0000895CF93DF93EC016115710519F420E0C0
:1009E00030E00FC0DB010D900020E9F71197A61B46
:1009F000B70BE881F9810280F381E02DAD01099503
:100A00009C01C901DF91CF910895EF92FF920F935E
:100A10001F937C010E94E9048C01C7010E94C90454
:100A2000080F191FC8011F910F91FF90EF900895B3
:100A30000895CF93DF930E9471030E9418050E94CE
:100A40008D00C0E0D0E00E948C002097E1F30E946E
:100A50000000F9CFA1E21A2EAA1BBB1BFD010DC09D
:100A6000AA1FBB1FEE1FFF1FA217B307E407F5075E
:100A700020F0A21BB30BE40BF50B661F771F881F3A
:100A8000991F1A9469F760957095809590959B01D0
:100A9000AC01BD01CF010895EE0FFF1F0590F49149
:080AA000E02D0994F894FFCF4A
:100AA80054687265616420320069646C65000000F6
:100AB80000000000CC02DA02F2020000DE000000B2
:100AC8004201C5000000F90000000702C500090145
:100AD800000000000000000002000000008A029FE1
:020AE800040008
:00000001FF
