:100000000C9462000C948A000C948A000C948A0070
:100010000C948A000C948A000C948A000C948A0038
:100020000C948A000C948A000C948A000C948A0028
:100030000C948A000C948A000C9460020C948A0040
:100040000C9465030C948A000C948A000C948A002A
:100050000C948A000C948A000C948A000C948A00F8
:100060000C948A000C948A000000000024002700F1
:100070002A0000000000250028002B0000000000DE
:1000800023002600290004040404040404040202DA
:100090000202020203030303030301020408102007
:1000A0004080010204081020010204081020000012
:1000B0000007000201000003040600000000000029
:1000C00000004D0211241FBECFEFD8E0DEBFCDBF30
:1000D00011E0A0E0B1E0E4E2F8E002C005900D928A
:1000E000AA34B107D9F712E0AAE4B1E001C01D9229
:1000F000AA3FB107E1F710E0C4ECD0E004C02297BA
:10010000FE010E940C04C23CD107C9F70E945403AF
:100110000C9410040C940000089589EE92E040E8DD
:1001200055E260E070E00E9416020E94B40108955A
:1001300084EC90E00E943E0189EE92E060E071E084
:100140000E94400384EC90E00E943E01F1CF8DE0DC
:1001500060E00E94860288EE91E00E943E018DE000
:1001600061E00E94860289EE92E069E071E00E94FF
:10017000400380ED93E00E943E01E9CFA0911D0174
:10018000B0911E0180911B0190911C0101969093EA
:100190001C0180931B0120911F01309120014FEF22
:1001A0005FEF15968D919C911697892BD1F115963D
:1001B0008D919C911697019716969C938E93159707
:1001C00015968D919C911697892B59F512968C91C5
:1001D0001297833051F41396ED91FC91149780811E
:1001E000918101969183808306C0823021F4149618
:1001F0001C921E92139714965C934E93139712962B
:100200001C92129716961C921E92159780911901B6
:1002100090911A01A817B90720F4B0931A01A0937E
:1002200019011796A217B30708F4BBCF0895A09140
:100230001701B091180112968C93129716967C9321
:100240006E931597E0911D01F0911E018281882324
:1002500099F4F0931A01E0931901F0931801E093D7
:100260001701CF01BD010E94E301E0911701F09158
:1002700018018381948108953796E8CFBC01F894E2
:1002800081E00E94170178940895609117017091A0
:1002900018018091190190911A018617970731F082
:1002A00090931801809317010E94E3010895CF9362
:1002B000DF93C0911D01D0911E0182E192E0392FA0
:1002C000A3E2B1E0282F24C01A821E821D82189654
:1002D0008D919C91199745971696ED91FC911797E2
:1002E000E80FF91FF983E88312968C911297139601
:1002F0009C911397828B918B14968C9114971596E1
:100300009C911597808B9787338B248B27961A9611
:1003100060911F0170912001C617D707A8F2809144
:100320001D0190911E0190931A01809319019093E1
:100330001801809317010E94E3017894DF91CF9117
:100340000895FC0185E501C08193E617F707E0F306
:10035000089580914101882331F0F8940E94580259
:100360000E94570181E00895DF93CF9300D0CDB76D
:10037000DEB783E291E009C060857185680F791F5F
:100380000E94A10189819A810A969A838983E981D1
:10039000FA8186819781009779F78091F602909192
:1003A000F702009721F48091210190912201BE0172
:1003B0006F5070400E94A1010E94A9010F900F9000
:1003C000CF91DF9108952F923F924F925F926F925B
:1003D0007F928F929F92AF92BF92CF92DF92EF92D5
:1003E000FF920F931F93CF93DF93FB010DB6008213
:1003F0000EB60182FC0100800DBE01800EBEDF91B1
:10040000CF911F910F91FF90EF90DF90CF90BF9011
:10041000AF909F908F907F906F905F904F903F90A4
:100420002F9008957894C201F10109959A01AB01CA
:10043000203081EE380780E0480780E0580791F0CF
:1004400082E08093C00060E079E08DE390E00E945C
:10045000E80321503040404050405695479537952D
:10046000279504C01092C00020E130E03093C50011
:100470002093C4008091C10088618093C1000895D9
:100480008091C10085FDFCCF8091C00085FFF8CF31
:100490006093C60081E090E008951092EC02109203
:1004A000EB0286E491E09093EA028093E9020895DA
:1004B00080E887BDEEE6F0E0808182608083089569
:1004C0001F920F920FB60F9211242F933F934F93C9
:1004D0005F936F937F938F939F93AF93BF93EF93AC
:1004E000FF930E94BE000E944501FF91EF91BF91D2
:1004F000AF919F918F917F916F915F914F913F91BC
:100500002F910F900FBE0F901F901895482F50E01D
:10051000CA0182559F4FFC012491CA0186569F4F04
:10052000FC0194914A575F4FFA013491332309F447
:1005300040C0222351F1233071F0243028F42130BF
:10054000A1F0223011F514C02630B1F02730C1F0EF
:100550002430D9F404C0809180008F7703C080914B
:1005600080008F7D8093800010C084B58F7702C09B
:1005700084B58F7D84BD09C08091B0008F7703C0A2
:100580008091B0008F7D8093B000E32FF0E0EE0FFC
:10059000FF1FEE58FF4FA591B4912FB7F894662333
:1005A00021F48C919095892302C08C91892B8C9396
:1005B0002FBF0895CF92DF92EF92FF920F931F9378
:1005C000CF93DF937C016B018A01C0E0D0E00FC0C4
:1005D000D6016D916D01D701ED91FC910190F081F3
:1005E000E02DC7010995C80FD91F01501040011512
:1005F000110571F7CE01DF91CF911F910F91FF90FF
:10060000EF90DF90CF900895EF92FF920F931F939A
:100610008C01DC01ED91FC910190F081E02D6DE009
:1006200009957C01D801ED91FC910190F081E02DBC
:10063000C8016AE009959C012E0D3F1DC9011F915B
:100640000F91FF90EF900895CF93DF93EC01611528
:10065000710519F420E030E00FC0DB010D9000209F
:10066000E9F71197A61BB70BE881F9810280F381A6
:10067000E02DAD0109959C01C901DF91CF9108954D
:10068000EF92FF920F931F937C010E9424038C0131
:10069000C7010E940403080F191FC8011F910F9181
:1006A000FF90EF9008950895CF93DF930E94AD03DC
:1006B0000E9453030E948D00C0E0D0E00E948C0095
:1006C0002097E1F30E940000F9CF1F920F920FB61E
:1006D0000F9211242F933F938F939F93AF93BF93C8
:1006E0008091F1029091F202A091F302B091F40294
:1006F0003091F5020196A11DB11D232F2D5F2D37DD
:1007000020F02D570196A11DB11D2093F502809375
:10071000F1029093F202A093F302B093F40280915D
:10072000ED029091EE02A091EF02B091F0020196DD
:10073000A11DB11D8093ED029093EE02A093EF02F4
:10074000B093F002BF91AF919F918F913F912F9104
:100750000F900FBE0F901F901895789484B582600B
:1007600084BD84B5816084BD85B5826085BD85B555
:10077000816085BDEEE6F0E0808181608083E1E804
:10078000F0E010828081826080838081816080833C
:10079000E0E8F0E0808181608083E1EBF0E080813F
:1007A00084608083E0EBF0E0808181608083EAE711
:1007B000F0E080818460808380818260808380819A
:1007C000816080838081806880831092C100089559
:1007D000A1E21A2EAA1BBB1BFD010DC0AA1FBB1F45
:1007E000EE1FFF1FA217B307E407F50720F0A21BB7
:1007F000B30BE40BF50B661F771F881F991F1A9424
:1008000069F760957095809590959B01AC01BD014D
:10081000CF010895EE0FFF1F0590F491E02D09948C
:04082000F894FFCF7A
:1008240054687265616420320054687265616420A2
:10083400310069646C6500000000000000D402E22D
:1008440002FA020000A70000004A01C50000009857
:100854000000000F02C500120100000000000000AB
:0A0864000002000000004002DA026A
:00000001FF
