:100000000C9463000C948B000C948B000C948B006C
:100010000C948B000C948B000C948B000C948B0034
:100020000C948B000C948B000C948B000C948B0024
:100030000C948B000C948B000C940D030C948B008F
:100040000C94B3050C948B000C948B000C948B00D7
:100050000C948B000C948B000C948B000C948B00F4
:100060000C948B000C948B000000000024002700EF
:100070002A0000000000250028002B0000000000DE
:1000800023002600290004040404040404040202DA
:100090000202020203030303030301020408102007
:1000A0004080010204081020010204081020000012
:1000B0000007000201000003040600000000000029
:1000C00000008E00FA0211241FBECFEFD8E0DEBF81
:1000D000CDBF11E0A0E0B1E0E8E7F8E102C0059093
:1000E0000D92A637B107D9F713E0A6E7B1E001C03A
:1000F0001D92AC35B107E1F710E0C6ECD0E004C0CA
:100100002297FE010E94360CC23CD107C9F70E941B
:10011000C3090C943A0C0C94000008950F931F939C
:1001200006E711E0C8016FE04BE026E00E943303D0
:10013000C801429660E14BE026E00E943303C8010B
:10014000849661E14BE026E00E9433031F910F91FA
:10015000089589E064E170E00E943A0768EC70E07D
:1001600080E090E00E94090689E060E070E00E9473
:100170003A0768EC70E080E090E00E940906E9CF61
:100180000F931F938BE493E040E855E260E070E04A
:100190000E94C30289E061E00E94A70606E711E021
:1001A000C8010E945403C80142960E945403C8012A
:1001B00084960E94540389E064E170E00E943A074B
:1001C00062E370E080E090E00E94090689E060E070
:1001D00070E00E943A0762E370E080E090E00E94E5
:1001E000090689E064E170E00E943A0762E370E08A
:1001F00080E090E00E94090689E060E070E00E94E3
:100200003A0762E370E080E090E00E94090689E02E
:1002100064E170E00E943A0762E370E080E090E001
:100220000E94090689E060E070E00E943A0762E3FC
:1002300070E080E090E00E9409060E9461021F9138
:100240000F910895FF2482E1E82E38C08BE493E0FB
:1002500069E071E00E94C5088BE493E06F2D4AE0ED
:1002600050E00E9473088BE493E061E171E00E942A
:10027000C508FE9C800111240A581E4FC80160E089
:100280000E94FA04AB01BC018BE493E022E030E071
:100290000E94AC098BE493E06FE171E00E94C50815
:1002A000C80160E040E00E944C05AB01BC018BE45A
:1002B00093E022E030E00E94AF09F39482E08F15D2
:1002C00028F68BE493E00E94C40780ED93E00E943F
:1002D000EB01FF24BBCFA0914901B0914A0180916D
:1002E00047019091480101969093480180934701FE
:1002F00020914B0130914C014FEF5FEF15968D919E
:100300009C911697892BD1F115968D919C911697FA
:10031000019716969C938E93159715968D919C91A7
:100320001697892B59F512968C911297833051F4B8
:100330001396ED91FC9114978081918101969183A0
:10034000808306C0823021F414961C921E9213976B
:1003500014965C934E93139712961C9212971696CE
:100360001C921E9215978091450190914601A81705
:10037000B90720F4B0934601A09345011796A21740
:10038000B30708F4BBCF0895A0914301B091440195
:1003900012968C93129716967C936E931597E09114
:1003A0004901F0914A018281882399F4F093460132
:1003B000E0934501F0934401E0934301CF01BD0177
:1003C0000E949002E0914301F09144018381948165
:1003D00008953796E8CFBC01F89481E00E94C401EB
:1003E0007894089560914301709144018091450192
:1003F000909146018617970731F0909344018093BE
:1004000043010E9490020895CF93DF93C091490168
:10041000D0914A018FEB92E0392FAFE4B1E0282F61
:1004200024C01A821E821D8218968D919C91199764
:1004300045971696ED91FC911797E80FF91FF983F0
:10044000E88312968C91129713969C911397828B46
:10045000918B14968C91149715969C911597808B7F
:100460009787338B248B27961A9660914B01709156
:100470004C01C617D707A8F28091490190914A0113
:1004800090934601809345019093440180934301EA
:100490000E9490027894DF91CF910895FC0185E548
:1004A00001C08193E617F707E0F3089580916D018D
:1004B000882331F0F8940E9405030E94040281E031
:1004C0000895DF93CF9300D0CDB7DEB78FE491E0EE
:1004D00009C060857185680F791F0E944E0289816D
:1004E0009A810A969A838983E981FA818681978124
:1004F000009779F78091580390915903009721F460
:1005000080914D0190914E01BE016F5070400E944C
:100510004E020E9456020F900F90CF91DF910895E6
:100520002F923F924F925F926F927F928F929F9203
:10053000AF92BF92CF92DF92EF92FF920F931F93F1
:10054000CF93DF93FB010DB600820EB60182FC0152
:1005500000800DBE01800EBEDF91CF911F910F91E3
:10056000FF90EF90DF90CF90BF90AF909F908F90D3
:100570007F906F905F904F903F902F900895789468
:10058000C201F10109959A01AB01203081EE3807D3
:1005900080E0480780E0580791F082E08093C00037
:1005A00060E079E08DE390E00E94120C2150304031
:1005B00040405040569547953795279504C0109276
:1005C000C00020E130E03093C5002093C40080914A
:1005D000C10088618093C10008958091C10085FDAC
:1005E000FCCF8091C00085FFF8CF6093C60081E00A
:1005F00090E0089510924E0310924D0382E791E02F
:1006000090934C0380934B03089580E887BDEEE6FA
:10061000F0E080818260808308951F920F920FB670
:100620000F9211242F933F934F935F936F937F9378
:100630008F939F93AF93BF93EF93FF930E946B01B0
:100640000E94F201FF91EF91BF91AF919F918F9125
:100650007F916F915F914F913F912F910F900FBEBE
:100660000F901F9018959C01DC0115966C931597BF
:1006700016964C931697862F90E0FC01E656FF4F96
:10068000E4911796EC9317978A579F4FFC0164915A
:1006900018966C9380E89EE3A0E0B0E0F9018587AE
:1006A0009687A787B08B08950F931F938C01FC0149
:1006B000858162E00E94A70680E398EFAFEFBFEF6D
:1006C000F80181879287A387B4871F910F910895BE
:1006D0002F923F924F925F926F927F928F929F9252
:1006E000AF92BF92CF92DF92EF92FF920F931F9340
:1006F000DF93CF93CDB7DEB7C254D1400FB6F89495
:10070000DEBF0FBECDBF6C01162F0E94FB059B0103
:10071000AC011123A1F4F60181859285A385B485EE
:1007200079018A01E81AF90A0A0B1B0BD801C701E3
:10073000805D9740A040B04010F4818941C1F6012E
:100740002187328743875487148213821282118251
:100750001082858161E00E94E6066AEF70E080E029
:1007600090E00E940906F601858161E00E94A706DB
:10077000F601858160E00E94E60664E170E080E0B9
:1007800090E00E940906F894F601858161E00E94DC
:10079000E60688E290E00E946206F601858162E04A
:1007A0000E94A7068AE090E00E946206F60180851A
:1007B000682F70E0660F771F64587F4FF7806F2CAB
:1007C000772420E030E040E050E0FB0105911491F7
:1007D0000EC0F60185859685A785B089281739074B
:1007E0004A075B07A8F52F5F3F4F4F4F5F4FF80158
:1007F000808190E086219721892B59F321153105BD
:100800004105510529F120E030E040E050E0FB01D6
:10081000059114914F2C55240EC0F60185859685BF
:10082000A785B089281739074A075B0788F42F5F27
:100830003F4F4F4F5F4FF801808190E08621972115
:100840008415950551F32115310541055105C1F474
:10085000F601118A7894B3C0F60185859685A7853F
:10086000B089E816F9060A071B0720F0EE24FF24DA
:10087000870124C00894E11CF11C011D111D17C043
:100880004E010894811C911C5401FB012590349069
:10089000FB01659174918E010F5B1E4FCF5BDE4FA4
:1008A00019830883C154D140EE24FF248701F1014C
:1008B000808190E086219721892B71F220E030E041
:1008C00040E050E013C0F60185859685A785B08984
:1008D000281739074A075B0728F020E030E040E09E
:1008E00050E00CC02F5F3F4F4F4F5F4FFB018081A7
:1008F00090E0862197218415950529F3F501E08282
:10090000F182028313832483358346835783B8E0BF
:10091000EB2EF12CAE0CBF1CCF5BDE4F0881198192
:10092000C154D140A016B10609F0BECF789460E062
:1009300070E0F401E080F18002811381248135812F
:1009400046815781E114F10401051105B1F121152A
:1009500031054105510589F1FB01A3E0F595E795C6
:10096000AA95E1F7EC0DFD1D8081880F8083E216CA
:10097000F3060407150710F4816080836F5F7F4FD3
:1009800098E0E92EF12C8E0C9F1C6832710589F6D7
:10099000F601448150E02181808190E0820F911D19
:1009A0002281820F911D2381820F911D9070481723
:1009B000590719F481E0818B03C0F601118A80E0A8
:1009C000CE5BDE4F0FB6F894DEBF0FBECDBFCF912A
:1009D000DF911F910F91FF90EF90DF90CF90BF902C
:1009E000AF909F908F907F906F905F904F903F90CF
:1009F0002F900895EF92FF920F931F93CF93DF9361
:100A0000EC0160E00E9468038823A9F18E818B309D
:100A100031F08B3080F18551823068F507C06881F4
:100A200070E080E090E00E94D60A22C0688170E009
:100A300080E090E00E94D60A20E030E040E853E4F5
:100A40000E948C0B7B018C01698170E0882777FD07
:100A50008095982F0E94D80A9B01AC01C801B7016C
:100A60000E94D5092DEC3CEC4CEC5DE30E948C0B14
:100A7000E62F692F04C0E0E070E080EC6FE72E2FD6
:100A8000372F482F562FB901CA01DF91CF911F91FF
:100A90000F91FF90EF900895CF92DF92EF92FF9227
:100AA0000F931F93CF93DF93EC01C62E642F0E9408
:100AB0006803882309F44AC08E818B3041F08B3063
:100AC00008F444C08551823008F040C007C06A81F4
:100AD00070E080E090E00E94D60A29C0DA806D2D97
:100AE00070E06F777070882777FD8095982F0E944F
:100AF000D80A20E030E040E853E40E948C0B7B01F0
:100B00008C016B8170E0882777FD8095982F0E947B
:100B1000D80A9B01AC01C801B7010E94D5092DEC90
:100B20003CEC4CEC5DE30E948C0BD7FC9058CC2045
:100B300089F026E636E646EE5FE30E948C0B20E065
:100B400030E040E052E40E94D50904C060E070E06B
:100B500080EC9FE7DF91CF911F910F91FF90EF9075
:100B6000DF90CF9008951F920F920FB60F9211242D
:100B70002F933F938F939F93AF93BF938091530392
:100B800090915403A0915503B091560330915703AF
:100B90000196A11DB11D232F2D5F2D3720F02D575C
:100BA0000196A11DB11D2093570380935303909389
:100BB0005403A0935503B093560380914F03909133
:100BC0005003A0915103B09152030196A11DB11D94
:100BD00080934F0390935003A0935103B09352031B
:100BE000BF91AF919F918F913F912F910F900FBE29
:100BF0000F901F9018958FB7F89420915303309160
:100C0000540340915503509156038FBFB901CA0157
:100C100008959B01AC017FB7F89480914F039091A8
:100C20005003A0915103B091520366B5A89B05C033
:100C30006F3F19F00196A11DB11D7FBFBA2FA92FDB
:100C4000982F8827860F911DA11DB11D62E0880F86
:100C5000991FAA1FBB1F6A95D1F7BC012DC0FFB712
:100C6000F89480914F0390915003A0915103B0915B
:100C70005203E6B5A89B05C0EF3F19F00196A11DF0
:100C8000B11DFFBFBA2FA92F982F88278E0F911D56
:100C9000A11DB11DE2E0880F991FAA1FBB1FEA9595
:100CA000D1F7861B970B885E9340C8F221503040E5
:100CB0004040504068517C4F211531054105510598
:100CC00071F60895019739F0880F991F880F991FC1
:100CD00002970197F1F70895789484B5826084BDF6
:100CE00084B5816084BD85B5826085BD85B5816030
:100CF00085BDEEE6F0E0808181608083E1E8F0E090
:100D00001082808182608083808181608083E0E8BE
:100D1000F0E0808181608083E1EBF0E0808184609D
:100D20008083E0EBF0E0808181608083EAE7F0E09F
:100D30008081846080838081826080838081816003
:100D400080838081806880831092C1000895CF9352
:100D5000DF93482F50E0CA0186569F4FFC01349123
:100D60004A575F4FFA018491882369F190E0880F18
:100D7000991FFC01E859FF4FA591B491FC01EE5871
:100D8000FF4FC591D491662351F42FB7F8948C91FD
:100D9000932F909589238C93888189230BC062308F
:100DA00061F42FB7F8948C91932F909589238C93AD
:100DB0008881832B88832FBF06C09FB7F8948C91BE
:100DC000832B8C939FBFDF91CF910895482F50E0E4
:100DD000CA0182559F4FFC012491CA0186569F4F3C
:100DE000FC0194914A575F4FFA013491332309F47F
:100DF00040C0222351F1233071F0243028F42130F7
:100E0000A1F0223011F514C02630B1F02730C1F026
:100E10002430D9F404C0809180008F7703C0809182
:100E200080008F7D8093800010C084B58F7702C0D2
:100E300084B58F7D84BD09C08091B0008F7703C0D9
:100E40008091B0008F7D8093B000E32FF0E0EE0F33
:100E5000FF1FEE58FF4FA591B4912FB7F89466236A
:100E600021F48C919095892302C08C91892B8C93CD
:100E70002FBF08951F93CF93DF93182FEB0161E0ED
:100E80000E94A706209709F44AC0CF3FD10509F474
:100E900049C0E12FF0E0E255FF4F84918330C1F06B
:100EA000843028F4813051F08230B1F50CC08630A6
:100EB00019F1873049F1843079F514C084B5806820
:100EC00084BDC7BD33C084B5806284BDC8BD2EC09B
:100ED00080918000806880938000D0938900C093C7
:100EE000880024C080918000806280938000D0932D
:100EF0008B00C0938A001AC08091B00080688093F4
:100F0000B000C093B30012C08091B00080628093A3
:100F1000B000C093B4000AC0C038D1051CF4812FC2
:100F200060E002C0812F61E00E94E606DF91CF9170
:100F30001F910895CF92DF92EF92FF920F931F932C
:100F4000CF93DF937C016B018A01C0E0D0E00FC03A
:100F5000D6016D916D01D701ED91FC910190F08169
:100F6000E02DC7010995C80FD91F01501040011588
:100F7000110571F7CE01DF91CF911F910F91FF9075
:100F8000EF90DF90CF900895EF92FF920F931F9311
:100F90008C01DC01ED91FC910190F081E02D6DE080
:100FA00009957C01D801ED91FC910190F081E02D33
:100FB000C8016AE009959C012E0D3F1DC9011F91D2
:100FC0000F91FF90EF900895CF93DF93EC0161159F
:100FD000710519F420E030E00FC0DB010D90002016
:100FE000E9F71197A61BB70BE881F9810280F3811D
:100FF000E02DAD0109959C01C901DF91CF910895C4
:101000004F925F927F928F929F92AF92BF92CF92B8
:10101000DF92EF92FF920F931F93DF93CF93CDB7A1
:10102000DEB7A1970FB6F894DEBF0FBECDBF2C017F
:10103000742ECB01223008F42AE019A231E2C32E2B
:10104000D12CCC0EDD1E822E9924AA24BB24672D20
:10105000752FA50194010E94120C79018A01C80123
:10106000B701A50194010E94F30B472D461B08947C
:10107000C108D1084A3014F4405D01C0495CF60152
:101080004083E114F1040105110521F07E2C5F2D50
:10109000C801DDCFC201B6010E94E407A1960FB6D8
:1010A000F894DEBF0FBECDBFCF91DF911F910F919E
:1010B000FF90EF90DF90CF90BF90AF909F908F9078
:1010C0007F905F904F900895DC012115310541F428
:1010D000ED91FC910190F081E02D642F0995089528
:1010E0000E9400080895EF92FF920F931F939A01B8
:1010F000E62EFF2400E010E0B801A7010E9464087A
:101100001F910F91FF90EF900895CF92DF92EF9291
:10111000FF920F931F93CF93DF93EC016A017B0142
:101120002115310541F4E881F9810190F081E02D2C
:10113000642F09951FC02A303105D1F477FF17C0FD
:10114000E881F9810190F081E02D6DE209958C0133
:1011500044275527BA014C195D096E097F09CE0154
:101160002AE00E9400089801280F391F04C02AE0D5
:101170000E9400089C01C901DF91CF911F910F913E
:10118000FF90EF90DF90CF9008950E94E4070895BC
:101190007F928F929F92AF92BF92CF92DF92EF9207
:1011A000FF920F931F93CF93DF934C017A018B0132
:1011B000722ECB01BA01A80197010E94EF0B882380
:1011C00021F0C40165E371E021C0C0E0D0E0570127
:1011D0006801E894D7F8C601B5012FEF3FEF4FE75C
:1011E0005FE70E94EF0B882351F4C601B5012FEF92
:1011F0003FEF4FE75FE70E94390A181614F0C1E08D
:10120000D0E0219739F0C40169E371E00E94E4075E
:10121000EC0193C0C801B7012FEF3FEF4FE75FE448
:101220000E94880B181654F0C801B7012FEF3FEF4A
:101230004FE75FEC0E94390A882324F4C4016DE370
:1012400071E0E4CFC801B70120E030E040E050E0B9
:101250000E94390A87FD03C0C0E0D0E00EC0D4016F
:10126000ED91FC910190F081E02DC4016DE20995B2
:10127000EC0117FB109517F9109520E030E040E0E5
:101280005FE3DD240BC0CA01B90120E030E040E299
:1012900051E40E943D0A9B01AC01D394D71498F30A
:1012A000C801B7010E94D5095B016C010E94AA0A1E
:1012B0007B018C01C401B801A7012AE030E00E9443
:1012C0006408C80FD91F772039F0C40161E471E0C8
:1012D0000E94E407C80FD91FC801B7010E94D60AAF
:1012E0009B01AC01C601B5010E94D40924C020E0D5
:1012F00030E040E251E40E948C0B7B018C010E94A3
:10130000A50A5B016C01CC24B7FCC094DC2CC401A1
:10131000B601A5012AE030E00E948508C80FD91F58
:10132000C601B5010E94D80A9B01AC01C801B701F2
:101330000E94D4097A947720D1F6CE01DF91CF9123
:101340001F910F91FF90EF90DF90CF90BF90AF90E3
:101350009F908F907F9008950E94C8080895EF9203
:10136000FF920F931F937C010E94C8088C01C70154
:101370000E94C407080F191FC8011F910F91FF9009
:10138000EF9008950895CF93DF930E946C060E941A
:10139000C2090E94C000C0E0D0E00E948D002097EA
:1013A000E1F30E940000F9CF5058BB27AA270ED0C6
:1013B00075C166D130F06BD120F031F49F3F11F44C
:1013C0001EF45BC10EF4E095E7FB51C1E92F77D124
:1013D00080F3BA17620773078407950718F071F452
:1013E0009EF58FC10EF4E0950B2EBA2FA02D0B01A8
:1013F000B90190010C01CA01A0011124FF27591B5A
:1014000099F0593F50F4503E68F11A16F040A22F5F
:10141000232F342F4427585FF3CF469537952795D0
:10142000A795F0405395C9F77EF41F16BA0B620BCF
:10143000730B840BBAF09150A1F0FF0FBB1F661F16
:10144000771F881FC2F70EC0BA0F621F731F841F59
:1014500048F4879577956795B795F7959E3F08F07F
:10146000B3CF9395880F08F09927EE0F979587953E
:101470000895D9D008F481E008950CD00FC107D1A8
:1014800040F0FED030F021F45F3F19F0F0C0511170
:1014900039C1F3C014D198F39923C9F35523B1F39B
:1014A000951B550BBB27AA2762177307840738F0D3
:1014B0009F5F5F4F220F331F441FAA1FA9F333D032
:1014C0000E2E3AF0E0E830D091505040E695001CE6
:1014D000CAF729D0FE2F27D0660F771F881FBB1FA2
:1014E000261737074807AB07B0E809F0BB0B802D7C
:1014F000BF01FF2793585F4F2AF09E3F510568F0C8
:10150000B6C000C15F3FECF3983EDCF3869577955B
:101510006795B795F7959F5FC9F7880F911D9695C9
:10152000879597F90895E1E0660F771F881FBB1F25
:10153000621773078407BA0720F0621B730B840BD2
:10154000BA0BEE1F88F7E095089504D06894B111A6
:10155000D9C00895BCD088F09F5790F0B92F992733
:10156000B751A0F0D1F0660F771F881F991F1AF0AE
:10157000BA95C9F712C0B13081F0C3D0B1E0089577
:10158000C0C0672F782F8827B85F39F0B93FCCF3F8
:10159000869577956795B395D9F73EF490958095A4
:1015A000709561957F4F8F4F9F4F0895E89409C0C4
:1015B00097FB3EF490958095709561957F4F8F4F86
:1015C0009F4F9923A9F0F92F96E9BB279395F6959C
:1015D000879577956795B795F111F8CFFAF4BB0F1A
:1015E00011F460FF1BC06F5F7F4F8F4F9F4F16C07E
:1015F000882311F096E911C0772321F09EE8872F08
:10160000762F05C0662371F096E8862F70E060E0C3
:101610002AF09A95660F771F881FDAF7880F96953C
:10162000879597F90895990F0008550FAA0BE0E8E0
:10163000FEEF16161706E807F907C0F01216130694
:10164000E407F50798F0621B730B840B950B39F4D4
:101650000A2661F0232B242B252B21F408950A263A
:1016600009F4A140A6958FEF811D811D089597F97A
:101670009F6780E870E060E008959FEF80EC089538
:1016800000240A9416161706180609060895002461
:101690000A9412161306140605060895092E0394DB
:1016A000000C11F4882352F0BB0F40F4BF2B11F44F
:1016B00060FF04C06F5F7F4F8F4F9F4F089557FDAE
:1016C0009058440F551F59F05F3F71F04795880FB0
:1016D00097FB991F61F09F3F79F087950895121647
:1016E00013061406551FF2CF4695F1DF08C01616F3
:1016F00017061806991FF1CF8695710561050894A4
:101700000895E894BB2766277727CB0197F90895BA
:101710008ADF08F48FEF08950BD0C0CFB1DF28F037
:10172000B6DF18F0952309F0A2CFA7CF1124EACF96
:10173000C6DFA0F3959FD1F3950F50E0551F629F30
:10174000F001729FBB27F00DB11D639FAA27F00D1A
:10175000B11DAA1F649F6627B00DA11D661F829F41
:101760002227B00DA11D621F739FB00DA11D621F26
:10177000839FA00D611D221F749F3327A00D611D43
:10178000231F849F600D211D822F762F6A2F112425
:101790009F5750408AF0E1F088234AF0EE0FFF1F78
:1017A000BB1F661F771F881F91505040A9F79E3FAF
:1017B000510570F05CCFA6CF5F3FECF3983EDCF3B1
:1017C000869577956795B795F795E7959F5FC1F7EC
:1017D000FE2B880F911D9695879597F9089523DF25
:1017E000880B990B0895629FD001739FF001829F2F
:1017F000E00DF11D649FE00DF11D929FF00D839FA0
:10180000F00D749FF00D659FF00D9927729FB00D3C
:10181000E11DF91F639FB00DE11DF91FBD01CF014F
:1018200011240895A1E21A2EAA1BBB1BFD010DC0B5
:10183000AA1FBB1FEE1FFF1FA217B307E407F50780
:1018400020F0A21BB30BE40BF50B661F771F881F5C
:10185000991F1A9469F760957095809590959B01F2
:10186000AC01BD01CF010895EE0FFF1F0590F4916B
:08187000E02D0994F894FFCF6C
:1018780054687265616420320053656E736F72201C
:1018880000202D2048756D69646974793A2000201C
:101898007C2054656D70657261747572653A2000BC
:1018A80069646C65006E616E00696E66006F7666CD
:1018B800002E00000000000000360344035C030013
:1018C80000A9000000AC01C5000000220100007161
:1018D80002C5003001000000000000000002000006
:0618E8000000ED029A076A
:00000001FF
