:100000000C9463000C948B000C948B000C948B006C
:100010000C948B000C948B000C948B000C948B0034
:100020000C948B000C948B000C948B000C948B0024
:100030000C948B000C948B000C9422030C948B007A
:100040000C94C8050C948B000C948B000C948B00C2
:100050000C948B000C948B000C948B000C948B00F4
:100060000C948B000C948B000000000024002700EF
:100070002A0000000000250028002B0000000000DE
:1000800023002600290004040404040404040202DA
:100090000202020203030303030301020408102007
:1000A0004080010204081020010204081020000012
:1000B0000007000201000003040600000000000029
:1000C00000008E000F0311241FBECFEFD8E0DEBF6B
:1000D000CDBF11E0A0E0B1E0ECE0F9E102C0059095
:1000E0000D92A639B107D9F714E0A6E9B1E001C035
:1000F0001D92A834B107E1F710E0C6ECD0E004C0CF
:100100002297FE010E94800CC23CD107C9F70E94D1
:100110000D0A0C94840C0C94000008950F931F9307
:1001200006E911E0C8016FE04BE026E00E944803B9
:10013000C801429660E14BE026E00E944803C801F6
:10014000849661E14BE026E00E9448031F910F91E5
:10015000089589E064E170E00E94710768EC70E046
:1001600080E090E00E941E0689E060E070E00E945E
:10017000710768EC70E080E090E00E941E06E9CF15
:100180000F931F9387E394E040E855E260E070E04E
:100190000E94D80289E061E00E94BC0606E911E0F5
:1001A000C8010E946903C80142960E946903C80100
:1001B00084960E94690389E064E170E00E947107FF
:1001C00062E370E080E090E00E941E0689E060E05B
:1001D00070E00E94710762E370E080E090E00E94AE
:1001E0001E0689E064E170E00E94710762E370E03E
:1001F00080E090E00E941E0689E060E070E00E94CE
:10020000710762E370E080E090E00E941E0689E0E2
:1002100064E170E00E94710762E370E080E090E0CA
:100220000E941E0689E060E070E00E94710762E3B0
:1002300070E080E090E00E941E060E9476021F910E
:100240000F9108958EE00E944F078C5B924034F42A
:1002500087E394E060E071E00E94F90987E394E0AD
:100260000E94FB0780ED93E00E940002EBCFFF2489
:1002700082E1E82E38C087E394E06DE171E00E94EE
:10028000FC0887E394E06F2D4AE050E00E94AA0842
:1002900087E394E065E271E00E94FC08FE9C800127
:1002A00011240A561E4FC80160E00E940F05AB01E1
:1002B000BC0187E394E022E030E00E94E30987E399
:1002C00094E063E371E00E94FC08C80160E040E054
:1002D0000E946105AB01BC0187E394E022E030E0BD
:1002E0000E94E609F39482E08F1528F687E394E0F4
:1002F0000E94FB0780ED93E00E940002FF24BBCF29
:10030000A0915D01B0915E0180915B0190915C01D3
:10031000019690935C0180935B0120915F01309185
:1003200060014FEF5FEF15968D919C911697892B89
:10033000D1F115968D919C911697019716969C93E5
:100340008E93159715968D919C911697892B59F53B
:1003500012968C911297833051F41396ED91FC9183
:1003600014978081918101969183808306C08230A9
:1003700021F414961C921E92139714965C934E933C
:10038000139712961C92129716961C921E9215970E
:100390008091590190915A01A817B90720F4B093A0
:1003A0005A01A09359011796A217B30708F4BBCFBF
:1003B0000895A0915701B091580112968C9312970D
:1003C00016967C936E931597E0915D01F0915E0116
:1003D0008281882399F4F0935A01E0935901F093B4
:1003E0005801E0935701CF01BD010E94A502E091A1
:1003F0005701F09158018381948108953796E8CF91
:10040000BC01F89481E00E94D9017894089560912C
:100410005701709158018091590190915A018617A6
:10042000970731F090935801809357010E94A502DD
:100430000895CF93DF93C0915D01D0915E0184ED6B
:1004400092E0392FA4E6B1E0282F24C01A821E8240
:100450001D8218968D919C91199745971696ED914E
:10046000FC911797E80FF91FF983E88312968C9196
:10047000129713969C911397828B918B14968C9163
:10048000149715969C911597808B9787338B248BA7
:1004900027961A9660915F0170916001C617D70781
:1004A000A8F280915D0190915E0190935A01809332
:1004B000590190935801809357010E94A5027894A6
:1004C000DF91CF910895FC0185E501C08193E61786
:1004D000F707E0F3089580918C01882331F0F894B8
:1004E0000E941A030E94190281E00895DF93CF93BE
:1004F00000D0CDB7DEB784E691E009C06085718594
:10050000680F791F0E94630289819A810A969A83F3
:100510008983E981FA8186819781009779F78091B3
:10052000440490914504009721F4809161019091D9
:100530006201BE016F5070400E9463020E946B0214
:100540000F900F90CF91DF9108952F923F924F928D
:100550005F926F927F928F929F92AF92BF92CF9253
:10056000DF92EF92FF920F931F93CF93DF93FB01E4
:100570000DB600820EB60182FC0100800DBE018026
:100580000EBEDF91CF911F910F91FF90EF90DF9002
:10059000CF90BF90AF909F908F907F906F905F9023
:1005A0004F903F902F9008957894C201F1010995E2
:1005B0009A01AB01203081EE380780E0480780E0E7
:1005C000580791F082E08093C00060E079E08DE30D
:1005D00090E00E945C0C21503040404050405695C5
:1005E00047953795279504C01092C00020E130E070
:1005F0003093C5002093C4008091C100886180932E
:10060000C10008958091C10085FDFCCF8091C0009C
:1006100085FFF8CF6093C60081E090E008951092C6
:100620003A041092390481E991E090933804809360
:100630003704089580E887BDEEE6F0E080818260AF
:10064000808308951F920F920FB60F9211242F935B
:100650003F934F935F936F937F938F939F93AF934A
:10066000BF93EF93FF930E9480010E940702FF91C6
:10067000EF91BF91AF919F918F917F916F915F911A
:100680004F913F912F910F900FBE0F901F90189593
:100690009C01DC0115966C93159716964C93169752
:1006A000862F90E0FC01E656FF4FE4911796EC93FD
:1006B00017978A579F4FFC01649118966C9380E8B6
:1006C0009EE3A0E0B0E0F90185879687A787B08B0D
:1006D00008950F931F938C01FC01858162E00E94B5
:1006E000BC0680E398EFAFEFBFEFF80181879287F8
:1006F000A387B4871F910F9108952F923F924F9235
:100700005F926F927F928F929F92AF92BF92CF92A1
:10071000DF92EF92FF920F931F93DF93CF93CDB7AA
:10072000DEB7C254D1400FB6F894DEBF0FBECDBFC6
:100730006C01162F0E9410069B01AC011123A1F43D
:10074000F60181859285A385B48579018A01E81A2D
:10075000F90A0A0B1B0BD801C701805D9740A04026
:10076000B04010F4818941C1F60121873287438767
:10077000548714821382128211821082858161E073
:100780000E94FB066AEF70E080E090E00E941E0687
:10079000F601858161E00E94BC06F601858160E07A
:1007A0000E94FB0664E170E080E090E00E941E067B
:1007B000F894F601858161E00E94FB0688E290E0F2
:1007C0000E947706F601858162E00E94BC068AE0FD
:1007D00090E00E947706F6018085682F70E0660F32
:1007E000771F64587F4FF7806F2C772420E030E02C
:1007F00040E050E0FB01059114910EC0F6018585A3
:100800009685A785B089281739074A075B07A8F599
:100810002F5F3F4F4F4F5F4FF801808190E086215F
:100820009721892B59F3211531054105510529F1EE
:1008300020E030E040E050E0FB01059114914F2CA6
:1008400055240EC0F60185859685A785B0892817A1
:1008500039074A075B0788F42F5F3F4F4F4F5F4FC1
:10086000F801808190E0862197218415950551F348
:100870002115310541055105C1F4F601118A78941D
:10088000B3C0F60185859685A785B089E816F90677
:100890000A071B0720F0EE24FF24870124C00894D8
:1008A000E11CF11C011D111D17C04E010894811C93
:1008B000911C5401FB0125903490FB0165917491CA
:1008C0008E010F5B1E4FCF5BDE4F19830883C1542F
:1008D000D140EE24FF248701F101808190E0862140
:1008E0009721892B71F220E030E040E050E013C006
:1008F000F60185859685A785B089281739074A07A7
:100900005B0728F020E030E040E050E00CC02F5FB3
:100910003F4F4F4F5F4FFB01808190E08621972131
:100920008415950529F3F501E082F1820283138392
:100930002483358346835783B8E0EB2EF12CAE0C2D
:10094000BF1CCF5BDE4F08811981C154D140A01676
:10095000B10609F0BECF789460E070E0F401E08069
:10096000F180028113812481358146815781E11410
:10097000F10401051105B1F12115310541055105BC
:1009800089F1FB01A3E0F595E795AA95E1F7EC0D58
:10099000FD1D8081880F8083E216F306040715078A
:1009A00010F4816080836F5F7F4F98E0E92EF12C17
:1009B0008E0C9F1C6832710589F6F601448150E067
:1009C0002181808190E0820F911D2281820F911DF3
:1009D0002381820F911D90704817590719F481E007
:1009E000818B03C0F601118A80E0CE5BDE4F0FB62B
:1009F000F894DEBF0FBECDBFCF91DF911F910F9155
:100A0000FF90EF90DF90CF90BF90AF909F908F902E
:100A10007F906F905F904F903F902F900895EF924E
:100A2000FF920F931F93CF93DF93EC0160E00E943E
:100A30007D038823A9F18E818B3031F08B3080F1DA
:100A40008551823068F507C0688170E080E090E0F1
:100A50000E94200B22C0688170E080E090E00E943C
:100A6000200B20E030E040E853E40E94D60B7B01ED
:100A70008C01698170E0882777FD8095982F0E940E
:100A8000220B9B01AC01C801B7010E941F0A2DEC8B
:100A90003CEC4CEC5DE30E94D60BE62F692F04C0C2
:100AA000E0E070E080EC6FE72E2F372F482F562FB5
:100AB000B901CA01DF91CF911F910F91FF90EF9083
:100AC0000895CF92DF92EF92FF920F931F93CF93EF
:100AD000DF93EC01C62E642F0E947D03882309F466
:100AE0004AC08E818B3041F08B3008F444C0855170
:100AF000823008F040C007C06A8170E080E090E07A
:100B00000E94200B29C0DA806D2D70E06F77707025
:100B1000882777FD8095982F0E94220B20E030E0F7
:100B200040E853E40E94D60B7B018C016B8170E09E
:100B3000882777FD8095982F0E94220B9B01AC019E
:100B4000C801B7010E941F0A2DEC3CEC4CEC5DE3A0
:100B50000E94D60BD7FC9058CC2089F026E636E6CA
:100B600046EE5FE30E94D60B20E030E040E052E426
:100B70000E941F0A04C060E070E080EC9FE7DF91F4
:100B8000CF911F910F91FF90EF90DF90CF9008953C
:100B90001F920F920FB60F9211242F933F938F93B2
:100BA0009F93AF93BF9380913F0490914004A09195
:100BB0004104B0914204309143040196A11DB11D3E
:100BC000232F2D5F2D3720F02D570196A11DB11D2C
:100BD0002093430480933F0490934004A0934104E6
:100BE000B093420480913B0490913C04A0913D0459
:100BF000B0913E040196A11DB11D80933B049093DA
:100C00003C04A0933D04B0933E04BF91AF919F91EB
:100C10008F913F912F910F900FBE0F901F901895BD
:100C20008FB7F89420913F043091400440914104E3
:100C3000509142048FBFB901CA0108959B01AC01D4
:100C40007FB7F89480913B0490913C04A0913D04BF
:100C5000B0913E0466B5A89B05C06F3F19F00196A0
:100C6000A11DB11D7FBFBA2FA92F982F8827860FEE
:100C7000911DA11DB11D62E0880F991FAA1FBB1F06
:100C80006A95D1F7BC012DC0FFB7F89480913B0461
:100C900090913C04A0913D04B0913E04E6B5A89B20
:100CA00005C0EF3F19F00196A11DB11DFFBFBA2F7E
:100CB000A92F982F88278E0F911DA11DB11DE2E04D
:100CC000880F991FAA1FBB1FEA95D1F7861B970BA8
:100CD000885E9340C8F221503040404050406851F7
:100CE0007C4F211531054105510571F60895019795
:100CF00039F0880F991F880F991F02970197F1F714
:100D00000895789484B5826084BD84B5816084BD83
:100D100085B5826085BD85B5816085BDEEE6F0E074
:100D2000808181608083E1E8F0E0108280818260D0
:100D30008083808181608083E0E8F0E08081816051
:100D40008083E1EBF0E0808184608083E0EBF0E081
:100D5000808181608083EAE7F0E080818460808325
:100D600080818260808380818160808380818068CF
:100D700080831092C1000895CF93DF93482F50E0F5
:100D8000CA0186569F4FFC0134914A575F4FFA01C2
:100D90008491882369F190E0880F991FFC01E8593C
:100DA000FF4FA591B491FC01EE58FF4FC591D4912E
:100DB000662351F42FB7F8948C91932F9095892343
:100DC0008C93888189230BC0623061F42FB7F8942B
:100DD0008C91932F909589238C938881832B888382
:100DE0002FBF06C09FB7F8948C91832B8C939FBF25
:100DF000DF91CF910895482F50E0CA0182559F4F4F
:100E0000FC012491CA0186569F4FFC0194914A57D8
:100E10005F4FFA013491332309F440C0222351F18A
:100E2000233071F0243028F42130A1F0223011F564
:100E300014C02630B1F02730C1F02430D9F404C0FA
:100E4000809180008F7703C0809180008F7D809398
:100E5000800010C084B58F7702C084B58F7D84BDBB
:100E600009C08091B0008F7703C08091B0008F7D62
:100E70008093B000E32FF0E0EE0FFF1FEE58FF4F1E
:100E8000A591B4912FB7F894662321F48C91909595
:100E9000892302C08C91892B8C932FBF0895982FA2
:100EA0008E3008F09E509770809163018295880F74
:100EB000880F807C892B80937C0080917A008064ED
:100EC00080937A0080917A0086FDFCCF2091780093
:100ED00040917900942F80E030E0282B392BC90114
:100EE00008951F93CF93DF93182FEB0161E00E94C9
:100EF000BC06209709F44AC0CF3FD10509F449C088
:100F0000E12FF0E0E255FF4F84918330C1F084304F
:100F100028F4813051F08230B1F50CC0863019F1DF
:100F2000873049F1843079F514C084B5806884BD78
:100F3000C7BD33C084B5806284BDC8BD2EC080915A
:100F40008000806880938000D0938900C0938800DF
:100F500024C080918000806280938000D0938B00B9
:100F6000C0938A001AC08091B00080688093B0005E
:100F7000C093B30012C08091B00080628093B00033
:100F8000C093B4000AC0C038D1051CF4812F60E0C2
:100F900002C0812F61E00E94FB06DF91CF911F917B
:100FA0000895CF92DF92EF92FF920F931F93CF930A
:100FB000DF937C016B018A01C0E0D0E00FC0D60155
:100FC0006D916D01D701ED91FC910190F081E02DC3
:100FD000C7010995C80FD91F01501040011511050F
:100FE00071F7CE01DF91CF911F910F91FF90EF909C
:100FF000DF90CF900895EF92FF920F931F938C0193
:10100000DC01ED91FC910190F081E02D6DE00995FE
:101010007C01D801ED91FC910190F081E02DC80197
:101020006AE009959C012E0D3F1DC9011F910F918A
:10103000FF90EF900895CF93DF93EC016115710558
:1010400019F420E030E00FC0DB010D900020E9F73B
:101050001197A61BB70BE881F9810280F381E02D7F
:10106000AD0109959C01C901DF91CF9108954F927F
:101070005F927F928F929F92AF92BF92CF92DF92B8
:10108000EF92FF920F931F93DF93CF93CDB7DEB70D
:10109000A1970FB6F894DEBF0FBECDBF2C01742E02
:1010A000CB01223008F42AE019A231E2C32ED12C60
:1010B000CC0EDD1E822E9924AA24BB24672D752F09
:1010C000A50194010E945C0C79018A01C801B70155
:1010D000A50194010E943D0C472D461B0894C108B0
:1010E000D1084A3014F4405D01C0495CF6014083E8
:1010F000E114F1040105110521F07E2C5F2DC801DA
:10110000DDCFC201B6010E941B08A1960FB6F8946C
:10111000DEBF0FBECDBFCF91DF911F910F91FF902A
:10112000EF90DF90CF90BF90AF909F908F907F9087
:101130005F904F900895DC012115310541F4ED9148
:10114000FC910190F081E02D642F099508950E9493
:1011500037080895EF92FF920F931F939A01E62E9E
:10116000FF2400E010E0B801A7010E949B081F9136
:101170000F91FF90EF900895CF92DF92EF92FF9240
:101180000F931F93CF93DF93EC016A017B0121152D
:10119000310541F4E881F9810190F081E02D642F5F
:1011A00009951FC02A303105D1F477FF17C0E881B7
:1011B000F9810190F081E02D6DE209958C014427C1
:1011C0005527BA014C195D096E097F09CE012AE045
:1011D0000E9437089801280F391F04C02AE00E9496
:1011E00037089C01C901DF91CF911F910F91FF90AA
:1011F000EF90DF90CF9008950E941B0808957F9292
:101200008F929F92AF92BF92CF92DF92EF92FF9216
:101210000F931F93CF93DF934C017A018B01722EB2
:10122000CB01BA01A80197010E94390C882321F053
:10123000C40169E471E021C0C0E0D0E05701680159
:10124000E894D7F8C601B5012FEF3FEF4FE75FE70E
:101250000E94390C882351F4C601B5012FEF3FEFEE
:101260004FE75FE70E94830A181614F0C1E0D0E050
:10127000219739F0C4016DE471E00E941B08EC0174
:1012800093C0C801B7012FEF3FEF4FE75FE40E9423
:10129000D20B181654F0C801B7012FEF3FEF4FE7FC
:1012A0005FEC0E94830A882324F4C40161E571E0A5
:1012B000E4CFC801B70120E030E040E050E00E94F8
:1012C000830A87FD03C0C0E0D0E00EC0D401ED91D9
:1012D000FC910190F081E02DC4016DE20995EC01D3
:1012E00017FB109517F9109520E030E040E05FE320
:1012F000DD240BC0CA01B90120E030E040E251E436
:101300000E94870A9B01AC01D394D71498F3C801BB
:10131000B7010E941F0A5B016C010E94F40A7B0165
:101320008C01C401B801A7012AE030E00E949B08AB
:10133000C80FD91F772039F0C40165E571E00E941C
:101340001B08C80FD91FC801B7010E94200B9B01C1
:10135000AC01C601B5010E941E0A24C020E030E0A5
:1013600040E251E40E94D60B7B018C010E94EF0AFF
:101370005B016C01CC24B7FCC094DC2CC401B60129
:10138000A5012AE030E00E94BC08C80FD91FC601A1
:10139000B5010E94220B9B01AC01C801B7010E945C
:1013A0001E0A7A947720D1F6CE01DF91CF911F915A
:1013B0000F91FF90EF90DF90CF90BF90AF909F90F4
:1013C0008F907F9008950E94FF080895EF92FF92FA
:1013D0000F931F937C010E94FF088C01C7010E949C
:1013E000FB07080F191FC8011F910F91FF90EF9085
:1013F0000895EF92FF920F931F937C010E941B08A8
:101400008C01C7010E94FB07080F191FC8011F911B
:101410000F91FF90EF9008950895CF93DF930E946E
:1014200081060E940C0A0E94C000C0E0D0E00E9429
:101430008D002097E1F30E940000F9CF5058BB27A0
:10144000AA270ED075C166D130F06BD120F031F4EF
:101450009F3F11F41EF45BC10EF4E095E7FB51C110
:10146000E92F77D180F3BA176207730784079507CE
:1014700018F071F49EF58FC10EF4E0950B2EBA2F83
:10148000A02D0B01B90190010C01CA01A00111248A
:10149000FF27591B99F0593F50F4503E68F11A1636
:1014A000F040A22F232F342F4427585FF3CF4695C7
:1014B00037952795A795F0405395C9F77EF41F16E9
:1014C000BA0B620B730B840BBAF09150A1F0FF0FB3
:1014D000BB1F661F771F881FC2F70EC0BA0F621F9F
:1014E000731F841F48F4879577956795B795F7958F
:1014F0009E3F08F0B3CF9395880F08F09927EE0F21
:10150000979587950895D9D008F481E008950CD077
:101510000FC107D140F0FED030F021F45F3F19F049
:10152000F0C0511139C1F3C014D198F39923C9F314
:101530005523B1F3951B550BBB27AA2762177307D9
:10154000840738F09F5F5F4F220F331F441FAA1F8D
:10155000A9F333D00E2E3AF0E0E830D0915050404D
:10156000E695001CCAF729D0FE2F27D0660F771FFB
:10157000881FBB1F261737074807AB07B0E809F0DD
:10158000BB0B802DBF01FF2793585F4F2AF09E3F72
:10159000510568F0B6C000C15F3FECF3983EDCF344
:1015A000869577956795B795F7959F5FC9F7880FEB
:1015B000911D9695879597F90895E1E0660F771F3D
:1015C000881FBB1F621773078407BA0720F0621BCE
:1015D000730B840BBA0BEE1F88F7E095089504D0C7
:1015E0006894B111D9C00895BCD088F09F5790F08D
:1015F000B92F9927B751A0F0D1F0660F771F881F38
:10160000991F1AF0BA95C9F712C0B13081F0C3D052
:10161000B1E00895C0C0672F782F8827B85F39F0F0
:10162000B93FCCF3869577956795B395D9F73EF496
:1016300090958095709561957F4F8F4F9F4F08953E
:10164000E89409C097FB3EF490958095709561955C
:101650007F4F8F4F9F4F9923A9F0F92F96E9BB2712
:101660009395F695879577956795B795F111F8CF8E
:10167000FAF4BB0F11F460FF1BC06F5F7F4F8F4FF9
:101680009F4F16C0882311F096E911C0772321F0EF
:101690009EE8872F762F05C0662371F096E8862F87
:1016A00070E060E02AF09A95660F771F881FDAF7DE
:1016B000880F9695879597F90895990F0008550F0B
:1016C000AA0BE0E8FEEF16161706E807F907C0F0C8
:1016D00012161306E407F50798F0621B730B840BD0
:1016E000950B39F40A2661F0232B242B252B21F4AA
:1016F00008950A2609F4A140A6958FEF811D811D4A
:10170000089597F99F6780E870E060E008959FEF83
:1017100080EC089500240A94161617061806090688
:10172000089500240A941216130614060506089557
:10173000092E0394000C11F4882352F0BB0F40F4DF
:10174000BF2B11F460FF04C06F5F7F4F8F4F9F4F1F
:10175000089557FD9058440F551F59F05F3F71F0A1
:101760004795880F97FB991F61F09F3F79F0879508
:101770000895121613061406551FF2CF4695F1DF91
:1017800008C0161617061806991FF1CF8695710521
:10179000610508940895E894BB2766277727CB0155
:1017A00097F908958ADF08F48FEF08950BD0C0CF22
:1017B000B1DF28F0B6DF18F0952309F0A2CFA7CF4C
:1017C0001124EACFC6DFA0F3959FD1F3950F50E027
:1017D000551F629FF001729FBB27F00DB11D639FE3
:1017E000AA27F00DB11DAA1F649F6627B00DA11D89
:1017F000661F829F2227B00DA11D621F739FB00D2F
:10180000A11D621F839FA00D611D221F749F33279E
:10181000A00D611D231F849F600D211D822F762F37
:101820006A2F11249F5750408AF0E1F088234AF034
:10183000EE0FFF1FBB1F661F771F881F9150504080
:10184000A9F79E3F510570F05CCFA6CF5F3FECF348
:10185000983EDCF3869577956795B795F795E7956C
:101860009F5FC1F7FE2B880F911D9695879597F97D
:10187000089523DF880B990B0895629FD001739F11
:10188000F001829FE00DF11D649FE00DF11D929F1C
:10189000F00D839FF00D749FF00D659FF00D99275B
:1018A000729FB00DE11DF91F639FB00DE11DF91F7F
:1018B000BD01CF0111240895A1E21A2EAA1BBB1B62
:1018C000FD010DC0AA1FBB1FEE1FFF1FA217B3070C
:1018D000E407F50720F0A21BB30BE40BF50B661F22
:1018E000771F881F991F1A9469F7609570958095E6
:1018F00090959B01AC01BD01CF010895EE0FFF1F34
:0C1900000590F491E02D0994F894FFCFBD
:10190C005761726E696E6721212120466C6F6F647E
:10191C002064657465637465642121210053656ED0
:10192C00736F722000202D2048756D69646974797D
:10193C003A2000207C2054656D706572617475725C
:10194C00653A200069646C65006E616E00696E66B4
:10195C00006F7666002E000000000000001B0430B3
:10196C00044804010000A9000000CC01C5000000DF
:10197C00370100009102C50000002201000056034F
:10198C00C50044010000000000000000030000003E
:06199C00000203D1070068
:00000001FF
