:100000000C9462000C948A000C948A000C948A0070
:100010000C948A000C948A000C94310C0C948A0085
:100020000C948A000C948A000C948A000C948A0028
:100030000C948A000C948A000C948A000C948A0018
:100040000C943E190C948A000C9427170C94791781
:100050000C948A000C948A000C948A000C948A00F8
:100060000C948A000C948A000000000024002700F1
:100070002A0000000000250028002B0000000000DE
:1000800023002600290004040404040404040202DA
:100090000202020203030303030301020408102007
:1000A0004080010204081020010204081020000012
:1000B0000007000201000003040600000000000029
:1000C0000000E81811241FBECFEFD8E0DEBFCDBF7F
:1000D00011E0A0E0B1E0E4E2F4E302C005900D928B
:1000E000A635B107D9F712E0A6E5B1E001C01D922F
:1000F000AB38B107E1F710E0C4ECD0E004C02297C0
:10010000FE010E940C1AC23CD107C9F70E941517C4
:100110000C94101A0C940000FB01DC0102C0019049
:100120000D9241505040D8F70895DC0101C06D9305
:1001300041505040E0F7089508958CE592E040E882
:1001400055E260E070E00E94B4178CE592E060E058
:1001500071E00E940217F9CF8DE061E00E9428153E
:100160008CE592E061E171E00E940217F9CFAF9255
:10017000BF92CF92DF92EF92FF920F938CEA90E0C2
:1001800061E271E040E850E020E030E002E0EE247F
:10019000FF24CC24DD24AA24BB240E94C6098DE9B7
:1001A00090E067E271E040E850E020E030E001E0FC
:1001B0000E94C6090F91FF90EF90DF90CF90BF9003
:1001C000AF9008950FB6F8940F92009729F4E0913C
:1001D0005601F091570101C0FC0186890F900FBEB6
:1001E0000895009729F4E0915601F091570101C05C
:1001F000FC0186890895809158018F5F8093580192
:1002000008950FB6F8940F9220915A0130915B0136
:100210000F900FBEC901089520915A0130915B01E2
:10022000C9010895809162010895FC0180916001E7
:10023000808380915A0190915B019283818308951C
:10024000FC01DB010FB6F8940F9240915A015091D6
:100250005B016D917C9111978FEF6F3F780709F1EA
:10026000909160018081981729F0818192814817CF
:100270005907C8F421813281CA01821B930B86176A
:10028000970788F4241B350B260F371F2D933C93BB
:1002900080916001808380915A0190915B019283EB
:1002A000818380E001C081E00F900FBE089581E05E
:1002B00080935F010895009729F4E0915601F09131
:1002C000570101C0FC016789708D20E030E040E0FB
:1002D00050E004C02F5F3F4F4F4F5F4FFB01E20FD5
:1002E000F31F8081853AB1F3822F08952091560142
:1002F00030915701C901089580915E01882311F45E
:1003000081E0089580915801882311F080E00895DC
:1003100082E00895E0915601F0915701848595851A
:10032000A0915601B0915701E0915601F09157010B
:10033000468924E030E0241B31091D963C932E931E
:100340001C9708958091560190915701892B39F09F
:10035000E0915601F091570182A18F5F82A3209115
:10036000560130915701C9010895EF92FF920F9302
:100370001F93CF93DF937B01EC012FA138A582E07F
:1003800090E098A78FA38BA19CA1ADA1BEA10196DF
:10039000A11DB11D8BA39CA3ADA3BEA3213031052C
:1003A00071F5809158018823A9F48E010E5F1F4FCB
:1003B000C8010E9413109E8980915901891710F479
:1003C0009093590189E0989FC00111248B599E4F49
:1003D000B80105C0BE01645F7F4F8FE991E00E94C4
:1003E000C20FE0915601F09157019E8986898917C5
:1003F00030F4E114F10419F081E0F7018083DF911A
:10040000CF911F910F91FF90EF900895EF92FF927F
:100410000F931F93CF93DF93F801EC0101151105A2
:1004200041F08BA19CA1ADA1BEA180839183A28349
:10043000B383EFA1F8A582E090E098A78FA32230C4
:100440003105B9F02330310520F42130310531F583
:1004500007C023303105F1F024303105F9F415C01F
:100460008BA19CA1ADA1BEA1842B952BA62BB72B54
:1004700007C08BA19CA1ADA1BEA10196A11DB11D7C
:100480008BA39CA3ADA3BEA309C0E230F10511F478
:1004900080E036C04BA35CA36DA37EA3319779F5B2
:1004A000809158018823A9F48E010E5F1F4FC80167
:1004B0000E9413109E8980915901891710F490931E
:1004C000590189E0989FC00111248B599E4FB801B2
:1004D00005C0BE01645F7F4F8FE991E00E94C20FAB
:1004E000E0915601F09157019E898689891738F469
:1004F000E114F10421F081E0F701808301C081E083
:10050000DF91CF911F910F91FF90EF9008950F937E
:100510001F93CF93DF93EC01009741F12AA1215063
:100520002AA39E8989A1981709F12223F9F48E0143
:100530000E5F1F4FC8010E94131029A12E8B84E06B
:1005400090E0821B91099D878C87809159018217C9
:1005500010F42093590189E0289FC00111248B5980
:100560009E4FB8010E94C20F81E001C080E0DF9180
:10057000CF911F910F9108950F931F93CF93DF9306
:10058000EC01009709F445C0E0915601F091570144
:100590009E8986899817E8F58C859D8597FD0BC007
:1005A000E0915601F0915701268984E090E0821B8A
:1005B00091099D878C878E8929E0829FC001112433
:1005C0008B599E4F2A853B8528173907E1F48E0108
:1005D0000E5F1F4FC8010E941310E0915601F09169
:1005E000570196899E8B80915901891710F4909339
:1005F000590189E0989FC00111248B599E4FB80181
:100600000E94C20F06C0E0915601F0915701868901
:100610008E8BDF91CF911F910F9108950F931F93B0
:10062000CF93DF93FC01706871836083C681D781AB
:100630000E9413108E010E5F1F4FC8010E941310FD
:100640009E8980915901891710F49093590189E08E
:10065000989FC00111248B599E4FB8010E94C20F70
:10066000E0915601F09157019E898689891710F013
:1006700080E003C081E080935F01DF91CF911F9103
:100680000F9108950F931F93CF93DF93DC0115967D
:10069000ED91FC911697C681D7818E01045F1F4FA3
:1006A000C8010E941310809158018823A1F48E0183
:1006B0000E5F1F4FC8010E9413109E89809159013F
:1006C000891710F49093590189E0989FC001112473
:1006D0008B599E4F02C08FE991E0B8010E94C20F72
:1006E000E0915601F09157019E898689891710F093
:1006F00080E003C081E080935F01DF91CF911F9183
:100700000F910895CF92DF92EF92FF920F931F9374
:10071000CF93DF9380915801882309F0A7C080917F
:100720005A0190915B01019690935B0180935A016D
:10073000E0905A01F0905B01E114F10479F5209109
:100740009B0130919C0180919D0190919E0190931D
:100750009C0180939B0130939E0120939D01809189
:1007600060018F5F80936001E0919B01F0919C019B
:100770008081882319F48FEF9FEF0CC0E0919B01DB
:10078000F0919C010580F681E02D0680F781E02D37
:100790008281938190935D0180935C0180915C01E3
:1007A00090915D01E816F90608F449C0DD2439E0AE
:1007B000C32EE0919B01F0919C018081882319F464
:1007C0008FEF9FEF0EC0E0919B01F0919C0105809F
:1007D000F681E02DC681D7818A819B81E816F906D2
:1007E00028F490935D0180935C012AC08E010E5F16
:1007F0001F4FC8010E9413108C899D89892B21F0FD
:10080000CE010C960E9413109E8980915901891780
:1008100010F4909359019C9DC00111248B599E4F57
:10082000B8010E94C20FE0915601F09157019E89D4
:100830008689981708F4BDCFDD24D394BACFDD2480
:10084000E0915601F0915701868990E0FC0123E088
:10085000EE0FFF1F2A95E1F7E80FF91FEB59FE4F46
:100860008081823048F0DD24D39406C080916101FC
:100870008F5F80936101DD2480915F01882311F0F7
:10088000DD24D3948D2DDF91CF911F910F91FF9097
:10089000EF90DF90CF900895DF92EF92FF920F9349
:1008A0001F93CF93DF93EC018A859B85815B9140F9
:1008B00091F58C899D8921E08F39920761F1892B0F
:1008C00051F533C0DE88E0915601F0915701068959
:1008D00042E0E42EF12CEC0EFD1EC7010E94131025
:1008E0006E8980915901861710F46093590110E0C8
:1008F000D01608F011E089E0689FC00111248B59DF
:100900009E4FB7010E94C20F07C02C968FE991E05D
:10091000BE010E94C20F10E0812FDF91CF911F9185
:100920000F91FF90EF90DF900895809158018823F8
:1009300049F2EBCF0F931F93CF93DF93F801EC01B4
:100940000FB6F8940F920115110541F08BA19CA1EF
:10095000ADA1BEA180839183A283B383EFA1F8A54B
:1009600082E090E098A78FA322303105B9F02330C0
:10097000310520F42130310531F507C02330310530
:10098000F1F024303105F9F415C08BA19CA1ADA183
:10099000BEA1842B952BA62BB72B07C08BA19CA1A6
:1009A000ADA1BEA10196A11DB11D8BA39CA3ADA3BA
:1009B000BEA309C0E230F10511F480E027C04BA3CB
:1009C0005CA36DA37EA3319701F58E010E5F1F4FCF
:1009D000C8010E9413109E8980915901891710F453
:1009E0009093590189E0989FC00111248B599E4F23
:1009F000B8010E94C20FE0915601F09157019E8903
:100A00008689891710F40E94900C81E00F900FBE28
:100A1000DF91CF911F910F910895EF92FF920F9365
:100A20001F93CF93DF930FB6F8940F9280915801E4
:100A300081508093580180915801882309F055C056
:100A400080916201882359F550C0E091A401F09192
:100A5000A501C681D781CE010C960E9413108E018C
:100A60000E5F1F4FC8010E9413109E89809159018B
:100A7000891710F4909359019E9DC00111248B5940
:100A80009E4FB8010E94C20FE0915601F0915701AC
:100A90009E898689981738F0F0925F0104C059E06A
:100AA000E52EFF24F39480919F01882371F68091B5
:100AB0006101882369F411C00E948203882311F028
:100AC00010935F018091610181508093610101C0A9
:100AD00011E080916101882379F780915F01813075
:100AE00021F40E94900C81E001C080E00F900FBEC5
:100AF000DF91CF911F910F91FF90EF9008950F9389
:100B00001F93CF93DF93EC01009709F43DC08091D0
:100B1000560190915701C817D90709F435C00FB68F
:100B2000F8940F928A859B85815B9140F1F48C89C2
:100B30009D8921E08F399207C1F0892BB1F418C04B
:100B40009093590189E0989FC00111248B599E4FC1
:100B5000B8010E94C20FE0915601F09157019E89A1
:100B60008689981710F00E94900C0F900FBE0CC051
:100B70008E010E5F1F4FC8010E9413109E89809145
:100B800059018917E8F2DECFDF91CF911F910F91C4
:100B90000895EF92FF920F931F93DF93CF930F92DD
:100BA000CDB7DEB7643008F063E00FB6F8940F926B
:100BB000009729F4E0905601F090570101C07C01A4
:100BC000D70191962C91261709F45EC02617A0F440
:100BD0008091560190915701E816F90611F4198297
:100BE00015C0E0915601F091570119828689681766
:100BF00068F0B1E0B9830AC0809156019091570125
:100C00001982E816F90611F4E1E0E983D701569656
:100C10003C915697231711F456966C93F70161A3F4
:100C20008485958597FD06C084E090E0861B910938
:100C30009587848789E0389FC00111248B599E4F86
:100C4000D7011A962D913C911B9728173907B9F4B3
:100C500087010E5F1F4FC8010E941310F70196898C
:100C600080915901891710F49093590189E0989F58
:100C7000C00111248B599E4FB8010E94C20FF98107
:100C8000F13011F40E94900C0F900FBE0F90CF9195
:100C9000DF911F910F91FF90EF9008950F931F9395
:100CA000CF93DF930FB6F8940F92009729F4C09179
:100CB0005601D091570101C0EC018E010E5F1F4F0C
:100CC000C8010E9413108C899D89892B21F0CE01C7
:100CD0000C960E94131088EA91E0B8010E94C20F9E
:100CE000809163018F5F80936301809164018F5FC6
:100CF000809364010F900FBE80915E01882349F1BB
:100D00008091560190915701C817D90719F40E9494
:100D1000900C1FC00FB6F8940F92E0919B01F091D8
:100D20009C018081882319F48FEF9FEF0CC0E09124
:100D30009B01F0919C010580F681E02D0680F781F2
:100D4000E02D8281938190935D0180935C010F90EF
:100D50000FBEDF91CF911F910F910895CF93DF9335
:100D6000EC01E0915601F0915701938382838091C9
:100D70005A0190915B01C817D90768F480919D01D1
:100D800090919E0160915601709157016E5F7F4F67
:100D90000E94E10F17C080919B0190919C0160918E
:100DA0005601709157016E5F7F4F0E94E10F809155
:100DB0005C0190915D01C817D90720F4D0935D01C3
:100DC000C0935C01DF91CF9108956F927F928F92D3
:100DD0009F92AF92BF92CF92DF92EF92FF920F93CA
:100DE0001F93CF93DF935B016C0139014A01E80146
:100DF0000FB6F8940F92E0915601F091570187A138
:100E000090A5029709F440C0E0915601F091570176
:100E100083A194A1A5A1B6A1A094B094C094D094AC
:100E20008A219B21AC21BD2183A394A3A5A3B6A3B2
:100E3000E0915601F091570181E090E090A787A3DF
:100E4000E114F10409F18091560190915701029645
:100E50000E9413108FEFE8168FEFF80659F4609197
:100E60005601709157016E5F7F4F81EB91E00E94B8
:100E7000C20F08C080915A0190915B018E0D9F1D99
:100E80000E94AE060E94900C0F900FBE0FB6F89411
:100E90000F92209761F0E0915601F091570183A1E4
:100EA00094A1A5A1B6A188839983AA83BB83E0916D
:100EB0005601F091570187A190A5019711F480E0A8
:100EC00015C0E0915601F091570183A194A1A5A10D
:100ED000B6A1609470948094909486219721A82163
:100EE000B92183A394A3A5A3B6A381E0E091560101
:100EF000F091570110A617A20F900FBEDF91CF916E
:100F00001F910F91FF90EF90DF90CF90BF90AF9027
:100F10009F908F907F906F9008951F93CF93DF9352
:100F2000182FEB010FB6F8940F92E0915601F09153
:100F3000570183A194A1A5A1B6A10097A105B10570
:100F400059F5E0915601F091570181E090E090A7AA
:100F500087A36115710501F18091560190915701A8
:100F600002960E9413108FEFCF3FD80759F460917B
:100F70005601709157016E5F7F4F81EB91E00E94A7
:100F8000C20F08C080915A0190915B018C0F9D1F88
:100F90000E94AE060E94900C0F900FBE0FB6F89400
:100FA0000F92E0915601F091570123A134A145A180
:100FB00056A12115310541055105D1F0112349F004
:100FC000E0915601F091570113A214A215A216A2A6
:100FD0000FC0E0915601F091570183A194A1A5A102
:100FE000B6A10197A109B10983A394A3A5A3B6A3B0
:100FF000E0915601F091570110A617A20F900FBE75
:10100000B901CA01DF91CF911F9108951F93CF932A
:10101000DF93EB01142F6091560170915701645FCB
:101020007F4F0E94C20F8091560190915701029606
:101030000E941310113059F46091560170915701BC
:101040006E5F7F4F81EB91E00E94C20F08C08091DC
:101050005A0190915B018C0F9D1F0E94AE06DF919B
:10106000CF911F910895CF93DF93EA01E09156014C
:10107000F09157017068758764876091560170918F
:101080005701645F7F4F0E94C20F8091560190917B
:10109000570102960E9413108FEFCF3FD80759F4E3
:1010A00060915601709157016E5F7F4F81EB91E027
:1010B0000E94C20F08C080915A0190915B018C0F71
:1010C0009D1F0E94AE06DF91CF9108950F931F934D
:1010D000CF93DF93EC010097C9F0809158018F5FA7
:1010E0008093580100915A0110915B018091560143
:1010F0009091570102960E941310CE01800F911F0C
:101100000E94AE060E940D05882311F40E94900CE7
:10111000DF91CF911F910F910895CF93DF93FC0141
:10112000EB01809158018F5F8093580120915A0103
:1011300030915B0180819181C80FD91F2817390731
:1011400028F4C817D90728F080E008C0C817D907C5
:1011500020F080E02C173D0708F481E0D183C083A4
:10116000882351F0809156019091570102960E9478
:101170001310CE010E94AE060E940D05882311F4C3
:101180000E94900CDF91CF910895CF93DF93EB01F4
:101190006091560170915701645F7F4F0E94E10F8B
:1011A000809156019091570102960E9413108FEF83
:1011B000CF3FD80759F460915601709157016E5F87
:1011C0007F4F81EB91E00E94C20F08C080915A01CD
:1011D00090915B018C0F9D1F0E94AE06DF91CF9115
:1011E000089580915801882321F081E080935F0168
:1011F000089510925F01E0915601F0915701A0917E
:101200005601B09157012081318157968D919C9163
:1012100058978217930790F080915601909157014B
:101220006091560170915701675E7F4F0E94FC0CE0
:1012300005C08091590181508093590180915901D5
:1012400090E0FC0163E0EE0FFF1F6A95E1F7E80F05
:10125000F91FEB59FE4F8081882359F39091590172
:1012600089E0989FD0011124AB59BE4F1196ED91A2
:10127000FC9112970280F381E02D1296FC93EE937D
:101280001197CD010396E817F90731F48281938114
:1012900012969C938E9311971196ED91FC91129753
:1012A00086819781909357018093560108950F93FB
:1012B0001F93CF93DF930FB6F8940F92009729F402
:1012C000C0915601D091570101C0EC018E010E5F13
:1012D0001F4FC8010E9413108C899D89892B21F012
:1012E000CE010C960E94131081EB91E0B8010E9490
:1012F000C20F0F900FBE8091560190915701C817F1
:10130000D907A9F480915E01882319F00E94900CFE
:1013100031C0909162018091B101891729F4109236
:1013200057011092560126C00E94F10823C08091F7
:101330005E018823F9F00FB6F8940F92E0919B01BB
:10134000F0919C018081882319F48FEF9FEF0CC0EE
:10135000E0919B01F0919C010580F681E02D0680D3
:10136000F781E02D8281938190935D0180935C01F0
:101370000F900FBEDF91CF911F910F910895F894B8
:1013800010925E010E94CA0B789408952F923F92AA
:101390004F925F926F927F928F929F92AF92BF9285
:1013A000CF92DF92EF92FF920F931F93CF93DF9331
:1013B0001C01162F672E5A012901702E4701C114F6
:1013C000D10431F4CA010E944C106C010097D9F08D
:1013D00089E290E00E944C10EC01009789F0D88ED1
:1013E000CF8AC60165EA70E0A5010E949500EF88EA
:1013F000F88C812F962D9C01F901DE0190E005C04B
:10140000C6010E943D108FEFBFC0808159968C931A
:1014100059978081882329F09F5F319611969830E3
:10142000A1F718A2072D83E0871508F403E00E8BBF
:1014300009A31AA2E2E0CE2ED12CCC0EDD1EC601ED
:101440000E94BE0FCE010C960E94BE0FD987C8879E
:1014500084E090E0801B91099D878C87DB8BCA8B91
:101460001BA21CA21DA21EA218A61FA20894A108BE
:10147000B108C7018A0D9B1DB101A2010E94490B51
:10148000998388838114910419F0F401D183C08376
:101490000FB6F8940F92809162018F5F8093620182
:1014A0008091560190915701892BD1F5D093570126
:1014B000C093560180916201813009F040C085E6F9
:1014C00091E00E94AE0F8EE691E00E94AE0F87E79A
:1014D00091E00E94AE0F80E891E00E94AE0F79E8A3
:1014E000E72E71E0F72EC7010E94AE0F02E911E06E
:1014F000C8010E94AE0F8FE991E00E94AE0F88EA0A
:1015000091E00E94AE0F81EB91E00E94AE0FF0924D
:101510009C01E0929B0110939E0100939D010FC0DE
:1015200080915E01882359F4E0915601F0915701B2
:101530008689781620F0D0935701C0935601809188
:1015400064018F5F809364019E898091590189179E
:1015500010F49093590189E0989FC00111248B5990
:101560009E4FB6010E94C20F0F900FBE80915E0188
:10157000882349F0E0915601F0915701868987153B
:1015800010F40E94900C81E0DF91CF911F910F9198
:10159000FF90EF90DF90CF90BF90AF909F908F9093
:1015A0007F906F905F904F903F902F900895AF92F3
:1015B000BF92CF92DF92EF92FF920F938DE09BE06C
:1015C00062E371E040E850E020E030E000E0EE242B
:1015D000FF24CC24DD24AA24BB240E94C609813028
:1015E000A1F40E94F10D282F813079F4F8948FEF47
:1015F0009FEF90935D0180935C0120935E011092B8
:101600005B0110925A010E94910B0F91FF90EF9095
:10161000DF90CF90BF90AF9008950F931F932CC091
:10162000809158018F5F809358011091A8010E940A
:101630000D05112309F10FB6F8940F92E091AD0159
:10164000F091AE0106811781C80102960E94131025
:101650008091620181508093620180916301815089
:10166000809363010F900FBEF8018789908D0E94CF
:101670003D10C8010E943D1080916301882381F6CE
:1016800080916501823010F00E94900C0E940F0D35
:10169000F3CFFC0191E1908322E2229383E38293D2
:1016A00062937293129280E88293129282E0829304
:1016B00083E0829384E0829385E0829386E0829344
:1016C00087E0829388E0829389E0829380E182932D
:1016D000929382E1829383E1829384E1829385E114
:1016E000829386E1829387E1829388E1829389E104
:1016F000829380E2829381E28293229383E28293B7
:101700004293529386E2829387E2829388E28293A5
:1017100089E2829380E3829381E382933197CF01C0
:101720000895A89520EC88E190E00FB6F894A8956C
:10173000809360000FBE20936000A0915601B0918D
:101740005701CD91CDBFDD91DEBFFF91EF91DF91CC
:10175000CF91BF91AF919F918F917F916F915F9149
:101760004F913F912F911F910F91FF90EF90DF903C
:10177000CF90BF90AF909F908F907F906F905F9031
:101780004F903F902F901F900F900FBE0F90089595
:1017900081E0089588E10FB6F8948093600010927C
:1017A00060000FBE08950F920FB6F8940F921F922B
:1017B00011242F923F924F925F926F927F928F925D
:1017C0009F92AF92BF92CF92DF92EF92FF920F93D0
:1017D0001F932F933F934F935F936F937F938F93B9
:1017E0009F93AF93BF93CF93DF93EF93FF93A0911A
:1017F0005601B09157010DB60D920EB60D9213BE63
:101800000E948203882311F00E94F108A0915601E2
:10181000B0915701CD91CDBFDD91DEBFFF91EF912A
:10182000DF91CF91BF91AF919F918F917F916F91F8
:101830005F914F913F912F911F910F91FF90EF90EA
:10184000DF90CF90BF90AF909F908F907F906F90E0
:101850005F904F903F902F901F900F900FBE0F9072
:1018600008950F920FB6F8940F921F9211242F92A1
:101870003F924F925F926F927F928F929F92AF9220
:10188000BF92CF92DF92EF92FF920F931F932F930D
:101890003F934F935F936F937F938F939F93AF93F8
:1018A000BF93CF93DF93EF93FF93A0915601B09135
:1018B00057010DB60D920EB60D9213BE0E94820313
:1018C000882311F00E94F108A0915601B0915701B0
:1018D000CD91CDBFDD91DEBFFF91EF91DF91CF9133
:1018E000BF91AF919F918F917F916F915F914F9138
:1018F0003F912F911F910F91FF90EF90DF90CF902C
:10190000BF90AF909F908F907F906F905F904F901F
:101910003F902F901F900F900FBE0F900895189535
:101920000F920FB6F8940F921F9211242F923F92AC
:101930004F925F926F927F928F929F92AF92BF92DF
:10194000CF92DF92EF92FF920F931F932F933F93CB
:101950004F935F936F937F938F939F93AF93BF93B7
:10196000CF93DF93EF93FF93A0915601B09157016E
:101970000DB60D920EB60D920E94F108A09156017F
:10198000B0915701CD91CDBFDD91DEBFFF91EF91B9
:10199000DF91CF91BF91AF919F918F917F916F9187
:1019A0005F914F913F912F911F910F91FF90EF9079
:1019B000DF90CF90BF90AF909F908F907F906F906F
:1019C0005F904F903F902F901F900F900FBE0F9001
:1019D0000895259A2D9A24EF31E040E951E005C0A1
:1019E000CA010197F1F72150304021153105C1F7A7
:1019F0001D9A24EF31E0F4CF259A2D9A20E23EE49F
:101A000040E951E005C0CA010197F1F7215030408B
:101A100021153105C1F71D9A20E23EE4F4CF0E9462
:101A20009C0082E697E1892B11F00E9462170895CD
:101A30000E94B7000E94D70A0E94E90C0895FC0199
:101A4000808191810895FC010FB6F8940F9220E0F7
:101A500082859385892B09F021E00F900FBE822F9C
:101A60000895FC010FB6F8940F92878590890F9026
:101A70000FBE0895FC010FB6F8940F92708B678724
:101A80000F900FBE08950F931F93DF93CF9300D055
:101A900000D00F92CDB7DEB7FC018091BA019091D2
:101AA000BB01009711F480E023C069835B834A8304
:101AB000FD83EC836630ACF40E947C012091BA0176
:101AC0003091BB01BE016F5F7F4F823019F4C901B5
:101AD000A80103C0C90140E050E020E00E94E712E5
:101AE00007C0BE016F5F7F4FA90120E00E94B912BD
:101AF0000F900F900F900F900F90CF91DF911F914B
:101B00000F910895EF92FF920F931F930FB6F894E1
:101B10000F928091BA019091BB01892BE9F48EEB71
:101B2000E82E81E0F82EC7010E94AE0F07EC11E00D
:101B3000C8010E94AE0FF092D101E092D001109343
:101B4000D3010093D2018AE065E040E00E94EE14E8
:101B50009093BB018093BA010F900FBE1F910F911C
:101B6000FF90EF9008957F928F929F92AF92BF92D5
:101B7000CF92DF92EF92FF920F931F93CF93DF9359
:101B80006C017B01742E590148016115710519F42E
:101B900000E010E017C083E190E00E944C10EC01DF
:101BA0008C01009779F00E94820DD982C882FD864F
:101BB000EC867E86B88AAF869A8A898ACE0102969A
:101BC0000E94BE0FC801DF91CF911F910F91FF902E
:101BD000EF90DF90CF90BF90AF909F908F907F90CD
:101BE0000895AF92BF92CF92DF92EF92FF920F9340
:101BF0000E94820D8091BA019091BB01892B11F452
:101C000080E011C083EB9EE067E371E045E550E0C2
:101C100020E030E007E0EE24FF24CC24DD24AA24D9
:101C2000BB240E94C6090F91FF90EF90DF90CF90E8
:101C3000BF90AF900895AF92BF92CF92DF92EF9294
:101C4000FF920F931F93CF93DF935C010E940101DA
:101C50007C018091BC019091BD01E816F90698F1D4
:101C600049C00580F681E02D00811181C681D781B0
:101C700092E0C92ED12CCC0EDD1EC6010E9413109D
:101C8000E989FA89CE0109958E858130E1F48C8548
:101C90009D85800F911F0817190760F49B838A8325
:101CA000D987C8878091D0019091D101B6010E9457
:101CB000E10F09C0CE0160E0A80120E030E000E0C3
:101CC00010E00E94430DE091D001F091D10180819C
:101CD000882339F68091D2019091D3019093D1015C
:101CE0008093D001F093D301E093D20181E0F5011C
:101CF000808302C0F5011082F092BD01E092BC0128
:101D0000C701DF91CF911F910F91FF90EF90DF906E
:101D1000CF90BF90AF900895FC0173836283918749
:101D200080874617570768F0421B530B84859585BB
:101D300048175907B0F432968091D2019091D3019F
:101D40000BC04217530718F46217730750F432960A
:101D50008091D0019091D101BF010E94E10F80E0FC
:101D6000089581E008958F929F92AF92BF92CF9293
:101D7000DF92EF92FF920F931F93DF93CF9300D0E8
:101D800000D000D0CDB7DEB75E010894A11CB11C15
:101D900022E0822E912C8C0E9D1EE091D001F091BC
:101DA000D101FF248081882329F4FF24F39400E0EB
:101DB00010E005C00580F681E02D008111810E94B0
:101DC000FB00C5010E941B0E6C018981882309F06C
:101DD00054C0FF20B1F5C016D106E8F10E940D05F0
:101DE000E091D001F091D1010580F681E02DE680EF
:101DF000F780C70102960E941310D7011E968C919E
:101E00001E978130B1F41C966D917C911D97600FE7
:101E1000711FC701A60198010E948C0E813049F400
:101E2000C70160E0A80120E030E000E010E00E947F
:101E3000430DD7015196ED91FC915297C701099539
:101E40007FC0FF24E091D201F091D30180818823EB
:101E500011F4FF24F3940C191D098091BA0190919B
:101E6000BB01B8014F2D0E94EE100E940D05882382
:101E700009F066C00E94900C63C00E940D0560C00E
:101E80008A8187FD5DC00D811E81F8018285938561
:101E9000892B21F0C80102960E941310C5010E94EF
:101EA0001B0EFC018A81853009F447C0863044F45A
:101EB00087FD46C083304CF0843009F041C02EC00D
:101EC00088301CF08930E1F529C02B813C81D80194
:101ED0001C966D917C911D97620F731FC801AF0115
:101EE0000E948C0E813061F5D8015196ED91FC91E4
:101EF0005297C8010995F8018685813009F5448516
:101F000055858B819C81480F591FC80160E020E0F6
:101F100030E000E010E00E94430D12C06B817C8134
:101F2000D8011D967C936E931C976E0F7F1FC8017E
:101F3000AF019F010E948C0E03C0C8010E943D109A
:101F40008091BA019091BB01B40140E050E020E0E3
:101F50000E947D11882309F093CF1FCFFC019C01C3
:101F60002D5F3F4F328321838FEF9FEF94838383D5
:101F7000368325833087278310820895FC011186DC
:101F800010860895AC01FC01A181B281FB01B383ED
:101F9000A28314968D919C911597958384831496B2
:101FA000ED91FC9115977383628315967C936E93E4
:101FB0001497FB0151874087FA0180818F5F8083EE
:101FC0000895CF93DF939C01EB01488159818FEFF6
:101FD0004F3F580721F4F901A781B0850DC0D90101
:101FE00013961296ED91FC91139780819181481779
:101FF000590710F0DF01F5CF1296ED91FC91139780
:10200000FB83EA83D583C483BD83AC831396DC93BF
:10201000CE93129739872887F90180818F5F80835B
:10202000DF91CF910895CF93DF93DC011896CD9186
:10203000DC91199712964D915C91139714968D919E
:102040009C911597FA019583848314962D913C9168
:102050001597F9015383428389819A818A179B07D7
:1020600011F43A83298319961C921E92189788813D
:1020700081508883DF91CF910895CF93DF93EC0156
:10208000009739F00E94FB00CE010E9404160E94C6
:102090000D05DF91CF9108950F931F93CF93DF9399
:1020A0008C010E94FB00C8010E946715EC010E9490
:1020B0000D05209711F40E94E90CCE01DF91CF911C
:1020C0001F910F9108950FB6F8940F92FC01828D25
:1020D0000F900FBE0895FC010FB6F8940F92928DE9
:1020E000838D891B0F900FBE0895FC01828D08958A
:1020F000FC01828D90E0882309F491E0892F0895F6
:10210000FC01928D20E0838D981709F421E0822F45
:102110000895CF93DF93EB01FC01928D838D981787
:1021200010F080E018C0828D8F5F828F868D8F3F88
:1021300071F48189882371F0CF0141960E94420396
:10214000882341F0209731F081E0888304C0868D98
:102150008F5F868F81E0DF91CF9108950F931F935A
:10216000CF93DF93EC010FB6F8940F928C010F5EC2
:102170001F4F0DC08989882369F0C8010E9442035E
:10218000882311F00E9457018E8D81508E8F8E8D85
:10219000181684F38FEF8E8F0F900FBE0FB6F89442
:1021A0000F928E01085F1F4F0DC08885882369F04C
:1021B000C8010E944203882311F00E9457018D8DAF
:1021C00081508D8F8D8D181684F38FEF8D8F0F902A
:1021D0000FBEDF91CF911F910F910895CF93DF93A1
:1021E000EC010FB6F8940F928D8D8F3F09F41D8E80
:1021F0008E8D8F3F09F41E8E0F900FBE8A8D88231F
:1022000021F4CE0141960E940608CE010E94AE1034
:10221000DF91CF9108950E943D1008950F931F9371
:10222000CF93DF93562FE72FEC018A8D8823F1F0AF
:102230000E811F818C8D8823B1F09801280F311DEC
:102240003F832E838A819B812817390720F088815C
:1022500099819F838E834C8D6E817F81852F9E2FE8
:1022600050E00E948C001F830E8381E0DF91CF91AC
:102270001F910F9108950F931F93CF93DF93FB014D
:102280008A01EC018A8D882399F12C8D2223B1F0EB
:102290008E819F81820F911D9F838E832A813B8136
:1022A0008217930720F0888199819F838E834C8DBC
:1022B0006E817F81CF0150E00E948C008A8D815019
:1022C0008A8F8D8D8F3F81F48885882381F0CE01A0
:1022D00008960E944203882351F00115110539F038
:1022E00081E0F801808304C08D8D8F5F8D8F81E048
:1022F000DF91CF911F910F9108957F928F929F92BE
:10230000AF92BF92CF92DF92EF92FF920F931F9303
:10231000DF93CF9300D000D00F92CDB7DEB7962ECB
:10232000872E5D834C83722E8C0191E1C92ED12CB6
:10233000C00ED11E20E07E010894E11CF11C84E057
:10234000A82EB12CAC0EBD1E01C021E00FB6F89432
:102350000F92F801828D882309F447C0E680F78048
:10236000848D8823B9F09701280F311D3783268388
:10237000828193812817390720F08081918197838A
:102380008683F801448D66817781892D982D50E0F0
:102390000E948C007720C1F4F801828D8150828FD9
:1023A00080819181892B29F40E94A201F8019383F5
:1023B0008283F80180858823A1F0C80108960E94D5
:1023C0004203813071F40BC0F801F782E682818903
:1023D000882339F0C6010E944203882311F00E942D
:1023E000900C0F900FBE81E057C08C819D81892B8E
:1023F00019F40F900FBE4FC0222319F4C7010E9499
:1024000015010F900FBE0E94FB000FB6F8940F92BB
:10241000F801858D8F3F09F4158EF801868D8F3F69
:1024200009F4168E0F900FBEC701B5010E9420015E
:10243000882361F50FB6F8940F92F801828D0F9002
:102440000FBE8823E9F480819181892B49F40FB66E
:10245000F8940F92828193810E94BC020F900FBE6C
:102460006C817D81C6010E94C508C8010E94AE1022
:102470000E940D05882309F068CF0E94900C65CF5B
:10248000C8010E94AE100E940D055FCFC8010E94D6
:10249000AE100E940D0580E00F900F900F900F90EE
:1024A0000F90CF91DF911F910F91FF90EF90DF90F0
:1024B000CF90BF90AF909F908F907F9008951F9383
:1024C000CF93DF93EC01142F4C8D442369F4888162
:1024D0009981892B09F044C08A819B810E948702DF
:1024E000982F1B821A823DC01123B1F48C819D81EB
:1024F00050E00E948C008C8D2C813D81280F311D75
:102500003D832C838A819B812817390748F1888174
:1025100099819D838C8324C08E819F8150E00E948D
:102520008C008C8D90E044275527481B590B8E81D9
:102530009F81840F951F9F838E8328813981821705
:10254000930730F48A819B81840F951F9F838E832C
:10255000123031F48A8D882319F08A8D81508A8F48
:1025600090E08A8D8F5F8A8F892FDF91CF911F91A5
:1025700008950F931F93CF93DF938A01EC019A8DF7
:102580008B8D981720F0223011F080E01BC0CE0117
:10259000422F0E945F128E8D8F3F81F4898988239C
:1025A00081F0CE0141960E944203882351F001152B
:1025B000110539F081E0F801808304C08E8D8F5FB2
:1025C0008E8F81E0DF91CF911F910F9108956F92CF
:1025D0007F929F92AF92BF92CF92DF92EF92FF9243
:1025E0000F931F93DF93CF9300D000D00F92CDB7FE
:1025F000DEB76B015D834C83922E8C0148E0E42EA4
:10260000F12CE80EF91E20E05E010894A11CB11C1B
:1026100034E0632E712C6C0E7D1E01C021E00FB6DC
:10262000F8940F92F801928D838D981718F0F2E0CC
:102630009F16C9F4C801B601492D0E945F12982F58
:10264000F8018189882339F0C80141960E9442032C
:10265000813029F402C0992311F00E94900C0F9050
:102660000FBE81E04BC08C819D81892B19F40F90A6
:102670000FBE43C0222319F4C5010E9415010F901B
:102680000FBE0E94FB000FB6F8940F92F801858DE3
:102690008F3F09F4158EF801868D8F3F09F4168E51
:1026A0000F900FBEC501B3010E942001882301F5E0
:1026B0000FB6F8940F92F801928D838D0F900FBE94
:1026C000981781F46C817D81C7010E94C508C801FB
:1026D0000E94AE100E940D05882309F09FCF0E9432
:1026E000900C9CCFC8010E94AE100E940D0596CFA1
:1026F000C8010E94AE100E940D0580E00F900F905F
:102700000F900F900F90CF91DF911F910F91FF903D
:10271000EF90DF90CF90BF90AF909F907F906F90A1
:102720000895AF92BF92CF92DF92EF92FF920F93F4
:102730001F93DF93CF9300D000D00F92CDB7DEB7B9
:102740007D836C838C0168E0E62EF12CE80EF91E87
:1027500020E06E010894C11CD11C54E0A52EB12CC0
:10276000AC0EBD1E01C021E00FB6F8940F92F80127
:10277000928D838D981728F580819181892B11F096
:1027800090E009C0F801828193810E948702982F0E
:10279000F80113821282F801828D8F5F828F818906
:1027A000882339F0C80141960E944203813029F400
:1027B00002C0992311F00E94900C0F900FBE81E08F
:1027C0004BC08C819D81892B19F40F900FBE43C0A3
:1027D000222319F4C6010E9415010F900FBE0E941A
:1027E000FB000FB6F8940F92F801858D8F3F09F426
:1027F000158EF801868D8F3F09F4168E0F900FBE4F
:10280000C601B5010E942001882301F50FB6F89496
:102810000F92F801928D838D0F900FBE981781F45F
:102820006C817D81C7010E94C508C8010E94AE105D
:102830000E940D05882309F096CF0E94900C93CF3B
:10284000C8010E94AE100E940D058DCFC8010E94E4
:10285000AE100E940D0580E00F900F900F900F902A
:102860000F90CF91DF911F910F91FF90EF90DF902C
:10287000CF90BF90AF900895EF92FF920F931F9368
:10288000CF93DF937B01EC010A811B810E947601CB
:102890000817190729F48E818F5F8E8391E00DC090
:1028A000CE0160E070E0A70120E00E947D11982F2A
:1028B000813019F48E818F5F8E83892FDF91CF91C4
:1028C0001F910F91FF90EF9008950F931F93CF9357
:1028D000DF93EC010A811B810E947601081719071A
:1028E00011F080E00BC08E8181508E83882329F403
:1028F000CE0160E070E00E94911381E0DF91CF9102
:102900001F910F910895CF93DF938FE190E00E9484
:102910004C10EC010097E1F01B821A821982188298
:102920001D821C821F821E821A8E81E08B8F1C8E5C
:102930008FEF8D8F8E8FCE0108960E94AE0FCE0145
:1029400041960E94AE0FCE0160E070E00E949113AC
:10295000CE01DF91CF910895CF93DF93EC010FB6B5
:10296000F8940F92EC8D2B8DE29FC00111244881C9
:102970005981840F951F9B838A831A8E5D834C83B4
:1029800030E021503040F0E02E9FC0012F9F900D8D
:102990003E9F900D1124480F591F5F834E838FEF88
:1029A0008D8F8E8F662361F48885882389F0CE0110
:1029B00008960E944203813059F40E94900C08C08E
:1029C000CE0108960E94AE0FCE0141960E94AE0F36
:1029D0000F900FBE81E0DF91CF9108950F931F9369
:1029E000CF93DF93082F162F662319F480E090E031
:1029F00004C0689FC001112401964F960E944C109C
:102A0000EC01009719F420E030E00FC0112319F415
:102A10009983888303C04F96998388830B8F1C8F7B
:102A2000CE0161E00E94AC149E01C901DF91CF91FB
:102A30001F910F9108951F93162F60E042E00E94AE
:102A4000EE14FC01009709F0128FCF011F91089539
:102A5000CF93DF93482F50E0CA0186569F4FFC0169
:102A600034914A575F4FFA018491882369F190E0CD
:102A7000880F991FFC01E859FF4FA591B491FC0103
:102A8000EE58FF4FC591D491662351F42FB7F894B7
:102A90008C91932F909589238C93888189230BC0E7
:102AA000623061F42FB7F8948C91932F909589231D
:102AB0008C938881832B88832FBF06C09FB7F8949F
:102AC0008C91832B8C939FBFDF91CF9108950F93AF
:102AD0001F93CF93DF93BC018230910510F462E025
:102AE00070E0E0918902F0918A02A0E0B0E040E05D
:102AF00050E024C08081918186179707D0F0861717
:102B0000970771F482819381109729F013969C9313
:102B10008E9312972CC090938A028093890227C0CB
:102B20004115510519F08417950718F4EF018D012F
:102B3000AC01DF01828193819C01F9013097D1F6CC
:102B400041155105F9F0CA01861B970B8430910598
:102B500080F48A819B810115110521F0F80193838E
:102B6000828304C090938A0280938902FE01329688
:102B700045C0FE01E80FF91F619371930297998395
:102B800088833CC08091870290918802892B41F410
:102B90008091410190914201909388028093870235
:102BA00040914301509144014115510541F44DB705
:102BB0005EB780913F0190914001481B590B2091D5
:102BC00087023091880224173507B0F4CA01821BAE
:102BD000930B8617970780F0AB014E5F5F4F84170A
:102BE000950750F0420F531F50938802409387027D
:102BF000F9016193719302C0E0E0F0E0CF01DF9151
:102C0000CF911F910F910895CF93DF939C0100976F
:102C100009F48FC0EC0122971B821A82609189020D
:102C200070918A026115710581F488819981820F02
:102C3000931F20918702309188022817390739F5B0
:102C4000D0938802C093870274C0DB0140E050E05B
:102C5000AC17BD0708F1BB83AA83FE012191319116
:102C6000E20FF31FAE17BF0779F48D919C91119776
:102C7000280F391F2E5F3F4F3983288312968D917D
:102C80009C9113979B838A834115510571F4D093CE
:102C90008A02C09389024DC012968D919C91139720
:102CA000AD01009711F0DC01D3CFDA011396DC936C
:102CB000CE931297FA0121913191E20FF31FCE17B3
:102CC000DF0769F488819981280F391F2E5F3F4FF4
:102CD000FA01318320838A819B8193838283E0E0A0
:102CE000F0E0DB0112968D919C911397009719F0FB
:102CF000BC01FD01F6CFAB014E5F5F4FDB018D9153
:102D00009C91840F951F209187023091880228178B
:102D1000390779F4309729F410928A0210928902C7
:102D200002C0138212824250504050938802409356
:102D30008702DF91CF910895CF92DF92EF92FF92B9
:102D40000F931F93CF93DF937C016B018A01C0E047
:102D5000D0E00FC0D6016D916D01D701ED91FC91CE
:102D60000190F081E02DC7010995C80FD91F0150CE
:102D700010400115110571F7CE01DF91CF911F9120
:102D80000F91FF90EF90DF90CF900895EF92FF9218
:102D90000F931F938C01DC01ED91FC910190F08168
:102DA000E02D6DE009957C01D801ED91FC91019039
:102DB000F081E02DC8016AE009959C012E0D3F1DB0
:102DC000C9011F910F91FF90EF900895CF93DF936A
:102DD000EC016115710519F420E030E00FC0DB0152
:102DE0000D900020E9F71197A61BB70BE881F98138
:102DF0000280F381E02DAD0109959C01C901DF91AD
:102E0000CF910895EF92FF920F931F937C010E9440
:102E1000E6168C01C7010E94C616080F191FC801CB
:102E20001F910F91FF90EF900895CF93DF930E9431
:102E300086190E94180D0E94B700C2E6D7E10E94D1
:102E40009C002097E1F30E946217F9CF08951F922A
:102E50000F920FB60F9211242F933F934F938F939E
:102E60009F93EF93FF938091C00082FD1DC040911E
:102E7000C60020911402309115022F5F3F4F2F732F
:102E8000307080911602909117022817390771F05F
:102E9000E0911402F0911502EC52FE4F4083309302
:102EA00015022093140202C08091C600FF91EF9199
:102EB0009F918F914F913F912F910F900FBE0F9047
:102EC0001F901895E0916802F0916902E05CFF4F55
:102ED0008191919120813181805C9F4F821B930B66
:102EE00060E470E00E94C119892B11F00E9426173E
:102EF00008951F920F920FB60F9211242F933F93B4
:102F00008F939F93EF93FF93209158023091590232
:102F100080915A0290915B022817390731F4809111
:102F2000C1008F7D8093C10014C0E0915A02F091DE
:102F30005B02E85EFD4F208180915A0290915B0216
:102F400001968F73907090935B0280935A02209346
:102F5000C600FF91EF919F918F913F912F910F901C
:102F60000FBE0F901F901895AF92BF92DF92EF9215
:102F7000FF920F931F93CF93DF93EC017A018B01A4
:102F8000DD24403081EE580780E0680780E0780754
:102F900011F0DD24D39491E0A92EB12CEC89FD89A8
:102FA000DD2069F0C50108A002C0880F991F0A94AE
:102FB000E2F7808360E079E08DE390E005C0108265
:102FC00060E874E88EE190E0A80197010E94D419AE
:102FD00021503040404050405695479537952795B1
:102FE00080E12030380720F0DD2011F0DD24D6CF3D
:102FF000E889F9893083EA89FB89208319A2EE895F
:10300000FF89408121E030E0C9010C8C02C0880FAB
:10301000991F0A94E2F7482B4083EE89FF8940818B
:10302000C9010D8C02C0880F991F0A94E2F7482B42
:103030004083EE89FF894081C9010E8C02C0880F50
:10304000991F0A94E2F7482B4083EE89FF8980811B
:103050000F8C02C0220F331F0A94E2F72095282319
:103060002083DF91CF911F910F91FF90EF90DF9020
:10307000BF90AF900895DC011C96ED91FC911D97D7
:10308000E05CFF4F8191919120813181805C9F4F65
:10309000821B930B60E470E00E94C1190895DC016B
:1030A0001C96ED91FC911D97E05CFF4F20813181D2
:1030B000E054F040DF01AE5BBF4F8D919C911197C2
:1030C0002817390719F42FEF3FEF07C08D919C9116
:1030D000E80FF91F8081282F30E0C9010895DC0135
:1030E0001C96ED91FC911D97E05CFF4F2081318192
:1030F000E054F040DF01AE5BBF4F8D919C91119782
:103100002817390719F42FEF3FEF10C08D919C91CC
:103110001197E80FF91F20818D919C9111970196CD
:103120008F73907011969C938E9330E0C90108952F
:10313000DC0191968C919197882339F05496ED910A
:10314000FC915597808186FFF9CF91961C92089546
:10315000CF93DF93EC01EE85FF85E05CFF4F20818C
:103160003181E054F0402F5F3F4F2F733070DF010B
:10317000AE5BBF4F8D919C91119728173907D1F302
:10318000E05CFF4F80819181E054F040E80FF91F2F
:103190006083EE85FF85E05CFF4F31832083EE89FD
:1031A000FF89208181E090E00F8C02C0880F991F79
:1031B0000A94E2F7282B208381E089A3EC89FD891A
:1031C00080818064808381E090E0DF91CF910895D9
:1031D00010925F0210925E0288EE93E0A0E0B0E0F1
:1031E0008093600290936102A0936202B0936302A5
:1031F00089E491E090935D0280935C0284ED91E01C
:10320000909369028093680288E192E090936B0248
:1032100080936A0285EC90E090936D0280936C023B
:1032200084EC90E090936F0280936E0280EC90E0CB
:10323000909371028093700281EC90E090937302FE
:103240008093720282EC90E09093750280937402F6
:1032500086EC90E0909377028093760284E08093EE
:10326000780283E08093790287E080937A0285E098
:1032700080937B0281E080937C0208951F920F92DD
:103280000FB60F9211242F933F938F939F93AF9379
:10329000BF938091820290918302A0918402B091A9
:1032A0008502309186020196A11DB11D232F2D5F4D
:1032B0002D3720F02D570196A11DB11D20938602B8
:1032C0008093820290938302A0938402B09385023C
:1032D00080917E0290917F02A0918002B091810244
:1032E0000196A11DB11D80937E0290937F02A09351
:1032F0008002B0938102BF91AF919F918F913F91D6
:103300002F910F900FBE0F901F901895789484B551
:10331000826084BD84B5816084BD85B5826085BDD1
:1033200085B5816085BDEEE6F0E0808181608083B7
:10333000E1E8F0E01082808182608083808181609A
:103340008083E0E8F0E0808181608083E1EBF0E061
:10335000808184608083E0EBF0E080818160808305
:10336000EAE7F0E0808184608083808182608083EE
:103370008081816080838081806880831092C10019
:10338000089597FB092E07260AD077FD04D02ED08A
:1033900006D000201AF4709561957F4F0895F6F7D6
:1033A000909581959F4F0895A1E21A2EAA1BBB1BF1
:1033B000FD010DC0AA1FBB1FEE1FFF1FA217B30701
:1033C000E407F50720F0A21BB30BE40BF50B661F17
:1033D000771F881F991F1A9469F7609570958095DB
:1033E00090959B01AC01BD01CF010895AA1BBB1BA9
:1033F00051E107C0AA1FBB1FA617B70710F0A61BF5
:10340000B70B881F991F5A95A9F780959095BC0115
:10341000CD010895EE0FFF1F0590F491E02D099462
:04342000F894FFCF4E
:103424005072696F72696461646520626169786170
:10343400005072696F72696461646520616C7461C3
:1034440000426C696E6B00416E616C6F675265611E
:10345400640049444C4500546D72205376630080E7
:10346400008B02000000000000A8189C163B186F97
:06347400184F1898180023
:00000001FF
