:100000000C9435000C945D000C945D000C945D0024
:100010000C945D000C945D000C945D000C945D00EC
:100020000C945D000C945D000C945D000C945D00DC
:100030000C945D000C945D000C945D000C945D00CC
:100040000C9493000C945D000C94E3020C94350323
:100050000C945D000C945D000C945D000C945D00AC
:100060000C945D000C945D00A40411241FBECFEF1E
:10007000D8E0DEBFCDBF11E0A0E0B1E0E4EDFAE0F2
:1000800002C005900D92A234B107D9F711E0A2E4A5
:10009000B1E001C01D92A73FB107E1F710E0CAE649
:1000A000D0E004C02297FE010E946405C836D10743
:1000B000C9F70E94D1020C9468050C9400008EE0F0
:1000C0000E946F01909343018093420185ED91E07E
:1000D00060E071E00E94BA026091420170914301B8
:1000E00085ED91E04AE050E00E949B028091420140
:1000F000909143018C5B924034F485ED91E063E193
:1001000071E00E94BD0260ED77E080E090E00E9427
:10011000DB00089585ED91E040E855E260E070E095
:100120000E94700308951F920F920FB60F92112430
:100130002F933F938F939F93AF93BF9380914801E9
:1001400090914901A0914A01B0914B0130914C012D
:100150000196A11DB11D232F2D5F2D3720F02D57A6
:100160000196A11DB11D20934C01809348019093ED
:100170004901A0934A01B0934B01809144019091B1
:100180004501A0914601B09147010196A11DB11D05
:100190008093440190934501A0934601B093470199
:1001A000BF91AF919F918F913F912F910F900FBE73
:1001B0000F901F9018959B01AC017FB7F894809128
:1001C000440190914501A0914601B091470166B567
:1001D000A89B05C06F3F19F00196A11DB11D7FBFFF
:1001E000BA2FA92F982F8827860F911DA11DB11D09
:1001F00062E0880F991FAA1FBB1F6A95D1F7BC0147
:100200002DC0FFB7F8948091440190914501A091D1
:100210004601B0914701E6B5A89B05C0EF3F19F034
:100220000196A11DB11DFFBFBA2FA92F982F8827B6
:100230008E0F911DA11DB11DE2E0880F991FAA1F0D
:10024000BB1FEA95D1F7861B970B885E9340C8F2D7
:10025000215030404040504068517C4F21153105BD
:100260004105510571F60895789484B5826084BD86
:1002700084B5816084BD85B5826085BD85B58160AA
:1002800085BDEEE6F0E0808181608083E1E8F0E00A
:100290001082808182608083808181608083E0E839
:1002A000F0E0808181608083E1EBF0E08081846018
:1002B0008083E0EBF0E0808181608083EAE7F0E01A
:1002C000808184608083808182608083808181607E
:1002D00080838081806880831092C1000895982F68
:1002E0008E3008F09E509770809130018295880F73
:1002F000880F807C892B80937C0080917A008064B9
:1003000080937A0080917A0086FDFCCF209178005E
:1003100040917900942F80E030E0282B392BC901DF
:100320000895CF92DF92EF92FF920F931F93CF9396
:10033000DF937C016B018A01C0E0D0E00FC0D601E1
:100340006D916D01D701ED91FC910190F081E02D4F
:10035000C7010995C80FD91F01501040011511059B
:1003600071F7CE01DF91CF911F910F91FF90EF9028
:10037000DF90CF900895EF92FF920F931F938C011F
:10038000DC01ED91FC910190F081E02D6DE009958B
:100390007C01D801ED91FC910190F081E02DC80124
:1003A0006AE009959C012E0D3F1DC9011F910F9117
:1003B000FF90EF900895CF93DF93EC0161157105E5
:1003C00019F420E030E00FC0DB010D900020E9F7C8
:1003D0001197A61BB70BE881F9810280F381E02D0C
:1003E000AD0109959C01C901DF91CF9108954F920C
:1003F0005F927F928F929F92AF92BF92CF92DF9245
:10040000EF92FF920F931F93DF93CF93CDB7DEB799
:10041000A1970FB6F894DEBF0FBECDBF2C01742E8E
:10042000CB01223008F42AE019A231E2C32ED12CEC
:10043000CC0EDD1E822E9924AA24BB24672D752F95
:10044000A50194010E942C0579018A01C801B70118
:10045000A50194010E94FA04472D461B0894C10887
:10046000D1084A3014F4405D01C0495CF601408374
:10047000E114F1040105110521F07E2C5F2DC80166
:10048000DDCFC201B6010E94DB01A1960FB6F89440
:10049000DEBF0FBECDBFCF91DF911F910F91FF90B7
:1004A000EF90DF90CF90BF90AF909F908F907F9014
:1004B0005F904F900895CF92DF92EF92FF920F934B
:1004C0001F93CF93DF93EC016A017B012115310566
:1004D00041F4E881F9810190F081E02D642F0995C4
:1004E0001FC02A303105D1F477FF17C0E881F981A8
:1004F0000190F081E02D6DE209958C01442755278C
:10050000BA014C195D096E097F09CE012AE00E94EB
:10051000F7019801280F391F04C02AE00E94F70153
:100520009C01C901DF91CF911F910F91FF90EF9036
:10053000DF90CF900895CF92DF92EF92FF920F93CA
:100540001F936C017B019A010027F7FC0095102F87
:10055000B801A7010E945B028C01C6010E94BB0189
:10056000080F191FC8011F910F91FF90EF90DF90A6
:10057000CF9008950E94DB010895EF92FF920F93B0
:100580001F937C010E94DB018C01C7010E94BB010B
:10059000080F191FC8011F910F91FF90EF90089548
:1005A0000895CF93DF930E9434010E94D0020E94ED
:1005B0008A00CEE1D3E00E945F002097E1F30E9421
:1005C0001E03F9CF08951F920F920FB60F921124B8
:1005D0002F933F934F938F939F93EF93FF9380912C
:1005E000C00082FD1DC04091C60020918D01309158
:1005F0008E012F5F3F4F2F73307080918F0190914C
:1006000090012817390771F0E0918D01F0918E016A
:10061000E35BFE4F408330938E0120938D0102C037
:100620008091C600FF91EF919F918F914F913F91E3
:100630002F910F900FBE0F901F901895E091E10140
:10064000F091E201E05CFF4F819191912081318135
:10065000805C9F4F821B930B60E470E00E94190541
:10066000892B11F00E94E20208951F920F920FB69B
:100670000F9211242F933F938F939F93EF93FF93A8
:100680002091D1013091D2018091D3019091D40178
:100690002817390731F48091C1008F7D8093C10004
:1006A00014C0E091D301F091D401EF56FE4F2081A8
:1006B0008091D3019091D40101968F7390709093A3
:1006C000D4018093D3012093C600FF91EF919F91B5
:1006D0008F913F912F910F900FBE0F901F90189503
:1006E000AF92BF92DF92EF92FF920F931F93CF933F
:1006F000DF93EC017A018B01DD24403081EE580755
:1007000080E0680780E0780711F0DD24D39491E061
:10071000A92EB12CEC89FD89DD2069F0C50108A066
:1007200002C0880F991F0A94E2F7808360E079E0A5
:100730008DE390E005C0108260E874E88EE190E0FF
:10074000A80197010E942C052150304040405040A4
:10075000569547953795279580E12030380720F04A
:10076000DD2011F0DD24D6CFE889F9893083EA89CC
:10077000FB89208319A2EE89FF89408121E030E0C6
:10078000C9010C8C02C0880F991F0A94E2F7482B0C
:100790004083EE89FF894081C9010D8C02C0880F1A
:1007A000991F0A94E2F7482B4083EE89FF89408124
:1007B000C9010E8C02C0880F991F0A94E2F7482BDA
:1007C0004083EE89FF8980810F8C02C0220F331F86
:1007D0000A94E2F7209528232083DF91CF911F917F
:1007E0000F91FF90EF90DF90BF90AF900895DC01E4
:1007F0001C96ED91FC911D97E05CFF4F81919191CA
:1008000020813181805C9F4F821B930B60E470E0FC
:100810000E9419050895DC011C96ED91FC911D972D
:10082000E05CFF4F20813181E054F040DF01AE5B9E
:10083000BF4F8D919C9111972817390719F42FEF0D
:100840003FEF07C08D919C91E80FF91F8081282F01
:1008500030E0C9010895DC011C96ED91FC911D97D3
:10086000E05CFF4F20813181E054F040DF01AE5B5E
:10087000BF4F8D919C9111972817390719F42FEFCD
:100880003FEF10C08D919C911197E80FF91F2081C7
:100890008D919C91119701968F73907011969C93F6
:1008A0008E9330E0C9010895DC0191968C91919767
:1008B000882339F05496ED91FC915597808186FFFD
:1008C000F9CF91961C920895CF93DF93EC01EE85BA
:1008D000FF85E05CFF4F20813181E054F0402F5FC5
:1008E0003F4F2F733070DF01AE5BBF4F8D919C91F6
:1008F000119728173907D1F3E05CFF4F8081918170
:10090000E054F040E80FF91F6083EE85FF85E05C5E
:10091000FF4F31832083EE89FF89208181E090E0C1
:100920000F8C02C0880F991F0A94E2F7282B2083AE
:1009300081E089A3EC89FD8980818064808381E0E6
:1009400090E0DF91CF9108951092D8011092D701D5
:1009500088EE93E0A0E0B0E08093D9019093DA01B3
:10096000A093DB01B093DC0185E391E09093D60185
:100970008093D5018DE491E09093E2018093E101B1
:1009800081E991E09093E4018093E30185EC90E0AC
:100990009093E6018093E50184EC90E09093E80168
:1009A0008093E70180EC90E09093EA018093E90165
:1009B00081EC90E09093EC018093EB0182EC90E06D
:1009C0009093EE018093ED0186EC90E09093F0011E
:1009D0008093EF0184E08093F10183E08093F20142
:1009E00087E08093F30185E08093F40181E08093B8
:1009F000F5010895629FD001739FF001829FE00D81
:100A0000F11D649FE00DF11D929FF00D839FF00D8D
:100A1000749FF00D659FF00D9927729FB00DE11D39
:100A2000F91F639FB00DE11DF91FBD01CF01112416
:100A3000089597FB092E07260AD077FD04D02ED003
:100A400006D000201AF4709561957F4F0895F6F74F
:100A5000909581959F4F0895A1E21A2EAA1BBB1B6A
:100A6000FD010DC0AA1FBB1FEE1FFF1FA217B3077A
:100A7000E407F50720F0A21BB30BE40BF50B661F90
:100A8000771F881F991F1A9469F760957095809554
:100A900090959B01AC01BD01CF010895AA1BBB1B22
:100AA00051E107C0AA1FBB1FA617B70710F0A61B6E
:100AB000B70B881F991F5A95A9F780959095BC018F
:100AC000CD010895EE0FFF1F0590F491E02D0994DC
:040AD000F894FFCFC8
:100AD40052656164696E672068756D6964697479CB
:100AE4003A20005761726E696E6721212120466C9D
:100AF4006F6F6420646574656374656421212100EB
:100B0400010000000064049101F7032B040B04545A
:020B14000400DB
:00000001FF
