:100000000C9463000C948B000C948B000C948B006C
:100010000C948B000C948B000C948B000C948B0034
:100020000C948B000C948B000C948B000C948B0024
:100030000C948B000C948B000C9400050C948B009A
:100040000C9447070C948B000C948B000C948B0041
:100050000C948B000C948B000C948B000C948B00F4
:100060000C948B000C948B0000000008000201002F
:100070000003040700000000000000000102040863
:100080001020408001020408102001020408102002
:10009000040404040404040402020202020203032E
:1000A00003030303000000002300260029000000D2
:1000B0000000250028002B0000000000240027007D
:1000C0002A001803F50411241FBECFEFD8E0DEBFCD
:1000D000CDBF11E0A0E0B1E0E6ECFBE102C005908D
:1000E0000D92A23CB107D9F727E0A2ECB1E001C024
:1000F0001D92A23CB207E1F710E0C6ECD0E004C0CC
:100100002297FE010E94CE0DC23CD107C9F70E9482
:10011000750B0C94E10D0C940000CCEDD5E088EE4D
:10012000C82E83E0D82EE12CF12C0E9491074B01C0
:100130005C018EE00E94D9088C3B92401CF463E481
:1001400071E002C063E571E081EB97E00E94A009D5
:100150000E9491072B013C0166E671E081EB97E07C
:100160000E949309481859085E01A418B5084AE08E
:1001700050E0B50181EB97E00E944B0A20ED33E09F
:10018000D5010E94C50D6150710981099109A7012E
:1001900096010E94A30DC90101960E941704C5CFC4
:1001A00008952F923F924F925F926F927F928F921B
:1001B0009F92AF92BF92CF92DF92EF92FF920F93F6
:1001C0001F93CF93DF93CDB7DEB761970FB6F89447
:1001D000DEBF0FBECDBF8C0120E030E0A901FC01E5
:1001E00060817181828193810E94850BF801248155
:1001F0003581468157810E94850BF8012085318524
:10020000428553850E94850B20E030E040E450E4B5
:100210000E94ED0B2B013C01CE010D969E878D8730
:10022000FE0131965F01198B088B1F86212C912CC2
:10023000812C312CE889F989619171918191919199
:10024000F98BE88BA30192010E94840B6B017C0166
:1002500020E030E0A9010E94E90B87FF04C0F7FA13
:10026000F094F7F8F094F501C082D182E282F38233
:10027000F501C190D190E190F1905F01222D392DCF
:10028000482D532DC701B6010E94380D18166CF089
:10029000222D392D482D532DC701B6010E94E90B9F
:1002A000811108C0F1E0FF8705C02C2C9D2C8E2CFD
:1002B0003F2C1F868D859E85A816B90609F0BACFFA
:1002C0009F8591113CC020E030E040E050E4622D79
:1002D000792D882D932D0E94380D87FD30C0FE01A9
:1002E00031967F01412C512C3201F70161917191BE
:1002F000819191917F01222D392D482D532D0E94FE
:10030000E90B882359F0F801208131814281538122
:10031000C301B2010E94850B2B013C010C5F1F4FF2
:100320008D859E85E816F90601F720E030E040E073
:100330005FE3C301B2010E943C0D2B013C01C301EC
:10034000B20161960FB6F894DEBF0FBECDBFDF914C
:10035000CF911F910F91FF90EF90DF90CF90BF90C2
:10036000AF909F908F907F906F905F904F903F9055
:100370002F900895CF93DF93CDB7DEB760970FB678
:10038000F894DEBF0FBECDBF9CED292E95E0392E2F
:1003900028EE422E23E0522E612C712C0E949107F0
:1003A0006D877E878F87988B09E717E0CE010196CE
:1003B0005C01912C40E060E0C8010E94A1066B0145
:1003C0007C01F50161937193819391935F016DE6D7
:1003D00071E081EB97E00E9493094AE050E0692DBB
:1003E00081EB97E00E94700A60E771E081EB97E093
:1003F0000E94930922E030E0B701A60181EB97E06B
:100400000E94620B93940E5E1F4FF3E09F12D2CFB7
:10041000CE0101960E94D10020E030E048EC51E48A
:100420000E94380D87FD06C067E771E081EB97E019
:100430000E94A0090E9491076B017C0162E871E0B3
:1004400081EB97E00E9493098D859E85C81AD90A91
:1004500081010C191D094AE050E0B80181EB97E0D9
:100460000E944B0A20ED33E0D8010E94C50D615077
:10047000710981099109A30192010E94A30DC9018B
:1004800001960E9417048ACFCF93DF93CDB7DEB7D2
:1004900060970FB6F894DEBF0FBECDBF3CED232EA4
:1004A00035E0332E48EE442E43E0542E612C712C5F
:1004B0000E9491076D877E878F87988B09E717E0E9
:1004C000CE0101965C01912C60E0C8010E940107F9
:1004D0006B017C01F50161937193819391935F01AD
:1004E0006DE671E081EB97E00E9493094AE050E0ED
:1004F000692D81EB97E00E94700A69E871E081EB59
:1005000097E00E94930922E030E0B701A60181EB59
:1005100097E00E94620B93940E5E1F4FF3E09F12D0
:10052000D3CFCE0101960E94D10020E030E04CE80C
:1005300052E40E94380D87FD06C060E971E081EB4E
:1005400097E00E94A0090E9491076B017C016BE972
:1005500071E081EB97E00E9493098D859E85C81A12
:10056000D90A81010C191D094AE050E0B80181EB5C
:1005700097E00E944B0A20ED33E0D8010E94C50DA0
:100580006150710981099109A30192010E94A30D93
:10059000C90101960E9417048BCFCF92DF92EF9290
:1005A000FF92C82E64E170E089E00E94F608D12C29
:1005B000E12CF12CC701B6010E94C00760E070E099
:1005C00089E00E94F608C701B601FF90EF90DF9026
:1005D000CF900C94C00760E070E08FEA97E00E9433
:1005E0003F0488EC0E94CD02F6CF40E855E260E07F
:1005F00070E081EB97E00E94CC0461E089E00E940A
:10060000690889E797E00E944F058BE897E00E9410
:100610004F058DE997E00E944F0582E30E94CD02CD
:1006200082E30E94CD0282E30E94CD020C945A0420
:1006300026E04BE06FE089E797E00E942E0526E078
:100640004BE060E18BE897E00E942E0526E04BE04E
:1006500061E18DE997E00E942E0585E490E090939A
:1006600019018093180185EC91E090932301809308
:10067000220190932D0180932C0190933701809358
:10068000360108951F93CF93DF9380910C019091D1
:100690000D0160910E0170910F012BEB34E0132FCF
:1006A000FC01A0E1B1E0A901E617F70780F512828D
:1006B0001682158218962D913C9119972551310972
:1006C0001696CD91DC911797C20FD31FD183C083AB
:1006D00012962C9112972A8BC081D18113962C915E
:1006E0001397298BC081D18114962C911497288B54
:1006F000C081D18115962C9115972F87C081D1810A
:100700001B8BC081D1814C8B37961A96CDCF8093AD
:1007100008019093090180930601909307010E94BC
:100720008C047894DF91CF911F910895FC0174831C
:10073000638312821682158220910801309109018B
:100740008217930720F4909309018093080108957C
:10075000CF93DF93C0910C01D0910D0180910A01DC
:1007600090910B01019690930B0180930A018D816A
:100770009E81892BD9F08D819E8101979E838D83E7
:10078000892BA1F48A81833041F4EB81FC81808143
:10079000918101969183808304C0823011F41C8280
:1007A0001B826FEF7FEFCE010E9496032796809108
:1007B0000E0190910F01C817D907C8F2DF91CF91B0
:1007C0000895609106017091070180910801909150
:1007D00009018617970731F090930701809306016E
:1007E0000C948C040895E0910601F0910701828336
:1007F0007683658380910C0190910D01DC01129646
:100800002C91211112C090930901809308019093BB
:10081000070180930601BF010E948C04E09106014C
:10082000F09107018381948108950796E7CFF894AA
:10083000BC0181E00E94F30378940895FC0180815B
:1008400091811816190694F06F3F2FEF7207A1F0EF
:10085000019791838083A0910601B09107011496BE
:10086000FC93EE93139783E00C94F3030197918329
:10087000808380E090E008958FEF9FEF0895F894D3
:100880000E941E047894089525E58617970720F4A2
:10089000FC012193CF01F9CF08958091A70188230E
:1008A00039F0F8940E9426050E94420381E00895E1
:1008B00080E00895CF93DF9300D0CDB7DEB780E11D
:1008C00091E09A838983E981FA81868197810097F3
:1008D00051F060857185680F791F0E9444048981F9
:1008E0009A810A96EECF2091BE073091BF0721155D
:1008F000310529F4809102019091030101C0C901E1
:10090000BE016F5071090E9444040E944D040F9073
:100910000F90DF91CF9108952F923F924F925F9267
:100920006F927F928F929F92AF92BF92CF92DF92FF
:10093000EF92FF920F931F93CF93DF93FB010DB6BE
:1009400000820EB60182FC0100800DBE01800EBE49
:10095000DF91CF911F910F91FF90EF90DF90CF909B
:10096000BF90AF909F908F907F906F905F904F90CF
:100970003F902F9008957894C201F10109958091DC
:10098000C10085FDFCCF8091C00085FFF8CF60934A
:10099000C60081E090E008959A01AB01211581EE37
:1009A00038074105510599F082E08093C00060E06E
:1009B00079E08DE390E00E94A30D215031094109B7
:1009C00051095695479537952795C90104C010924E
:1009D000C00080E190E09093C5008093C4008091B6
:1009E000C10088618093C10008951092B4071092ED
:1009F000B3078CEA91E09093B2078093B107089512
:100A00001F920F920FB60F9211242F933F934F9383
:100A10005F936F937F938F939F93AF93BF93EF9366
:100A2000FF930E94A8030E94E103FF91EF91BF9101
:100A3000AF919F918F917F916F915F914F913F9176
:100A40002F910F900FBE0F901F90189580E887BDD3
:100A5000EEE6F0E08081826080830895DC011596E7
:100A60006C93159716964C93169770E0FB01E4581B
:100A7000FF4FE4911796EC931797FB01E057FF4F58
:100A8000649118966C93189740E85EE360E070E01C
:100A90001D964D935D936D937C9350970895CF93DE
:100AA000DF93EC0162E08D810E94690840E358EF1A
:100AB0006FEF7FEF49875A876B877C87DF91CF91F4
:100AC0000895AF92BF92CF92DF92EF92FF920F9371
:100AD0001F93CF93DF93EC01AF80662311F0BA2C04
:100AE00001C0B12CA885B0E0AA0FBB1FAC55BF4F09
:100AF00040E050E0BA01FD0185919491FC018081B4
:100B00008A218B1112C08A019B010F5F1F4F2F4F4B
:100B10003F4FCD84DE84EF84F8884C155D056E056B
:100B20007F0538F4B901A801E6CF342F252FCB017A
:100B300004C030E020E080E090E0632F722FDF916E
:100B4000CF911F910F91FF90EF90DF90CF90BF90CA
:100B5000AF900895CF92DF92EF92FF920F931F9381
:100B6000CF93DF93CDB7DEB7C054D1400FB6F89422
:100B7000DEBF0FBECDBF8C01F62E0E949107F11093
:100B800016C0F801C184D284E384F4849B01AC01D3
:100B90002C193D094E095F0969017A0130EDC31630
:100BA00037E0D306E104F10410F48189BAC0F801FA
:100BB00061877287838794871482138212821182DD
:100BC000108261E085810E94A2086AEF70E080E0F7
:100BD00090E00E94C00761E0F80185810E946908E9
:100BE00060E0F80185810E94A20864E170E080E085
:100BF00090E00E94C007F89461E0F80185810E94AE
:100C0000A20888E290E00E94FA0762E0F80185817C
:100C10000E9469088AE090E00E94FA0760E0C8013B
:100C20000E946105672B682B692B41F061E0C801C8
:100C30000E946105672B682B692B21F4F801118A4A
:100C400078946EC06E01FFEBCF1AFEEFDF0A9E01B3
:100C50002F5F3F4F790160E0C8010E946105F701F5
:100C6000608371838283938361E0C8010E94610580
:100C7000F7016483758386839783F8E0EF0EF11C98
:100C8000EC14FD0441F778949E012F5F3F4F7901EA
:100C900020E030E0F70140815181628173818481DD
:100CA0009581A681B7814115510561057105B1F1A5
:100CB0000097A105B10591F1F901F595E795F59535
:100CC000E795F595E795E00FF11FD080DD0C48170B
:100CD00059076A077B0710F0D08203C08D2D816011
:100CE00080832F5F3F4FF8E0EF0EF11C2832310573
:100CF00089F6F801248130E04081818190E0840F01
:100D0000911D4281840F911D4381840F911D99276C
:100D10002817390719F481E0818B03C0F801118A83
:100D200080E0C05CDE4F0FB6F894DEBF0FBECDBFD3
:100D3000DF91CF911F910F91FF90EF90DF90CF90B7
:100D40000895CF92DF92EF92FF920F931F93CF936C
:100D5000DF93EC01162F642F0E94AA05882309F463
:100D600043C08E818B3031F008F43EC08551823013
:100D700040F03AC06A8170E080E090E00E94860C0A
:100D800024C00A81602F6F7770E080E090E00E94BD
:100D9000880C20E030E040E853E40E943C0D6B01F9
:100DA0007C016B8170E080E090E00E94880C9B01E8
:100DB000AC01C701B6010E94850B2DEC3CEC4CEC5C
:100DC0005DE30E943C0D07FD9058112389F026E653
:100DD00036E646EE5FE30E943C0D20E030E040E066
:100DE00052E40E94850B04C060E070E080EC9FE755
:100DF000DF91CF911F910F91FF90EF90DF90CF90F7
:100E00000895CF92DF92EF92FF92CF93DF93EC01A0
:100E100060E00E94AA05882379F18E818B3029F148
:100E200058F18551823040F5688170E080E090E0B3
:100E30000E94860C20E030E040E853E40E943C0D24
:100E40006B017C01698170E080E090E00E94880C79
:100E50009B01AC01C701B6010E94850B2DEC3CEC57
:100E60004CEC5DE30E943C0D0BC0688170E080E0BB
:100E700090E00E94860C04C060E070E080EC9FE788
:100E8000DF91CF91FF90EF90DF90CF9008951F9268
:100E90000F920FB60F9211242F933F938F939F932E
:100EA000AF93BF938091B6079091B707A091B80711
:100EB000B091B9073091B50723E0230F2D3720F407
:100EC0000196A11DB11D05C026E8230F0296A11DA4
:100ED000B11D2093B5078093B6079093B707A093F1
:100EE000B807B093B9078091BA079091BB07A0915A
:100EF000BC07B091BD070196A11DB11D8093BA0733
:100F00009093BB07A093BC07B093BD07BF91AF916F
:100F10009F918F913F912F910F900FBE0F901F9037
:100F200018952FB7F8946091B6077091B707809124
:100F3000B8079091B9072FBF08953FB7F8948091F3
:100F4000BA079091BB07A091BC07B091BD0726B529
:100F5000A89B05C02F3F19F00196A11DB11D3FBFF1
:100F60006627782F892F9A2F620F711D811D911D81
:100F700042E0660F771F881F991F4A95D1F70895A1
:100F80008F929F92AF92BF92CF92DF92EF92FF9299
:100F90006B017C010E949D074B015C01C114D104CF
:100FA000E104F104F1F00E94D8080E949D0768193D
:100FB00079098A099B09683E73408105910570F3A0
:100FC00021E0C21AD108E108F10888EE880E83E01A
:100FD000981EA11CB11CC114D104E104F10429F72D
:100FE000DDCFFF90EF90DF90CF90BF90AF909F90BC
:100FF0008F9008958230910538F0880F991F880FDF
:10100000991F05970197F1F70895789484B5826048
:1010100084BD84B5816084BD85B5826085BD85B59C
:10102000816085BDEEE6F0E0808181608083E1E84B
:10103000F0E0108280818260808380818160808383
:10104000E0E8F0E0808181608083E1EBF0E0808186
:1010500084608083E0EBF0E0808181608083EAE758
:10106000F0E08081846080838081826080838081E1
:10107000816080838081806880831092C1000895A0
:10108000833081F028F4813099F08230A1F0089506
:101090008730A9F08830B9F08430D1F48091800095
:1010A0008F7D03C0809180008F77809380000895AA
:1010B00084B58F7702C084B58F7D84BD08958091FB
:1010C000B0008F7703C08091B0008F7D8093B00017
:1010D0000895CF93DF9390E0FC01E458FF4F2491F3
:1010E000FC01E057FF4F8491882349F190E0880F7D
:1010F000991FFC01E854FF4FA591B49182559F4F71
:10110000FC01C591D4919FB7611108C0F8948C91EE
:10111000209582238C93888182230AC0623051F407
:10112000F8948C91322F309583238C938881822B75
:10113000888304C0F8948C91822B8C939FBFDF919D
:10114000CF9108950F931F93CF93DF931F92CDB745
:10115000DEB7282F30E0F901E859FF4F8491F901FB
:10116000E458FF4F1491F901E057FF4F0491002319
:10117000C9F0882321F069830E9440086981E02F2B
:10118000F0E0EE0FFF1FE255FF4FA591B4919FB71E
:10119000F8948C91611103C01095812301C0812BBB
:1011A0008C939FBF0F90DF91CF911F910F91089566
:1011B00008958E3008F08E5087702091420190E49F
:1011C000299F90011124822B80937C0080917A00CA
:1011D000806480937A0080917A0086FDFCCF8091B4
:1011E00078002091790090E0922B08951F93CF937F
:1011F000DF93182FEB0161E00E946908209711F43A
:1012000060E004C0CF3FD10539F461E0812FDF9168
:10121000CF911F910C94A208E12FF0E0E859FF4F05
:10122000E491E330F9F048F4E130B9F0E230A1F5AF
:1012300084B5806284BDC8BD34C0E730E9F0E830D1
:1012400019F1E43049F5809180008062809380003C
:10125000D0938B00C0938A0024C084B5806884BD7D
:10126000C7BD1FC080918000806880938000D093AC
:101270008900C093880015C08091B0008068809379
:10128000B000C093B3000DC08091B0008062809325
:10129000B000C093B40005C0C038D1050CF0B5CF84
:1012A000AFCFDF91CF911F910895CF92DF92EF9250
:1012B000FF920F931F93CF93DF937C016A01EB01A1
:1012C00000E010E00C151D0571F06991D701ED915A
:1012D000FC910190F081E02DC7010995892B19F04F
:1012E0000F5F1F4FEFCFC801DF91CF911F910F917B
:1012F000FF90EF90DF90CF9008956115710581F018
:10130000DB010D900020E9F7AD0141505109461B6A
:10131000570BDC01ED91FC910280F381E02D0994E3
:1013200080E090E008950C947D09DC01ED91FC9142
:101330000190F081E02D099460EB71E00C947D093F
:101340000F931F93CF93DF93EC010E947D098C01D3
:10135000CE010E949C09800F911FDF91CF911F91B8
:101360000F9108958F929F92AF92BF92DF92EF926A
:10137000FF920F931F93CF93DF93CDB7DEB7A19763
:101380000FB6F894DEBF0FBECDBF7C01F42FD52E73
:10139000CB0119A2223008F42AE08E010F5D1F4F05
:1013A000822E912CA12CB12C6F2F7D2DA5019401A3
:1013B0000E94A30DF22FD32ECA01015011096A30E9
:1013C00014F4E0E301C0E7E3E60FD801EC93232B2C
:1013D000242B252B49F7B801C7010E947D09A1964E
:1013E0000FB6F894DEBF0FBECDBFDF91CF911F9136
:1013F0000F91FF90EF90DF90BF90AF909F908F90F4
:101400000895CF92DF92EF92FF920F931F93CF93A5
:10141000DF93EC016A017B012115310579F4E88144
:10142000F9810190F081E02D642FDF91CF911F9120
:101430000F91FF90EF90DF90CF9009942A30310503
:10144000E9F477FF1AC06DE20E9495098C014427E8
:101450005527BA014C195D096E097F092AE0CE01B2
:101460000E94B209800F911FDF91CF911F910F91C0
:10147000FF90EF90DF90CF9008952AE0B701A6018A
:10148000CE01DF91CF911F910F91FF90EF90DF90F0
:10149000CF900C94B2090F931F93CF93DF93EC017D
:1014A0009A01AB01662757FD6095762F0E94010ACD
:1014B0008C01CE010E949C09800F911FDF91CF917A
:1014C0001F910F9108952115310541F4DC01ED9133
:1014D000FC910190F081E02D642F09940C94B209E5
:1014E0009A01462F50E060E070E00C94630A4F923E
:1014F0005F926F927F928F929F92AF92BF92CF92A4
:10150000DF92EF92FF920F931F93CF93DF93EC0143
:101510006A017B01B22E9A01AB01C701B6010E949C
:101520009F0D882319F063EB71E027C02601370176
:10153000E89477F82FEF3FEF4FE75FE7C301B20181
:101540000E949F0D81110DC02FEF3FEF4FE75FE726
:10155000C301B2010E94E90B18161CF467EB71E09D
:101560000CC02FEF3FEF4FE75FE4C701B6010E94C9
:10157000380D1816ACF46BEB71E0CE01DF91CF9112
:101580001F910F91FF90EF90DF90CF90BF90AF90A1
:101590009F908F907F906F905F904F900C947D09FB
:1015A0002FEF3FEF4FE75FECC701B6010E94E90B59
:1015B00087FDE1CF20E030E0A901C701B6010E941C
:1015C000E90B87FF0AC06DE2CE010E9495098C01EC
:1015D000F7FAF094F7F8F09402C000E010E0A12CC4
:1015E00060E070E080E09FE3AB1441F020E030E089
:1015F00040E251E40E94ED0BA394F6CF9B01AC01B5
:10160000C701B6010E94850B6B017C010E945A0C38
:101610002B013C010E94860C9B01AC01C701B60165
:101620000E94840B6B017C012AE0B301A201CE0170
:101630000E94B209080F191FBB2039F06FEB71E04F
:10164000CE010E947D09080F191F7B2C772041F1E4
:1016500020E030E040E251E4C701B6010E943C0DB9
:101660006B017C010E94550C4B01AA2497FCA094AD
:10167000BA2C2AE030E0B501A401CE010E94010A93
:10168000080F191FC501B4010E94880C9B01AC0111
:10169000C701B6010E94840B6B017C017A94D6CFFE
:1016A000C801DF91CF911F910F91FF90EF90DF90D4
:1016B000CF90BF90AF909F908F907F906F905F90F2
:1016C0004F9008950F931F93CF93DF93EC010E94E7
:1016D000770A8C01CE010E949C09800F911FDF9137
:1016E000CF911F910F91089508950E9405080E94BF
:1016F000740B0E94F502C0E0D0E00E94D000209759
:10170000E1F30E940000F9CF5058BB27AA270ED062
:1017100075C166D130F06BD120F031F49F3F11F4E8
:101720001EF45BC10EF4E095E7FB51C1E92F77D1C0
:1017300080F3BA17620773078407950718F071F4EE
:101740009EF58FC10EF4E0950B2EBA2FA02D0B0144
:10175000B90190010C01CA01A0011124FF27591BF6
:1017600099F0593F50F4503E68F11A16F040A22FFC
:10177000232F342F4427585FF3CF4695379527956D
:10178000A795F0405395C9F77EF41F16BA0B620B6C
:10179000730B840BBAF09150A1F0FF0FBB1F661FB3
:1017A000771F881FC2F70EC0BA0F621F731F841FF6
:1017B00048F4879577956795B795F7959E3F08F01C
:1017C000B3CF9395880F08F09927EE0F97958795DB
:1017D0000895D9D008F481E008950CD00FC107D145
:1017E00040F0FED030F021F45F3F19F0F0C051110D
:1017F00039C1F3C014D198F39923C9F35523B1F338
:10180000951B550BBB27AA2762177307840738F06F
:101810009F5F5F4F220F331F441FAA1FA9F333D0CE
:101820000E2E3AF0E0E830D091505040E695001C82
:10183000CAF729D0FE2F27D0660F771F881FBB1F3E
:10184000261737074807AB07B0E809F0BB0B802D18
:10185000BF01FF2793585F4F2AF09E3F510568F064
:10186000B6C000C15F3FECF3983EDCF386957795F8
:101870006795B795F7959F5FC9F7880F911D969566
:10188000879597F90895E1E0660F771F881FBB1FC2
:10189000621773078407BA0720F0621B730B840B6F
:1018A000BA0BEE1F88F7E095089504D06894B11143
:1018B000D9C00895BCD088F09F5790F0B92F9927D0
:1018C000B751A0F0D1F0660F771F881F991F1AF04B
:1018D000BA95C9F712C0B13081F0C3D0B1E0089514
:1018E000C0C0672F782F8827B85F39F0B93FCCF395
:1018F000869577956795B395D9F73EF49095809541
:10190000709561957F4F8F4F9F4F0895E89409C060
:1019100097FB3EF490958095709561957F4F8F4F22
:101920009F4F9923A9F0F92F96E9BB279395F69538
:10193000879577956795B795F111F8CFFAF4BB0FB6
:1019400011F460FF1BC06F5F7F4F8F4F9F4F16C01A
:10195000882311F096E911C0772321F09EE8872FA4
:10196000762F05C0662371F096E8862F70E060E060
:101970002AF09A95660F771F881FDAF7880F9695D9
:10198000879597F90895990F0008550FAA0BE0E87D
:10199000FEEF16161706E807F907C0F01216130631
:1019A000E407F50798F0621B730B840B950B39F471
:1019B0000A2661F0232B242B252B21F408950A26D7
:1019C00009F4A140A6958FEF811D811D089597F917
:1019D0009F6780E870E060E008959FEF80EC0895D5
:1019E00000240A94161617061806090608950024FE
:1019F0000A9412161306140605060895092E039478
:101A0000000C11F4882352F0BB0F40F4BF2B11F4EB
:101A100060FF04C06F5F7F4F8F4F9F4F089557FD4A
:101A20009058440F551F59F05F3F71F04795880F4C
:101A300097FB991F61F09F3F79F0879508951216E3
:101A400013061406551FF2CF4695F1DF08C016168F
:101A500017061806991FF1CF869571056105089440
:101A60000895E894BB2766277727CB0197F9089557
:101A70008ADF08F48FEF08950BD0C0CFB1DF28F0D4
:101A8000B6DF18F0952309F0A2CFA7CF1124EACF33
:101A9000C6DFA0F3959FD1F3950F50E0551F629FCD
:101AA000F001729FBB27F00DB11D639FAA27F00DB7
:101AB000B11DAA1F649F6627B00DA11D661F829FDE
:101AC0002227B00DA11D621F739FB00DA11D621FC3
:101AD000839FA00D611D221F749F3327A00D611DE0
:101AE000231F849F600D211D822F762F6A2F1124C2
:101AF0009F5750408AF0E1F088234AF0EE0FFF1F15
:101B0000BB1F661F771F881F91505040A9F79E3F4B
:101B1000510570F05CCFA6CF5F3FECF3983EDCF34D
:101B2000869577956795B795F795E7959F5FC1F788
:101B3000FE2B880F911D9695879597F9089523DFC1
:101B4000880B990B0895A1E21A2EAA1BBB1BFD015D
:101B50000DC0AA1FBB1FEE1FFF1FA217B307E4078C
:101B6000F50720F0A21BB30BE40BF50B661F771FE4
:101B7000881F991F1A9469F76095709580959095C4
:101B80009B01AC01BD01CF0108950E94D20DB7FFAA
:101B90000895821B930B0895EE0FFF1F0590F4919B
:101BA000E02D0994A29FB001B39FC001A39F700DC7
:101BB000811D1124911DB29F700D811D1124911D55
:061BC0000895F894FFCF28
:101BC6000000C2078000000000000000C201DE0124
:101BD6000000EB020000340700000000BA0100001C
:101BE6006F050000000044020000AA030000000088
:101BF6008D000000E5010000A201000000000000C9
:101C0600000001466C6F6F642064657465637465DB
:101C16006421004E6F20666C6F6F64206465746586
:101C2600637465642100466C64202D2000532000F7
:101C3600202D20543A200054656D7020616C657229
:101C46007400546D70202D2000202D20483A20006D
:101C560048756D6420616C65727400486D64202D52
:101C6600200069646C65000400000000BF0455098B
:101C76000D0A006E616E00696E66006F7666002E54
:021C860000005C
:00000001FF
