:100000000C9463000C948B000C948B000C948B006C
:100010000C948B000C948B000C948B000C948B0034
:100020000C948B000C948B000C948B000C948B0024
:100030000C948B000C948B000C94A9040C948B00F2
:100040000C94F0060C948B000C948B000C948B0099
:100050000C948B000C948B000C948B000C948B00F4
:100060000C948B000C948B0000000008000201002F
:100070000003040700000000000000000102040863
:100080001020408001020408102001020408102002
:10009000040404040404040402020202020203032E
:1000A00003030303000000002300260029000000D2
:1000B0000000250028002B0000000000240027007D
:1000C0002A009F029E0411241FBECFEFD8E0DEBF9E
:1000D000CDBF11E0A0E0B1E0E0ECF6E102C0059098
:1000E0000D92A235B107D9F727E0A2E5B1E001C032
:1000F0001D92A235B207E1F710E0C6ECD0E004C0D3
:100100002297FE010E944B0BC23CD107C9F70E9407
:1001100027090C945E0B0C940000CCEDD5E088EE22
:10012000C82E83E0D82EE12CF12C0E943A074B0117
:100130005C018EE00E9482088C3B924024F48FE3A5
:1001400097E00E94E6030E943A0768197909DE01E8
:10015000A61BB70B20ED33E00E94420B61507109E2
:1001600081099109A70196010E94200BC9010196FE
:100170000E949E03DACF08952F923F924F925F9292
:100180006F927F928F929F92AF92BF92CF92DF92A7
:10019000EF92FF920F931F93CF93DF93CDB7DEB70C
:1001A00061970FB6F894DEBF0FBECDBF8C0120E083
:1001B00030E0A901FC0160817181828193810E94FC
:1001C0003709F80124813581468157810E9437091A
:1001D000F80120853185428553850E94370920E04A
:1001E00030E040E450E40E949F092B013C01CE0125
:1001F0000D969E878D87FE0131965F01198B088BC6
:100200001F86212C912C812C312CE889F989619150
:10021000719181919191F98BE88BA30192010E94D8
:1002200036096B017C0120E030E0A9010E949B09A6
:1002300087FF04C0F7FAF094F7F8F094F501C08254
:10024000D182E282F382F501C190D190E190F190E8
:100250005F01222D392D482D532DC701B6010E9473
:10026000B90A18166CF0222D392D482D532DC701CF
:10027000B6010E949B09811108C0F1E0FF8705C00B
:100280002C2C9D2C8E2C3F2C1F868D859E85A81690
:10029000B90609F0BACF9F8591113CC020E030E04B
:1002A00040E050E4622D792D882D932D0E94B90AEB
:1002B00087FD30C0FE0131967F01412C512C320167
:1002C000F70161917191819191917F01222D392DD9
:1002D000482D532D0E949B09882359F0F801208155
:1002E000318142815381C301B2010E9437092B0140
:1002F0003C010C5F1F4F8D859E85E816F90601F7BE
:1003000020E030E040E05FE3C301B2010E94BD0A9B
:100310002B013C01C301B20161960FB6F894DEBF18
:100320000FBECDBFDF91CF911F910F91FF90EF9046
:10033000DF90CF90BF90AF909F908F907F906F9005
:100340005F904F903F902F900895CF93DF93CDB75C
:10035000DEB72C970FB6F894DEBF0FBECDBF0CED05
:1003600015E028EEC22E23E0D22EE12CF12C0E94C3
:100370003A072B013C0199E0A92E97E0B92ECE0156
:1003800001964C0140E060E0C5010E944A06F4017C
:1003900061937193819391934F01F2E1AF0EB11C80
:1003A0008FE3A81687E0B80669F7CE0101960E9490
:1003B000BC0020E030E048ED51E40E94B90A87FD1E
:1003C00004C08FE397E00E94E6030E943A07641995
:1003D0007509D801A61BB70B20ED33E00E94420B34
:1003E0006150710981099109A70196010E94200BB2
:1003F000C90101960E949E03BACFCF93DF93CDB778
:10040000DEB72C970FB6F894DEBF0FBECDBF0CED54
:1004100015E048EEC42E43E0D42EE12CF12C0E94CE
:100420003A072B013C0139E0A32E37E0B32ECE0171
:1004300001964C0160E0C5010E94AA06F401619397
:100440007193819391934F01F2E1AF0EB11C8FE351
:10045000A81687E0B80671F7CE0101960E94BC008D
:1004600020E030E04CE852E40E94B90A87FD04C065
:100470008FE397E00E94E6030E943A07641975092A
:10048000D801A61BB70B20ED33E00E94420B615050
:10049000710981099109A70196010E94200BC901E8
:1004A00001960E949E03BBCFCF92DF92EF92FF9204
:1004B000C82E64E170E089E00E949F08D12CE12CF5
:1004C000F12CC701B6010E94690760E070E089E085
:1004D0000E949F08C701B601FF90EF90DF90CF9078
:1004E0000C94690760E070E08FE397E00E94C60318
:1004F00088EC0E945402FCCF40E855E260E070E0D6
:1005000081E497E00E94750461E089E00E9412088E
:1005100089E097E00E94F8048BE197E00E94F804DC
:100520008DE297E00E94F80482E30E94540282E385
:100530000E94540282E30E9454020C94030426E0B9
:100540004BE06FE089E097E00E94D70426E04BE0A3
:1005500060E18BE197E00E94D70426E04BE061E187
:100560008DE297E00E94D70485E490E09093190112
:100570008093180185EC91E09093230180932201F0
:1005800090932D0180932C01909337018093360135
:1005900008951F93CF93DF9380910C0190910D01EB
:1005A00060910E0170910F0124E634E0132FFC01DD
:1005B000A0E1B1E0A901E617F70780F512821682E3
:1005C000158218962D913C9119972551310916964F
:1005D000CD91DC911797C20FD31FD183C0831296A0
:1005E0002C9112972A8BC081D18113962C9113974D
:1005F000298BC081D18114962C911497288BC081AE
:10060000D18115962C9115972F87C081D1811B8B95
:10061000C081D1814C8B37961A96CDCF809308013B
:100620009093090180930601909307010E9435047D
:100630007894DF91CF911F910895FC0174836383B7
:1006400012821682158220910801309109018217C9
:10065000930720F490930901809308010895CF93A4
:10066000DF93C0910C01D0910D0180910A0190910E
:100670000B01019690930B0180930A018D819E815D
:10068000892BD9F08D819E8101979E838D83892B43
:10069000A1F48A81833041F4EB81FC8180819181D6
:1006A00001969183808304C0823011F41C821B82E6
:1006B0006FEF7FEFCE010E941D03279680910E0100
:1006C00090910F01C817D907C8F2DF91CF91089513
:1006D00060910601709107018091080190910901D4
:1006E0008617970731F090930701809306010C94C9
:1006F00035040895E0910601F09107018283768325
:10070000658380910C0190910D01DC0112962C9172
:10071000211112C090930901809308019093070161
:1007200080930601BF010E943504E0910601F0911B
:1007300007018381948108950796E7CFF894BC015F
:1007400081E00E947A0378940895FC018081918170
:100750001816190694F06F3F2FEF7207A1F001975A
:1007600091838083A0910601B09107011496FC93B8
:10077000EE93139783E00C947A030197918380831F
:1007800080E090E008958FEF9FEF0895F8940E9425
:10079000A50378940895FC01208131812F5F3F4F9C
:1007A000318320831216130684F0E0910C01F0913E
:1007B0000D01238134812817390729F460E070E0A6
:1007C000CF010C941D033796F4CF0895F8940E943E
:1007D000CB030E9468037894089525E58617970750
:1007E00020F4FC012193CF01F9CF089580914301BA
:1007F000882339F0F8940E94CF040E94C90281E056
:10080000089580E00895CF93DF9300D0CDB7DEB791
:1008100080E191E09A838983E981FA8186819781D9
:10082000009751F060857185680F791F0E94ED0374
:1008300089819A810A96EECF20914E0730914F0719
:100840002115310529F4809102019091030101C025
:10085000C901BE016F5071090E94ED030E94F603A9
:100860000F900F90DF91CF9108952F923F924F926A
:100870005F926F927F928F929F92AF92BF92CF9230
:10088000DF92EF92FF920F931F93CF93DF93FB01C1
:100890000DB600820EB60182FC0100800DBE018003
:1008A0000EBEDF91CF911F910F91FF90EF90DF90DF
:1008B000CF90BF90AF909F908F907F906F905F9000
:1008C0004F903F902F9008957894C201F1010995BF
:1008D0008091C10085FDFCCF8091C00085FFF8CFDD
:1008E0006093C60081E090E008959A01AB01211564
:1008F00081EE38074105510599F082E08093C000F0
:1009000060E079E08DE390E00E94200B21503109F6
:10091000410951095695479537952795C90104C056
:100920001092C00080E190E09093C5008093C400D5
:100930008091C10088618093C1000895109244079E
:10094000109243078DE491E0909342078093410712
:1009500008951F920F920FB60F9211242F933F9379
:100960004F935F936F937F938F939F93AF93BF93B7
:10097000EF93FF930E942F030E946803FF91EF9172
:10098000BF91AF919F918F917F916F915F914F91A7
:100990003F912F910F900FBE0F901F90189580E8F8
:1009A00087BDEEE6F0E08081826080830895DC01FF
:1009B00015966C93159716964C93169770E0FB015D
:1009C000E458FF4FE4911796EC931797FB01E0571B
:1009D000FF4F649118966C93189740E85EE360E0CF
:1009E00070E01D964D935D936D937C9350970895A1
:1009F000CF93DF93EC0162E08D810E94120840E307
:100A000058EF6FEF7FEF49875A876B877C87DF91BD
:100A1000CF910895AF92BF92CF92DF92EF92FF9263
:100A20000F931F93CF93DF93EC01AF80662311F0F8
:100A3000BA2C01C0B12CA885B0E0AA0FBB1FAC55E1
:100A4000BF4F40E050E0BA01FD0185919491FC0157
:100A500080818A218B1112C08A019B010F5F1F4F79
:100A60002F4F3F4FCD84DE84EF84F8884C155D0511
:100A70006E057F0538F4B901A801E6CF342F252F84
:100A8000CB0104C030E020E080E090E0632F722FC3
:100A9000DF91CF911F910F91FF90EF90DF90CF905A
:100AA000BF90AF900895CF92DF92EF92FF920F9395
:100AB0001F93CF93DF93CDB7DEB7C054D1400FB6AD
:100AC000F894DEBF0FBECDBF8C01F62E0E943A0710
:100AD000F11016C0F801C184D284E384F4849B0130
:100AE000AC012C193D094E095F0969017A0130ED0D
:100AF000C31637E0D306E104F10410F48189BAC0CB
:100B0000F801618772878387948714821382128227
:100B10001182108261E085810E944B086AEF70E0CB
:100B200080E090E00E94690761E0F80185810E9401
:100B3000120860E0F80185810E944B0864E170E0D2
:100B400080E090E00E946907F89461E0F8018581F7
:100B50000E944B0888E290E00E94A30762E0F8013F
:100B600085810E9412088AE090E00E94A30760E05D
:100B7000C8010E940A05672B682B692B41F061E0D0
:100B8000C8010E940A05672B682B692B21F4F80124
:100B9000118A78946EC06E01FFEBCF1AFEEFDF0A68
:100BA0009E012F5F3F4F790160E0C8010E940A0556
:100BB000F701608371838283938361E0C8010E949F
:100BC0000A05F7016483758386839783F8E0EF0E47
:100BD000F11CEC14FD0441F778949E012F5F3F4F08
:100BE000790120E030E0F701408151816281738119
:100BF00084819581A681B7814115510561057105F3
:100C0000B1F10097A105B10591F1F901F595E795CD
:100C1000F595E795F595E795E00FF11FD080DD0C90
:100C2000481759076A077B0710F0D08203C08D2D43
:100C3000816080832F5F3F4FF8E0EF0EF11C283278
:100C4000310589F6F801248130E04081818190E00E
:100C5000840F911D4281840F911D4381840F911D4A
:100C600099272817390719F481E0818B03C0F8010F
:100C7000118A80E0C05CDE4F0FB6F894DEBF0FBE75
:100C8000CDBFDF91CF911F910F91FF90EF90DF903B
:100C9000CF900895CF92DF92EF92FF920F931F9320
:100CA000CF93DF93EC01162F642F0E945305882306
:100CB00009F443C08E818B3031F008F43EC0855179
:100CC000823040F03AC06A8170E080E090E00E949B
:100CD000070A24C00A81602F6F7770E080E090E0FF
:100CE0000E94090A20E030E040E853E40E94BD0A77
:100CF0006B017C016B8170E080E090E00E94090A4A
:100D00009B01AC01C701B6010E9437092DEC3CECF8
:100D10004CEC5DE30E94BD0A07FD9058112389F059
:100D200026E636E646EE5FE30E94BD0A20E030E0AC
:100D300040E052E40E94370904C060E070E080ECBB
:100D40009FE7DF91CF911F910F91FF90EF90DF9080
:100D5000CF900895CF92DF92EF92FF92CF93DF93DF
:100D6000EC0160E00E945305882379F18E818B307D
:100D700029F158F18551823040F5688170E080E0BA
:100D800090E00E94070A20E030E040E853E40E942F
:100D9000BD0A6B017C01698170E080E090E00E94F7
:100DA000090A9B01AC01C701B6010E9437092DEC6D
:100DB0003CEC4CEC5DE30E94BD0A0BC0688170E026
:100DC00080E090E00E94070A04C060E070E080ECE0
:100DD0009FE7DF91CF91FF90EF90DF90CF90089544
:100DE0001F920F920FB60F9211242F933F938F9360
:100DF0009F93AF93BF938091460790914707A0912F
:100E00004807B09149073091450723E0230F2D375C
:100E100020F40196A11DB11D05C026E8230F0296FE
:100E2000A11DB11D20934507809346079093470766
:100E3000A0934807B093490780914A0790914B07C8
:100E4000A0914C07B0914D070196A11DB11D809353
:100E50004A0790934B07A0934C07B0934D07BF915F
:100E6000AF919F918F913F912F910F900FBE0F9057
:100E70001F9018952FB7F894609146077091470717
:100E800080914807909149072FBF08953FB7F89484
:100E900080914A0790914B07A0914C07B0914D0764
:100EA00026B5A89B05C02F3F19F00196A11DB11DC5
:100EB0003FBF6627782F892F9A2F620F711D811DE2
:100EC000911D42E0660F771F881F991F4A95D1F741
:100ED00008958F929F92AF92BF92CF92DF92EF923E
:100EE000FF926B017C010E9446074B015C01C1141B
:100EF000D104E104F104F1F00E9481080E94460748
:100F0000681979098A099B09683E73408105910532
:100F100070F321E0C21AD108E108F10888EE880ECA
:100F200083E0981EA11CB11CC114D104E104F1049A
:100F300029F7DDCFFF90EF90DF90CF90BF90AF907B
:100F40009F908F9008958230910538F0880F991FF7
:100F5000880F991F05970197F1F70895789484B544
:100F6000826084BD84B5816084BD85B5826085BDA5
:100F700085B5816085BDEEE6F0E08081816080838B
:100F8000E1E8F0E01082808182608083808181606E
:100F90008083E0E8F0E0808181608083E1EBF0E035
:100FA000808184608083E0EBF0E0808181608083D9
:100FB000EAE7F0E0808184608083808182608083C2
:100FC0008081816080838081806880831092C100ED
:100FD0000895833081F028F4813099F08230A1F0B7
:100FE00008958730A9F08830B9F08430D1F4809129
:100FF00080008F7D03C0809180008F778093800078
:10100000089584B58F7702C084B58F7D84BD08951F
:101010008091B0008F7703C08091B0008F7D809366
:10102000B0000895CF93DF9390E0FC01E458FF4FA8
:101030002491FC01E057FF4F8491882349F190E00F
:10104000880F991FFC01E854FF4FA591B491825578
:101050009F4FFC01C591D4919FB7611108C0F894CE
:101060008C91209582238C93888182230AC06230E0
:1010700051F4F8948C91322F309583238C9388818E
:10108000822B888304C0F8948C91822B8C939FBF11
:10109000DF91CF9108950F931F93CF93DF931F920A
:1010A000CDB7DEB7282F30E0F901E859FF4F849122
:1010B000F901E458FF4F1491F901E057FF4F0491F3
:1010C0000023C9F0882321F069830E94E907698120
:1010D000E02FF0E0EE0FFF1FE255FF4FA591B49116
:1010E0009FB7F8948C91611103C01095812301C0C2
:1010F000812B8C939FBF0F90DF91CF911F910F9108
:10110000089508958E3008F08E5087702091420126
:1011100090E4299F90011124822B80937C00809180
:101120007A00806480937A0080917A0086FDFCCFFB
:10113000809178002091790090E0922B08951F9380
:10114000CF93DF93182FEB0161E00E9412082097E4
:1011500011F460E004C0CF3FD10539F461E0812F84
:10116000DF91CF911F910C944B08E12FF0E0E859EB
:10117000FF4FE491E330F9F048F4E130B9F0E230A8
:10118000A1F584B5806284BDC8BD34C0E730E9F004
:10119000E83019F1E43049F5809180008062809355
:1011A0008000D0938B00C0938A0024C084B58068EF
:1011B00084BDC7BD1FC0809180008068809380007F
:1011C000D0938900C093880015C08091B0008068DA
:1011D0008093B000C093B3000DC08091B0008062D6
:1011E0008093B000C093B40005C0C038D1050CF0A6
:1011F000B5CFAFCFDF91CF911F910895CF92DF92FE
:10120000EF92FF920F931F93CF93DF937C016A01BC
:10121000EB0100E010E00C151D0571F06991D7019C
:10122000ED91FC910190F081E02DC7010995892B8A
:1012300019F00F5F1F4FEFCFC801DF91CF911F91C2
:101240000F91FF90EF90DF90CF90089508950E9446
:10125000AE070E9426090E947C02C0E0D0E00E94F6
:10126000BB002097E1F30E940000F9CF5058BB2744
:10127000AA270ED044C135D130F03AD120F031F454
:101280009F3F11F41EF42AC10EF4E095E7FB20C144
:10129000E92F46D180F3BA176207730784079507D1
:1012A00018F071F49EF55EC10EF4E0950B2EBA2F86
:1012B000A02D0B01B90190010C01CA01A00111245C
:1012C000FF27591B99F0593F50F4503E68F11A1608
:1012D000F040A22F232F342F4427585FF3CF469599
:1012E00037952795A795F0405395C9F77EF41F16BB
:1012F000BA0B620B730B840BBAF09150A1F0FF0F85
:10130000BB1F661F771F881FC2F70EC0BA0F621F70
:10131000731F841F48F4879577956795B795F79560
:101320009E3F08F0B3CF9395880F08F09927EE0FF2
:10133000979587950895A8D008F481E008950CD07A
:10134000DEC0D6D040F0CDD030F021F45F3F19F0B0
:10135000BFC0511108C1C2C0E3D098F39923C9F3AB
:101360005523B1F3951B550BBB27AA2762177307AB
:10137000840738F09F5F5F4F220F331F441FAA1F5F
:10138000A9F333D00E2E3AF0E0E830D0915050401F
:10139000E695001CCAF729D0FE2F27D0660F771FCD
:1013A000881FBB1F261737074807AB07B0E809F0AF
:1013B000BB0B802DBF01FF2793585F4F2AF09E3F44
:1013C000510568F085C0CFC05F3FECF3983EDCF379
:1013D000869577956795B795F7959F5FC9F7880FBD
:1013E000911D9695879597F90895E1E0660F771F0F
:1013F000881FBB1F621773078407BA0720F0621BA0
:10140000730B840BBA0BEE1F88F7E0950895E894F0
:1014100009C097FB3EF490958095709561957F4F3C
:101420008F4F9F4F9923A9F0F92F96E9BB279395EA
:10143000F695879577956795B795F111F8CFFAF4FA
:10144000BB0F11F460FF1BC06F5F7F4F8F4F9F4F2B
:1014500016C0882311F096E911C0772321F09EE889
:10146000872F762F05C0662371F096E8862F70E0EF
:1014700060E02AF09A95660F771F881FDAF7880FC9
:101480009695879597F90895990F0008550FAA0B1F
:10149000E0E8FEEF16161706E807F907C0F0121687
:1014A0001306E407F50798F0621B730B840B950B8A
:1014B00039F40A2661F0232B242B252B21F40895DF
:1014C0000A2609F4A140A6958FEF811D811D08957C
:1014D00097F99F6780E870E060E008959FEF80ECE7
:1014E000089500240A94161617061806090608958A
:1014F00000240A9412161306140605060895092EF0
:101500000394000C11F4882352F0BB0F40F4BF2B5E
:1015100011F460FF04C06F5F7F4F8F4F9F4F08959E
:1015200057FD9058440F551F59F05F3F71F0479594
:10153000880F97FB991F61F09F3F79F08795089579
:10154000121613061406551FF2CF4695F1DF08C098
:10155000161617061806991FF1CF869571056105B5
:1015600008940895E894BB2766277727CB0197F95D
:1015700008958ADF08F48FEF08950BD0C0CFB1DF54
:1015800028F0B6DF18F0952309F0A2CFA7CF1124D9
:10159000EACFC6DFA0F3959FD1F3950F50E0551F1A
:1015A000629FF001729FBB27F00DB11D639FAA27B8
:1015B000F00DB11DAA1F649F6627B00DA11D661F07
:1015C000829F2227B00DA11D621F739FB00DA11D28
:1015D000621F839FA00D611D221F749F3327A00DE2
:1015E000611D231F849F600D211D822F762F6A2F7E
:1015F00011249F5750408AF0E1F088234AF0EE0F03
:10160000FF1FBB1F661F771F881F91505040A9F70F
:101610009E3F510570F05CCFA6CF5F3FECF3983E44
:10162000DCF3869577956795B795F795E7959F5F76
:10163000C1F7FE2B880F911D9695879597F9089510
:10164000A1E21A2EAA1BBB1BFD010DC0AA1FBB1FC6
:10165000EE1FFF1FA217B307E407F50720F0A21B38
:10166000B30BE40BF50B661F771F881F991F1A94A5
:1016700069F760957095809590959B01AC01BD01CF
:10168000CF0108950E944F0BB7FF0895821B930B63
:101690000895EE0FFF1F0590F491E02D0994A29F8D
:1016A000B001B39FC001A39F700D811D1124911D36
:1016B000B29F700D811D1124911D0895F894FFCFE4
:1016C00000005207800000000000000052016E017F
:1016D000000072020000C40600000000A501000026
:1016E000FF0400000000FD0100003A0300000000BC
:1016F0008D000000750100004401000000000000A2
:101700000000010469646C6500000000006804FECC
:021710000800CF
:00000001FF
