:100000000C9463000C948B000C948B000C948B006C
:100010000C948B000C948B000C948B000C948B0034
:100020000C948B000C948B000C948B000C948B0024
:100030000C948B000C948B000C948B000C948B0014
:100040000C94C5030C948B000C9475070C94C70793
:100050000C948B000C948B000C948B000C948B00F4
:100060000C948B000C948B000000000024002700EF
:100070002A0000000000250028002B0000000000DE
:1000800023002600290004040404040404040202DA
:100090000202020203030303030301020408102007
:1000A0004080010204081020010204081020000012
:1000B0000007000201000003040600000000000029
:1000C00000008D00360911241FBECFEFD8E0DEBF3F
:1000D000CDBF11E0A0E0B1E0E6E3F8E102C0059099
:1000E0000D92A235B107D9F712E0A2E5B1E001C047
:1000F0001D92A932B107E1F710E0C6ECD0E004C0D0
:100100002297FE010E94150CC23CD107C9F70E943C
:1001100063070C94190C0C94000082E591E06FE0E9
:100120004BE026E00E94450184E691E060E14BE06F
:1001300026E00E94450108952F923F924F925F92D0
:100140006F927F928F929F92AF92BF92CF92DF92E7
:10015000EF92FF920F931F93DF93CF9300D000D0C5
:10016000CDB7DEB702E511E0C80160E00E940C03E4
:100170006B017C01C80160E040E00E945E033B012E
:100180004C0104E611E0C80160E00E940C031B0171
:100190002C01C80160E040E00E945E0369837A831D
:1001A0008B839C8307E012E0C80160E071E00E944D
:1001B00065069CE0A92E91E0B92EC801B5010E9408
:1001C0006506C801B701A60122E030E00E944C0795
:1001D00087E1E82E81E0F82EC801B7010E9465068C
:1001E000C801B401A30122E030E00E944F07C8011A
:1001F00068E271E00E946506C801B5010E946506CB
:10020000C801B201A10122E030E00E944C07C80100
:10021000B7010E946506C80149815A816B817C81C2
:1002200022E030E00E944F07C8010E94760560ED91
:1002300077E080E090E00E941B040F900F900F90F9
:100240000F90CF91DF911F910F91FF90EF90DF9072
:10025000CF90BF90AF909F908F907F906F905F9066
:100260004F903F902F90089587E092E040E855E24C
:1002700060E070E00E94020882E591E00E94660161
:1002800084E691E00E94660108959C01DC011596C8
:100290006C93159716964C931697862F90E0FC0159
:1002A000E656FF4FE4911796EC9317978A579F4FA6
:1002B000FC01649118966C9380E89EE3A0E0B0E0A6
:1002C000F90185879687A787B08B08950F931F93B1
:1002D0008C01FC01858162E00E94B90480E398EF03
:1002E000AFEFBFEFF80181879287A387B4871F9193
:1002F0000F9108952F923F924F925F926F927F924B
:100300008F929F92AF92BF92CF92DF92EF92FF9225
:100310000F931F93DF93CF93CDB7DEB7C254D14075
:100320000FB6F894DEBF0FBECDBF6C01162F0E9432
:100330000D049B01AC011123A1F4F6018185928586
:10034000A385B48579018A01E81AF90A0A0B1B0B07
:10035000D801C701805D9740A040B04010F481896A
:1003600041C1F60121873287438754871482138263
:10037000128211821082858161E00E94F8046AEF86
:1003800070E080E090E00E941B04F601858161E04E
:100390000E94B904F601858160E00E94F80464E1DE
:1003A00070E080E090E00E941B04F894F6018581E3
:1003B00061E00E94F80488E290E00E947404F60173
:1003C000858162E00E94B9048AE090E00E94740492
:1003D000F6018085682F70E0660F771F64587F4FA5
:1003E000F7806F2C772420E030E040E050E0FB0104
:1003F000059114910EC0F60185859685A785B08973
:10040000281739074A075B07A8F52F5F3F4F4F4F63
:100410005F4FF801808190E086219721892B59F365
:10042000211531054105510529F120E030E040E07A
:1004300050E0FB01059114914F2C55240EC0F6019C
:1004400085859685A785B089281739074A075B07F0
:1004500088F42F5F3F4F4F4F5F4FF801808190E04E
:10046000862197218415950551F321153105410504
:100470005105C1F4F601118A7894B3C0F60185855F
:100480009685A785B089E816F9060A071B0720F0AC
:10049000EE24FF24870124C00894E11CF11C011DF7
:1004A000111D17C04E010894811C911C5401FB01C1
:1004B00025903490FB01659174918E010F5B1E4F66
:1004C000CF5BDE4F19830883C154D140EE24FF2453
:1004D0008701F101808190E086219721892B71F2BB
:1004E00020E030E040E050E013C0F60185859685BD
:1004F000A785B089281739074A075B0728F020E04D
:1005000030E040E050E00CC02F5F3F4F4F4F5F4F57
:10051000FB01808190E0862197218415950529F3C0
:10052000F501E082F18202831383248335834683BD
:100530005783B8E0EB2EF12CAE0CBF1CCF5BDE4F27
:1005400008811981C154D140A016B10609F0BECF6F
:10055000789460E070E0F401E080F1800281138122
:100560002481358146815781E114F104010511058B
:10057000B1F1211531054105510589F1FB01A3E0D8
:10058000F595E795AA95E1F7EC0DFD1D8081880FA3
:100590008083E216F3060407150710F48160808358
:1005A0006F5F7F4F98E0E92EF12C8E0C9F1C683214
:1005B000710589F6F601448150E02181808190E047
:1005C000820F911D2281820F911D2381820F911D27
:1005D00090704817590719F481E0818B03C0F60128
:1005E000118A80E0CE5BDE4F0FB6F894DEBF0FBEFF
:1005F000CDBFCF91DF911F910F91FF90EF90DF90D2
:10060000CF90BF90AF909F908F907F906F905F90B2
:100610004F903F902F900895EF92FF920F931F936A
:10062000CF93DF93EC0160E00E947A018823A9F167
:100630008E818B3031F08B3080F18551823068F5BE
:1006400007C0688170E080E090E00E948E0A22C0BE
:10065000688170E080E090E00E948E0A20E030E047
:1006600040E853E40E94440B7B018C01698170E0F7
:10067000882777FD8095982F0E94900A9B01AC01F6
:10068000C801B7010E948D092DEC3CEC4CEC5DE3F8
:100690000E94440BE62F692F04C0E0E070E080EC7C
:1006A0006FE72E2F372F482F562FB901CA01DF9140
:1006B000CF911F910F91FF90EF900895CF92DF920D
:1006C000EF92FF920F931F93CF93DF93EC01C62E0F
:1006D000642F0E947A01882309F44AC08E818B30EE
:1006E00041F08B3008F444C08551823008F040C09E
:1006F00007C06A8170E080E090E00E948E0A29C005
:10070000DA806D2D70E06F777070882777FD8095A7
:10071000982F0E94900A20E030E040E853E40E94C5
:10072000440B7B018C016B8170E0882777FD8095FD
:10073000982F0E94900A9B01AC01C801B7010E944A
:100740008D092DEC3CEC4CEC5DE30E94440BD7FC96
:100750009058CC2089F026E636E646EE5FE30E940C
:10076000440B20E030E040E052E40E948D0904C0D8
:1007700060E070E080EC9FE7DF91CF911F910F91D7
:10078000FF90EF90DF90CF9008951F920F920FB6D9
:100790000F9211242F933F938F939F93AF93BF9307
:1007A00080917A0190917B01A0917C01B0917D01B3
:1007B00030917E010196A11DB11D232F2D5F2D3794
:1007C00020F02D570196A11DB11D20937E0180932D
:1007D0007A0190937B01A0937C01B0937D0180917D
:1007E000760190917701A0917801B09179010196FD
:1007F000A11DB11D8093760190937701A09378019C
:10080000B0937901BF91AF919F918F913F912F91BB
:100810000F900FBE0F901F9018958FB7F8942091EE
:100820007A0130917B0140917C0150917D018FBF15
:10083000B901CA0108959B01AC017FB7F89480917A
:10084000760190917701A0917801B091790166B518
:10085000A89B05C06F3F19F00196A11DB11D7FBF78
:10086000BA2FA92F982F8827860F911DA11DB11D82
:1008700062E0880F991FAA1FBB1F6A95D1F7BC01C0
:100880002DC0FFB7F8948091760190917701A091E7
:100890007801B0917901E6B5A89B05C0EF3F19F04A
:1008A0000196A11DB11DFFBFBA2FA92F982F882730
:1008B0008E0F911DA11DB11DE2E0880F991FAA1F87
:1008C000BB1FEA95D1F7861B970B885E9340C8F251
:1008D000215030404040504068517C4F2115310537
:1008E0004105510571F60895019739F0880F991F58
:1008F000880F991F02970197F1F70895789484B5AE
:10090000826084BD84B5816084BD85B5826085BD0B
:1009100085B5816085BDEEE6F0E0808181608083F1
:10092000E1E8F0E0108280818260808380818160D4
:100930008083E0E8F0E0808181608083E1EBF0E09B
:10094000808184608083E0EBF0E08081816080833F
:10095000EAE7F0E080818460808380818260808328
:100960008081816080838081806880831092C10053
:100970000895CF93DF93482F50E0CA0186569F4FCA
:10098000FC0134914A575F4FFA018491882369F141
:1009900090E0880F991FFC01E859FF4FA591B49191
:1009A000FC01EE58FF4FC591D491662351F42FB747
:1009B000F8948C91932F909589238C938881892327
:1009C0000BC0623061F42FB7F8948C91932F9095FF
:1009D00089238C938881832B88832FBF06C09FB780
:1009E000F8948C91832B8C939FBFDF91CF910895C6
:1009F000482F50E0CA0182559F4FFC012491CA0143
:100A000086569F4FFC0194914A575F4FFA013491EB
:100A1000332309F440C0222351F1233071F02430F4
:100A200028F42130A1F0223011F514C02630B1F0A5
:100A30002730C1F02430D9F404C0809180008F7732
:100A400003C0809180008F7D8093800010C084B5AA
:100A50008F7702C084B58F7D84BD09C08091B000BE
:100A60008F7703C08091B0008F7D8093B000E32F1B
:100A7000F0E0EE0FFF1FEE58FF4FA591B4912FB796
:100A8000F894662321F48C919095892302C08C916F
:100A9000892B8C932FBF0895CF92DF92EF92FF9214
:100AA0000F931F93CF93DF937C016B018A01C0E00A
:100AB000D0E00FC0D6016D916D01D701ED91FC9191
:100AC0000190F081E02DC7010995C80FD91F015091
:100AD00010400115110571F7CE01DF91CF911F91E3
:100AE0000F91FF90EF90DF90CF900895EF92FF92DB
:100AF0000F931F938C01DC01ED91FC910190F0812B
:100B0000E02D6DE009957C01D801ED91FC910190FB
:100B1000F081E02DC8016AE009959C012E0D3F1D72
:100B2000C9011F910F91FF90EF900895CF93DF932C
:100B3000EC016115710519F420E030E00FC0DB0114
:100B40000D900020E9F71197A61BB70BE881F981FA
:100B50000280F381E02DAD0109959C01C901DF916F
:100B6000CF9108954F925F927F928F929F92AF9212
:100B7000BF92CF92DF92EF92FF920F931F93DF937A
:100B8000CF93CDB7DEB7A1970FB6F894DEBF0FBEF7
:100B9000CDBF2C01742ECB01223008F42AE019A21B
:100BA00031E2C32ED12CCC0EDD1E822E9924AA2434
:100BB000BB24672D752FA50194010E94DD0B7901DF
:100BC0008A01C801B701A50194010E94AB0B472D12
:100BD000461B0894C108D1084A3014F4405D01C096
:100BE000495CF6014083E114F1040105110521F08F
:100BF0007E2C5F2DC801DDCFC201B6010E94960593
:100C0000A1960FB6F894DEBF0FBECDBFCF91DF9196
:100C10001F910F91FF90EF90DF90CF90BF90AF901A
:100C20009F908F907F905F904F900895DC012115E9
:100C3000310541F4ED91FC910190F081E02D642F9C
:100C4000099508950E94B2050895CF92DF92EF9220
:100C5000FF920F931F93CF93DF93EC016A017B0107
:100C60002115310541F4E881F9810190F081E02DF1
:100C7000642F09951FC02A303105D1F477FF17C0C2
:100C8000E881F9810190F081E02D6DE209958C01F8
:100C900044275527BA014C195D096E097F09CE0119
:100CA0002AE00E94B2059801280F391F04C02AE0EB
:100CB0000E94B2059C01C901DF91CF911F910F9154
:100CC000FF90EF90DF90CF9008950E9496050895D1
:100CD0007F928F929F92AF92BF92CF92DF92EF92CC
:100CE000FF920F931F93CF93DF934C017A018B01F7
:100CF000722ECB01BA01A80197010E94A70B88238D
:100D000021F0C40164E371E021C0C0E0D0E05701EC
:100D10006801E894D7F8C601B5012FEF3FEF4FE720
:100D20005FE70E94A70B882351F4C601B5012FEF9E
:100D30003FEF4FE75FE70E94F109181614F0C1E09A
:100D4000D0E0219739F0C40168E371E00E94960574
:100D5000EC0193C0C801B7012FEF3FEF4FE75FE40D
:100D60000E94400B181654F0C801B7012FEF3FEF57
:100D70004FE75FEC0E94F109882324F4C4016CE37F
:100D800071E0E4CFC801B70120E030E040E050E07E
:100D90000E94F10987FD03C0C0E0D0E00EC0D4017D
:100DA000ED91FC910190F081E02DC4016DE2099577
:100DB000EC0117FB109517F9109520E030E040E0AA
:100DC0005FE3DD240BC0CA01B90120E030E040E25E
:100DD00051E40E94F5099B01AC01D394D71498F318
:100DE000C801B7010E948D095B016C010E94620A73
:100DF0007B018C01C401B801A7012AE030E00E9408
:100E00001606C80FD91F772039F0C40160E471E0DD
:100E10000E949605C80FD91FC801B7010E948E0A0B
:100E20009B01AC01C601B5010E948C0924C020E0E1
:100E300030E040E251E40E94440B7B018C010E94AF
:100E40005D0A5B016C01CC24B7FCC094DC2CC401AE
:100E5000B601A5012AE030E00E942506C80FD91F7F
:100E6000C601B5010E94900A9B01AC01C801B701FF
:100E70000E948C097A947720D1F6CE01DF91CF9130
:100E80001F910F91FF90EF90DF90CF90BF90AF90A8
:100E90009F908F907F9008950E9468060895EF922A
:100EA000FF920F931F937C010E9468068C01C7017B
:100EB0000E947605080F191FC8011F910F91FF901E
:100EC000EF9008950895CF93DF930E947E040E94CF
:100ED00062070E943401C0EBD7E00E949C0020977B
:100EE000E1F30E94B007F9CF08951F920F920FB659
:100EF0000F9211242F933F934F938F939F93EF93D0
:100F0000FF938091C00082FD1DC04091C6002091DA
:100F1000BF013091C0012F5F3F4F2F733070809120
:100F2000C1019091C2012817390771F0E091BF010A
:100F3000F091C001E158FE4F40833093C0012093EF
:100F4000BF0102C08091C600FF91EF919F918F91E8
:100F50004F913F912F910F900FBE0F901F901895BA
:100F6000E0911302F0911402E05CFF4F81919191A6
:100F700020813181805C9F4F821B930B60E470E085
:100F80000E94CA0B892B11F00E94740708951F92CA
:100F90000F920FB60F9211242F933F938F939F932D
:100FA000EF93FF9320910302309104028091050298
:100FB000909106022817390731F48091C1008F7D86
:100FC0008093C10014C0E0910502F0910602ED5338
:100FD000FE4F2081809105029091060201968F7349
:100FE000907090930602809305022093C600FF91B3
:100FF000EF919F918F913F912F910F900FBE0F9086
:101000001F901895AF92BF92DF92EF92FF920F93CD
:101010001F93CF93DF93EC017A018B01DD244030E5
:1010200081EE580780E0680780E0780711F0DD2442
:10103000D39491E0A92EB12CEC89FD89DD2069F0D3
:10104000C50108A002C0880F991F0A94E2F78083A7
:1010500060E079E08DE390E005C0108260E874E81C
:101060008EE190E0A80197010E94DD0B21503040F5
:1010700040405040569547953795279580E1203060
:10108000380720F0DD2011F0DD24D6CFE889F9897A
:101090003083EA89FB89208319A2EE89FF89408188
:1010A00021E030E0C9010C8C02C0880F991F0A941E
:1010B000E2F7482B4083EE89FF894081C9010D8CFE
:1010C00002C0880F991F0A94E2F7482B4083EE89EB
:1010D000FF894081C9010E8C02C0880F991F0A94B4
:1010E000E2F7482B4083EE89FF8980810F8C02C094
:1010F000220F331F0A94E2F7209528232083DF91E3
:10110000CF911F910F91FF90EF90DF90BF90AF9024
:101110000895DC011C96ED91FC911D97E05CFF4F5A
:101120008191919120813181805C9F4F821B930B33
:1011300060E470E00E94CA0B0895DC011C96ED91FA
:10114000FC911D97E05CFF4F20813181E054F0401D
:10115000DF01AE5BBF4F8D919C9111972817390726
:1011600019F42FEF3FEF07C08D919C91E80FF91F05
:101170008081282F30E0C9010895DC011C96ED9193
:10118000FC911D97E05CFF4F20813181E054F040DD
:10119000DF01AE5BBF4F8D919C91119728173907E6
:1011A00019F42FEF3FEF10C08D919C911197E80F2C
:1011B000F91F20818D919C91119701968F739070EA
:1011C00011969C938E9330E0C9010895DC019196AD
:1011D0008C919197882339F05496ED91FC91559715
:1011E000808186FFF9CF91961C920895CF93DF936B
:1011F000EC01EE85FF85E05CFF4F20813181E054FA
:10120000F0402F5F3F4F2F733070DF01AE5BBF4F59
:101210008D919C91119728173907D1F3E05CFF4F0E
:1012200080819181E054F040E80FF91F6083EE85E2
:10123000FF85E05CFF4F31832083EE89FF892081A9
:1012400081E090E00F8C02C0880F991F0A94E2F7AA
:10125000282B208381E089A3EC89FD89808180642B
:10126000808381E090E0DF91CF91089510920A028F
:101270001092090288EE93E0A0E0B0E080930B02A8
:1012800090930C02A0930D02B0930E0286E491E0BD
:1012900090930802809307028FE791E090931402E5
:1012A0008093130283EC91E09093160280931502D1
:1012B00085EC90E0909318028093170284EC90E004
:1012C00090931A028093190280EC90E090931C0294
:1012D00080931B0281EC90E090931E0280931D028C
:1012E00082EC90E09093200280931F0286EC90E0C5
:1012F000909322028093210284E08093230283E072
:101300008093240287E08093250285E08093260263
:1013100081E08093270208955058BB27AA270ED05A
:1013200075C166D130F06BD120F031F49F3F11F4DC
:101330001EF45BC10EF4E095E7FB51C1E92F77D1B4
:1013400080F3BA17620773078407950718F071F4E2
:101350009EF58FC10EF4E0950B2EBA2FA02D0B0138
:10136000B90190010C01CA01A0011124FF27591BEA
:1013700099F0593F50F4503E68F11A16F040A22FF0
:10138000232F342F4427585FF3CF46953795279561
:10139000A795F0405395C9F77EF41F16BA0B620B60
:1013A000730B840BBAF09150A1F0FF0FBB1F661FA7
:1013B000771F881FC2F70EC0BA0F621F731F841FEA
:1013C00048F4879577956795B795F7959E3F08F010
:1013D000B3CF9395880F08F09927EE0F97958795CF
:1013E0000895D9D008F481E008950CD00FC107D139
:1013F00040F0FED030F021F45F3F19F0F0C0511101
:1014000039C1F3C014D198F39923C9F35523B1F32B
:10141000951B550BBB27AA2762177307840738F063
:101420009F5F5F4F220F331F441FAA1FA9F333D0C2
:101430000E2E3AF0E0E830D091505040E695001C76
:10144000CAF729D0FE2F27D0660F771F881FBB1F32
:10145000261737074807AB07B0E809F0BB0B802D0C
:10146000BF01FF2793585F4F2AF09E3F510568F058
:10147000B6C000C15F3FECF3983EDCF386957795EC
:101480006795B795F7959F5FC9F7880F911D96955A
:10149000879597F90895E1E0660F771F881FBB1FB6
:1014A000621773078407BA0720F0621B730B840B63
:1014B000BA0BEE1F88F7E095089504D06894B11137
:1014C000D9C00895BCD088F09F5790F0B92F9927C4
:1014D000B751A0F0D1F0660F771F881F991F1AF03F
:1014E000BA95C9F712C0B13081F0C3D0B1E0089508
:1014F000C0C0672F782F8827B85F39F0B93FCCF389
:10150000869577956795B395D9F73EF49095809534
:10151000709561957F4F8F4F9F4F0895E89409C054
:1015200097FB3EF490958095709561957F4F8F4F16
:101530009F4F9923A9F0F92F96E9BB279395F6952C
:10154000879577956795B795F111F8CFFAF4BB0FAA
:1015500011F460FF1BC06F5F7F4F8F4F9F4F16C00E
:10156000882311F096E911C0772321F09EE8872F98
:10157000762F05C0662371F096E8862F70E060E054
:101580002AF09A95660F771F881FDAF7880F9695CD
:10159000879597F90895990F0008550FAA0BE0E871
:1015A000FEEF16161706E807F907C0F01216130625
:1015B000E407F50798F0621B730B840B950B39F465
:1015C0000A2661F0232B242B252B21F408950A26CB
:1015D00009F4A140A6958FEF811D811D089597F90B
:1015E0009F6780E870E060E008959FEF80EC0895C9
:1015F00000240A94161617061806090608950024F2
:101600000A9412161306140605060895092E03946B
:10161000000C11F4882352F0BB0F40F4BF2B11F4DF
:1016200060FF04C06F5F7F4F8F4F9F4F089557FD3E
:101630009058440F551F59F05F3F71F04795880F40
:1016400097FB991F61F09F3F79F0879508951216D7
:1016500013061406551FF2CF4695F1DF08C0161683
:1016600017061806991FF1CF869571056105089434
:101670000895E894BB2766277727CB0197F908954B
:101680008ADF08F48FEF08950BD0C0CFB1DF28F0C8
:10169000B6DF18F0952309F0A2CFA7CF1124EACF27
:1016A000C6DFA0F3959FD1F3950F50E0551F629FC1
:1016B000F001729FBB27F00DB11D639FAA27F00DAB
:1016C000B11DAA1F649F6627B00DA11D661F829FD2
:1016D0002227B00DA11D621F739FB00DA11D621FB7
:1016E000839FA00D611D221F749F3327A00D611DD4
:1016F000231F849F600D211D822F762F6A2F1124B6
:101700009F5750408AF0E1F088234AF0EE0FFF1F08
:10171000BB1F661F771F881F91505040A9F79E3F3F
:10172000510570F05CCFA6CF5F3FECF3983EDCF341
:10173000869577956795B795F795E7959F5FC1F77C
:10174000FE2B880F911D9695879597F9089523DFB5
:10175000880B990B0895629FD001739FF001829FBF
:10176000E00DF11D649FE00DF11D929FF00D839F30
:10177000F00D749FF00D659FF00D9927729FB00DCD
:10178000E11DF91F639FB00DE11DF91FBD01CF01E0
:101790001124089597FB092E07260AD077FD04D05F
:1017A0002ED006D000201AF4709561957F4F0895D1
:1017B000F6F7909581959F4F0895A1E21A2EAA1BE6
:1017C000BB1BFD010DC0AA1FBB1FEE1FFF1FA217F1
:1017D000B307E407F50720F0A21BB30BE40BF50BEE
:1017E000661F771F881F991F1A9469F76095709577
:1017F000809590959B01AC01BD01CF010895AA1B76
:10180000BB1B51E107C0AA1FBB1FA617B70710F0EB
:10181000A61BB70B881F991F5A95A9F7809590951D
:10182000BC01CD010895EE0FFF1F0590F491E02D4E
:061830000994F894FFCFBB
:1018360053656E736F722031202D200048756D69D7
:10184600646974793A2000207C2054656D70657255
:1018560061747572653A200053656E736F7220323B
:10186600202D20006E616E00696E66006F76660040
:101876002E0000000000F6084C058908BD089D08EA
:02188600E60872
:00000001FF
